:100000000C9491020C943E060C9417060C94B902C1
:100010000C94B9020C94B9020C94B9020C94B90274
:100020000C94B9020C94B9020C94B9020C94B90264
:100030000C94B9020C94B9020C94B9020C94B90254
:100040000C94CD050C94B9020C94FE040C94D804C5
:100050000C94B9020C94B9020C94B9020C94B90234
:100060000C94B9020C94B902000000002300260091
:1000700029006382536300010800060400010000A8
:100080000000240027002A000000000025002800AE
:100090002B00040404040404040402020202020209
:1000A000030303030303010204081020408001023C
:1000B00004081020010204081020000000080002BB
:1000C00001000003040700000000000000004500DC
:1000D00000820000400020202824442062797465BA
:1000E00073206672656529003C2F7072653E5570FD
:1000F00074696D6520697320244424443A2444249F
:10010000443A2444244400202444000A244424443F
:10011000244424443A204F4B0024460D0A3C6D658C
:10012000746120687474702D65717569763D2772ED
:100130006566726573682720636F6E74656E743DC3
:10014000272444272F3E3C7469746C653E52463127
:10015000322065746865724E6F6465202D202444DA
:10016000204D487A2C2067726F75702024443C2FF4
:100170007469746C653E52463132206574686572EC
:100180004E6F6465202D202444204D487A2C206732
:10019000726F7570202444202D203C6120687265A8
:1001A000663D2763273E636F6E6669677572653CBF
:1001B0002F613E202D203C6120687265663D2773CB
:1001C000273E73656E64207061636B65743C2F61BC
:1001D0003E3C68333E4C617374202444206D65734B
:1001E00073616765733A3C2F68333E3C7072653EBD
:1001F0000024460D0A3C68333E53657276657220D2
:100200006E6F646520636F6E66696775726174698D
:100210006F6E3C2F68333E3C666F726D3E3C703EA5
:10022000467265712062616E64203C696E707574FF
:1002300020747970653D74657874206E616D653DDC
:10024000622076616C75653D272444272073697AA6
:10025000653D313E2028342C20382C206F72203907
:10026000293C62723E4E65742067726F7570203C47
:10027000696E70757420747970653D74657874204A
:100280006E616D653D672076616C75653D27244420
:10029000272073697A653D333E2028312E2E323572
:1002A00030293C62723E436F6C6C656374206D6FE5
:1002B00064653A203C696E70757420747970653D90
:1002C000636865636B626F78206E616D653D632066
:1002D00076616C75653D2731272024533E20446F9D
:1002E0006E27742073656E642041434B733C6272C9
:1002F0003E3C62723E52656672657368207261743C
:1003000065203C696E70757420747970653D746504
:100310007874206E616D653D722076616C75653D07
:10032000272444272073697A653D343E2028312EE6
:100330002E33363030207365636F6E6473293C2F23
:10034000703E3C696E70757420747970653D73758C
:10035000626D69742076616C75653D5365743E3CD1
:100360002F666F726D3E00485454502F312E30204E
:1003700033303220666F756E640D0A4C6F636174A2
:10038000696F6E3A202F0D0A0D0A00485454502F01
:10039000312E3020323030204F4B0D0A436F6E74B7
:1003A000656E742D547970653A20746578742F6881
:1003B000746D6C0D0A507261676D613A206E6F2D1D
:1003C00063616368650D0A0024460D0A3C68333E8C
:1003D00053656E64206120776972656C6573732064
:1003E00064617461207061636B65743C2F68333E97
:1003F0003C666F726D3E3C703E4461746120627970
:10040000746573203C696E70757420747970653DF5
:1004100074657874206E616D653D622073697A65DC
:100420003D35303E2028646563696D616C293C620E
:10043000723E44657374696E6174696F6E206E6F8D
:100440006465203C696E70757420747970653D74C4
:10045000657874206E616D653D642073697A653DD1
:10046000333E2028312E2E33312C206F7220302045
:10047000746F2062726F616463617374293C62728D
:100480003E3C2F703E3C696E7075742074797065C7
:100490003D7375626D69742076616C75653D536559
:1004A0006E643E3C2F666F726D3E00485454502F70
:1004B000312E302033303220666F756E640D0A4C59
:1004C0006F636174696F6E3A202F0D0A0D0A004840
:1004D0005454502F312E302034303120556E6175F8
:1004E00074686F72697A65640D0A436F6E74656E25
:1004F000742D547970653A20746578742F68746D22
:100500006C0D0A0D0A3C68313E34303120556E6165
:100510007574686F72697A65643C2F68313E0000BB
:10052000411811241FBECFEFD8E0DEBFCDBF11E0D0
:10053000A0E0B1E0EAEBF3E302C005900D92AC3C21
:10054000B107D9F728E0ACECB1E001C01D92AF359E
:10055000B207E1F712E0C1E9D2E004C02197FE0141
:100560000E947C19C039D107C9F70E949B0F0C94D7
:10057000DB190C940000CF92DF92EF92FF920F9361
:100580001F93CF93DF936C017A018B01C0E0D0E021
:10059000CE15DF0589F0D8016D918D01D601ED9161
:1005A000FC910190F081E02DC6010995892B11F491
:1005B0007E0102C02196ECCFC701DF91CF911F9140
:1005C0000F91FF90EF90DF90CF900895FC01538D35
:1005D000448D252F30E0842F90E0821B930B54171D
:1005E00010F0CF96089501970895FC01918D828DAA
:1005F000981761F0828DDF01A80FB11D5D968C9177
:10060000928D9F5F9F73928F90E008958FEF9FEF81
:100610000895FC01918D828D981731F0828DE80F3D
:10062000F11D858D90E008958FEF9FEF0895FC01F7
:10063000918D228D892F90E0805C9F4F821B9109C4
:100640008F739927089586EB97E00E94170321E0A6
:10065000892B09F420E0822F0895FC01848DDF01AD
:10066000A80FB11DA35ABF4F2C91848D90E0019625
:100670008F739927848FA689B7892C93A089B18914
:100680008C9180648C93938D848D981306C002881E
:10069000F389E02D80818F7D80830895EF92FF9212
:1006A0000F931F93CF93DF93EC0181E0888F9B8D95
:1006B0008C8D981305C0E889F989808185FD24C057
:1006C000F62E0B8D10E00F5F1F4F0F731127E02EDA
:1006D0008C8DE8120CC00FB607FCFACFE889F989B7
:1006E000808185FFF5CFCE010E942D03F1CF8B8D48
:1006F000FE01E80FF11DE35AFF4FF0820B8FEA89EC
:10070000FB898081806207C0EE89FF896083E88968
:10071000F98980818064808381E090E0DF91CF91CE
:100720001F910F91FF90EF900895CF93DF93EC010D
:10073000888D8823C9F0EA89FB89808185FD05C001
:10074000A889B9898C9186FD0FC00FB607FCF5CF3B
:10075000808185FFF2CFA889B9898C9185FFEDCF83
:10076000CE010E942D03E7CFDF91CF91089580E065
:1007700090E0892B29F00E94230381110C94000042
:100780000895833081F028F4813099F08230A1F00F
:1007900008958730A9F08830B9F08430D1F4809181
:1007A00080008F7D03C0809180008F7780938000D0
:1007B000089584B58F7702C084B58F7D84BD089578
:1007C0008091B0008F7703C08091B0008F7D8093BF
:1007D000B00008950895CF92DF92EF92FF920F93A9
:1007E0001F938634910568F12091DC02233449F58A
:1007F000C090E702D090E802E090E902F090EA02AF
:1008000000912202109123022091240230912502AE
:10081000C016D106E206F306A1F4E3EDF3E0875437
:100820009D4F9F012E5F3F4F41815081553319F4F9
:100830005281561741F0F901E40FF11DE817F9074D
:1008400080F380E001C081E01F910F91FF90EF9055
:10085000DF90CF900895E0911B02F0911C029F0160
:100860002F5F3F4F30931C0220931B02808308951B
:10087000EF92FF920F931F93CF93DF931F92CDB709
:10088000DEB7062F142F59830E942B04802F0E945D
:100890002B04E12E5981F52E100F1E1531F0F701B2
:1008A00081917F010E942B04F8CF0F90DF91CF91AF
:1008B0001F910F91FF90EF900895DC011696ED9136
:1008C000FC9117979F012F5F3F4F17963C932E93F4
:1008D0001697608381E090E00895089580E090E0AD
:1008E00008950E949119DC01ED91FC910190F08135
:1008F000E02D09946115710579F0FB01019000204C
:10090000E9F73197AF01461B570BDC01ED91FC91E4
:100910000280F381E02D099480E090E008954F92E9
:100920005F926F927F92EF92FF920F931F93CF93FC
:10093000DF93CDB7DEB7A1970FB6F894DEBF0FBE39
:10094000CDBF7C01FA01CB0119A2223008F42AE0C4
:100950008E010F5D1F4F422E512C612C712CBF0157
:10096000A30192010E943019F901CA010150110935
:100970006A3014F4605D01C0695CD8016C93232B6C
:10098000242B252B61F7B801C7010E947A04A19698
:100990000FB6F894DEBF0FBECDBFDF91CF911F9190
:1009A0000F91FF90EF907F906F905F904F90089520
:1009B0001F920F920FB60F9211242F933F934F93D4
:1009C0005F936F937F938F939F93AF93BF93EF93B7
:1009D000FF9386EB97E00E942D03FF91EF91BF916B
:1009E000AF919F918F917F916F915F914F913F91C7
:1009F0002F910F900FBE0F901F9018951F920F927E
:100A00000FB60F9211242F938F939F93EF93FF9321
:100A1000E091C607F091C7078081E091CC07F09183
:100A2000CD0782FD12C090818091CF078F5F8F73B9
:100A30002091D007821751F0E091CF07F0E0EA54FF
:100A4000F84F958F8093CF0701C08081FF91EF9180
:100A50009F918F912F910F900FBE0F901F9018951F
:100A60001F93CF93DF93282F30E0F901E654FF4F17
:100A70008491F901EA55FF4FD491F901EE56FF4FE9
:100A8000C491CC23C9F0162F81110E94C103EC2F11
:100A9000F0E0EE0FFF1FE857FF4FA591B4918FB71D
:100AA000F894111105C09C91ED2FE095E92302C047
:100AB000EC91ED2BEC938FBFDF91CF911F910895B7
:100AC000CF93DF9390E0FC01EA55FF4F2491FC01A6
:100AD000EE56FF4F8491882361F190E0880F991FB3
:100AE000FC01E258FF4FC591D491FC01E857FF4F3C
:100AF000A591B491611109C09FB7F89488812095A0
:100B000082238883EC912E230BC0623061F49FB75F
:100B1000F8943881822F809583238883EC912E2B43
:100B20002C939FBF06C08FB7F894E8812E2B2883A3
:100B30008FBFDF91CF9108953FB7F89480913B022A
:100B400090913C02A0913D02B0913E0226B5A89B37
:100B500005C02F3F19F00196A11DB11D3FBFBA2F4F
:100B6000A92F982F8827820F911DA11DB11DBC01AF
:100B7000CD0142E0660F771F881F991F4A95D1F774
:100B800008952FB7F89460913702709138028091E0
:100B9000390290913A022FBF08951F920F920FB61B
:100BA0000F9211242F933F938F939F93AF93BF93F3
:100BB0008091370290913802A0913902B0913A02A7
:100BC0003091360223E0230F2D3720F40196A11D2A
:100BD000B11D05C026E8230F0296A11DB11D20936B
:100BE00036028093370290933802A0933902B09373
:100BF0003A0280913B0290913C02A0913D02B0915B
:100C00003E020196A11DB11D80933B0290933C02D0
:100C1000A0933D02B0933E02BF91AF919F918F91FF
:100C20003F912F910F900FBE0F901F9018951F921C
:100C30000F920FB60F9211242F933F934F935F9310
:100C40006F937F938F939F93AF93BF93EF93FF9394
:100C5000E0910201F09103010995FF91EF91BF919D
:100C6000AF919F918F917F916F915F914F913F9144
:100C70002F910F900FBE0F901F9018951F920F92FB
:100C80000FB60F9211242F933F934F935F936F935F
:100C90007F938F939F93AF93BF93EF93FF93E091D5
:100CA0000001F09101010995FF91EF91BF91AF9182
:100CB0009F918F917F916F915F914F913F912F9174
:100CC0000F900FBE0F901F9018952CB521602CBD72
:100CD0002A989EBD0DB407FEFDCF2EB530E0322F11
:100CE00022278EBD0DB407FEFDCF9EB52A9A8CB586
:100CF0008E7F8CBDA901492BCA010895E8980E94F6
:100D00006506E89A08958627682F62956827062E5B
:100D1000669566956025062E669560256770082E97
:100D2000892F669507946795902D86270694679579
:100D300090258627089586FD05C0807E90916702E4
:100D40009F71890F80937102E0916502F0916602B4
:100D5000309711F081E009958FEF9FEF9093B802E3
:100D60008093B7028091B7029091B80260916402BB
:100D70000E9483069093B8028093B70286E0809326
:100D800069028DE392E80C946506CF9380E090E0D1
:100D90000E94650680916902853091F580E090EBB4
:100DA0000E946506682F80916802811104C09091AD
:100DB0006402911176C0E091680281E08E0F809309
:100DC0006802F0E0E059FD4F60838091B702909196
:100DD000B8020E9483069093B8028093B702809174
:100DE00072022091680290E0049630E08217930727
:100DF0000CF462C080916802873408F05DC061C065
:100E00008091690287FF1BC0E091720280916902A4
:100E100091E0980F90936902ED5F8E0FE82FF0E05C
:100E2000E059FD4FC0818091B7029091B8026C2FBC
:100E30000E9483069093B8028093B7022EC08091DF
:100E400069028330F1F054F48823A9F08130E9F489
:100E50008091B7029091B802C92F1AC08930B9F0B9
:100E60008A3099F4C0916402909172028DEF891BCF
:100E7000809369020DC08091B7029091B802C82F8B
:100E800007C08DE092E80E946506CAEA01C0CDE283
:100E9000809169028F5F809369028C2F90E0985453
:100EA0000DC0E091680281E08E0F80936802F0E04F
:100EB000E059FD4F90837FCF8DE092E8CF910C9465
:100EC0006506CF910895DC0196E0FB0101900D923B
:100ED0009A95E1F70895FB01408151816281738108
:100EE000FC0140835183628373830895CF93DF9322
:100EF000EB0144E050E0BC0185ED92E00E949619C0
:100F0000892B39F46FEC72E0CE010E94630781E017
:100F100001C080E0DF91CF9108958091C90290E0F7
:100F2000982F88272091CA02822B44972091E702AC
:100F300030E044E0359527954A95E1F7220F331FBD
:100F4000220F331F821B930B97FF02C080E090E0BB
:100F500008952091DD023091DB023093DD02209371
:100F6000DB022091DE023091DC023093DE0220931E
:100F7000DC0223EE32E0A7EEB2E0F9014291840FE9
:100F8000911D4E918C93662311F0408301C0108215
:100F9000892F992744E04E0F4213F0CF1092EB02B5
:100FA0001092EC0280E58093E7020895BC0189EB82
:100FB00092E00E94630763E472E08FEB92E00C948E
:100FC0006307CF93DF9300D0CDB7DEB769837A8311
:100FD0000E94D60769817A8187ED92E00E946B07B3
:100FE00062EB77E083ED92E00F900F90DF91CF916D
:100FF0000C946B070F931F93CF93DF9370E06754AC
:101000007D4F213021F48A01075F1F4F0CC0223031
:1010100039F000E010E09801DB011196EA0106C00A
:101020008A010250110920E030E0F6CFC230D1052C
:1010300078F0FD013197E081F0E0FE2FEE279C91E2
:10104000E92B0E0F1F1F211D311D22971296EECF87
:10105000FA01EE7FE60FF71F40FF0CC0408150E021
:1010600060E070E0762F652F542F4427040F151F82
:10107000261F371FA90166277727411551056105EE
:10108000710519F022273327F1CF00951095E82F2D
:10109000F0E0E754FD4F10830183DF91CF911F9162
:1010A0000F910895E9EBF2E0108E118E80E4848BAD
:1010B000158A868B20E044E150E06EE088E10C94D4
:1010C000FA078FEB92E00E94D60763ED72E087ED9E
:1010D00092E00E946B0762EB77E083ED92E00E9462
:1010E0006B070C9452088EBD0DB407FEFDCF08951A
:1010F00061E080913F020E94300578940895F89451
:1011000060E080913F020C9430050F931F93CF93C2
:10111000DF93EC018B010E947F082097B9F08AE3EE
:101120000E9473081EBCF801CE01019739F00DB47E
:1011300007FEFDCF2EB51EBC2193F7CF2197C00F20
:10114000D11F0DB407FEFDCF8EB58883DF91CF91FF
:101150001F910F910C947808CF93DF9300D01F92CA
:10116000CDB7DEB74B836A8389830E947F086A818B
:101170006F718981862B0E9473084B81842F0E9496
:1011800073080F900F900F90DF91CF910C94780817
:101190001F93CF93DF93182F1076C12FD0E02091AB
:1011A000320230E0C217D307A1F043E06FE180EADA
:1011B0000E94AC0810933202AE0185E05595479528
:1011C0008A95E1F76FE180E8DF91CF911F910C9450
:1011D000AC08DF91CF911F9108951F93CF93DF93B8
:1011E0001F92CDB7DEB7182F69830E94C8084981C6
:1011F000612F80E40F90DF91CF911F910C94AC0888
:101200001F93CF93DF931F92CDB7DEB7182F79834B
:101210000E94ED087981672F81E0810F0F90DF91A7
:10122000CF911F910C94ED081F93CF93DF931F92E2
:10123000CDB7DEB7182F0E94C8080E947F08812F03
:101240008F710E94730880E00E94730817FF03C02B
:1012500080E00E9473088EB589830E947808898196
:101260000F90DF91CF911F9108950F931F93CF930C
:10127000DF9300D000D000D0CDB7DEB7809135022B
:10128000882389F0609133027091340261157105F1
:1012900019F46FEF7BE002C0615071098CE00E948D
:1012A00000091092350289E30E9414098823C9F1CC
:1012B000609133027091340280E00E940009BE0107
:1012C0006F5F7F4F86E090E00E94850889819A8158
:1012D00090933402809333020B811C8180914002F1
:1012E000909141022D8127FF0DC0019704501109F3
:1012F0008017910708F48C0169EB72E0C8010E9425
:10130000850802C000E010E0F801E754FD4F1082AC
:1013100081E08093350240E46EE180E80E94AC08F1
:1013200002C000E010E0C80126960FB6F894DEBFB8
:101330000FBECDBFDF91CF911F910F910895CF9335
:10134000DF93EC0140E86FE180E80E94AC0840E8E0
:101350006FE180EA0E94AC084AE06CE180EA0E94FA
:10136000AC0860E07CE082E00E940009BE01745F8E
:1013700086E00E94000940E060E08AE70E94AC0835
:101380000E947F08209751F40E94780848E06FE19E
:1013900080E80E94AC08C0E0D0E01CC08AE70E9450
:1013A00073088091B9028EBDEAEBF2E0C754DD4FBD
:1013B000EC17FD0731F081910DB407FEFDCF8EBD16
:1013C000F7CF0DB407FEFDCFDFCF2196C83E83E0F7
:1013D000D80729F08CE10E9414098A70B1F38CE1DE
:1013E0000E94140981FD03C0C83ED34039F448E08F
:1013F0006FE180EADF91CF910C94AC08DF91CF913F
:1014000008950F931F93CF938C018DE291E00E947A
:10141000D607E9EBF2E088E08487C6E0C58748E0BC
:1014200050E066E770E087EC92E00E949418E9EDE6
:10143000F2E0DF011D92CA95E9F763E472E08FECF8
:1014400092E00E946307B8018FED92E00E946B0763
:1014500062EB77E085ED92E00E946B078AE290E014
:10146000CF911F910F910C949F090F931F93CF93CE
:10147000DF938C018896C9EBD2E0988B898B0E9410
:1014800052081AAA1BAAA801445E5F4F22E06AE133
:1014900082E30E94FA07C801C696DF91CF911F919F
:1014A0000F910C949F09262F20612093E80264304D
:1014B00021F0009711F481E090E061E00E94A9071B
:1014C0001092C90288E28093CA020E94610884E0F7
:1014D0008093E9021092EA0222E04CE150E06AE1D6
:1014E00082E30E94FA0786E390E00C949F09FF9242
:1014F0000F931F93CF93DF938C0186E191E0E9EB8B
:10150000F2E0DF019C011D9221503040E1F7809113
:101510004202833019F0CDE2D1E002C0CDE1D2E049
:10152000CE010E94670FBE01882319F08DE492E07E
:1015300002C083E592E00E94E1078881807F803EBF
:1015400091F088819981AA81BB818F3F9F4FAF4FD6
:10155000BF4F49F044E050E0BE0189E492E00E94B0
:101560009619892B31F46DE271E089EB92E00E94CB
:10157000630788E08093C5021092C60249E050E0FC
:101580006EEC70E087EC92E00E9494181092C90211
:1015900081E18093D0021092DD0283E48093DE0229
:1015A0001092DB0284E48093DC021092DF0210923E
:1015B000E1021092E2026DE271E089EB92E00E949A
:1015C000630781E08093E3028093E40286E08093E6
:1015D000E5028091220290912302A0912402B09111
:1015E00025028093E7029093E802A093E902B0936A
:1015F000EA0280914202833031F462EB77E08FEEB1
:1016000092E00E946B0763E472E08FEF92E00E9429
:1016100063078FEC93E090931C0280931B02C2E758
:10162000D0E0FC2E84E0F80EFE0184910E942B0491
:101630002196FC12F9CF85E30E942B0481E00E94E1
:101640002B0480914202882311F083E001C081E0E5
:101650000E942B048DE30E942B0487E00E942B0440
:1016600081E00E942B04C3E4D2E0FC2E26E0F20EBF
:10167000FC1621F089910E942B04FACF809104017D
:10168000882371F0E4E0F1E001900020E9F7319760
:10169000BF016450714044E051E08CE00E94380486
:1016A0000115110559F0A80164E082E30E94380495
:1016B0004DE152E064E086E30E94380487E30E9433
:1016C0002B0483E00E942B0481E00E942B0483E022
:1016D0000E942B0486E00E942B048FEF0E942B04B3
:1016E000C0911B02D0911C02C35ED240CE014C9629
:1016F0009093C9028093CA020E945208CE010896B4
:101700009093DF028093E002AE01405F5F4F21E0E3
:101710006AE188E20E94FA07CE018A96DF91CF91B2
:101720001F910F91FF900C949F09CF92DF92EF923F
:10173000FF920F931F93CF93DF9300D000D0CDB7CC
:10174000DEB78C0180914202823009F480C030F40F
:101750008823A9F1813009F452C035C1833021F0CA
:10176000843009F474C02FC1C0902E02D0902F0293
:10177000E0903002F09031022FEFC216D206E2065E
:10178000F20609F420C10E94C10500912A021091BD
:101790002B0220912C0230912D02DC01CB01801B09
:1017A000910BA20BB30B8C159D05AE05BF0508F47C
:1017B0000AC182EB97E00E94770A84E0F8C00E9499
:1017C000C1056093220270932302809324029093B8
:1017D00025021092B2071092B3071092B40710922C
:1017E000B50780E090E00E94770A88E30E94140920
:1017F000682F616088E30E94ED0881E0D8C062E054
:10180000C8010E94EB03882341F163EF72E0CE012F
:1018100001960E946B07E3EDF3E007541D4FBF01F3
:101820006E5F7F4F81819081963329F48DE192E044
:101830000E946B0706C0FB01E80FF11DE017F107DE
:1018400070F3CE0101960E94770A82E0B0C065E095
:10185000C8010E94EB03811119C00E94C1050091CB
:101860002602109127022091280230912902DC01E2
:10187000CB01801B910BA20BB30B81319742A105C9
:10188000B10508F4A0C0109242029DC080912102CF
:10189000811108C088E30E941409682F6E7F88E3D5
:1018A0000E94ED0863EF72E082EB97E00E946B0705
:1018B000E3EDF3E007541D4F7F0182E0E80EF11CD9
:1018C000D18080818630A9F048F4813071F0833076
:1018D00009F045C0B7018DE592E00EC08A3379F07A
:1018E0008F3FD9F18333D9F50AC0B7018EEA97E06B
:1018F00003C0B70189E592E00E946B0730C0D701B1
:10190000369620E030E0A9018D91742F632F522F7D
:1019100044279A01AB01280F311D411D511DAE17FF
:10192000BF0791F720932E0230932F02409330028D
:10193000509331022F3F8FEF38074807580779F04F
:10194000A8EEB3E00E94711960932E0270932F02EB
:10195000809330029093310202C081E001C080E0A8
:10196000F701ED0DF11D811104C0E017F10708F436
:10197000A3CF0E94C10560932A0270932B0280932B
:101980002C0290932D0280915D02882361F01092C9
:1019900062021092610281E0809363026DE572E061
:1019A000CB010E946B0783E0809342020CC08093BE
:1019B00042020E94C1056093260270932702809321
:1019C0002802909329020F900F900F900F90DF91B3
:1019D000CF911F910F91FF90EF90DF90CF900895DE
:1019E000CF93DF93EC01FB018A30910548F06AE068
:1019F00070E00E940819CB01BF010E94F00CFC01AD
:101A0000CE016AE070E00E940819805D8083118237
:101A1000CF010196DF91CF910895CF93DF93CDB79A
:101A2000DEB72A970FB6F894DEBF0FBECDBFDC013C
:101A30001796FB0190E02C91822F8F7DD9F02A30F0
:101A4000C9F0911119C08081281311C081818823A8
:101A500011F031960DC09D012F5F3F4F91E011961F
:101A60008C918D3309F090E0FB01D90101C0FB019D
:101A70001196E1CF9923B9F020E0FE013196CF0114
:101A800008C03A3051F0363241F0293031F031930C
:101A90002F5F3D91632F6F7DA1F71082222319F0F4
:101AA0000E947618AC01CA012A960FB6F894DEBFE0
:101AB0000FBECDBFDF91CF910895BF92CF92DF923D
:101AC000EF92FF920F931F93CF93DF930AE612E0FA
:101AD000C0E1D0E0CE010E94E618F80181938F01A9
:101AE0002196C631D105B1F780916F028D3F89F003
:101AF0008DEF80936F0288E080936A0281E080938B
:101B00006B0280936C0285E090E090936E0280936C
:101B10006D0280916A02843029F0883031F033E020
:101B2000C32E05C0CC24C39402C022E0C22E8091F3
:101B30006B029FE1909367028093640280E496E0D9
:101B400090931A02809319022A9A229A61E08AE0FD
:101B50000E94300561E08AE00E94600561E08BE050
:101B60000E94600560E08CE00E94600561E08DE00D
:101B70000E94600580E58CBD8DB581608DBD60E003
:101B800082E00E94600561E082E00E94300580E012
:101B900090E00E94650685E092E80E94650680E07C
:101BA00098EB0E946506CCEBD0E008EA10E094E9DF
:101BB000E92E90E0F92EFE018491F801B490F7012E
:101BC000D490D11005C080E090E00E946506F3CF6C
:101BD00081110E94C1032D2D30E0220F331F28599F
:101BE0003F4FF901A591B4918C91B82261F3F0E1D6
:101BF000CF9EC0011124876C90680E946506809179
:101C0000190290911A0290560E94650686E096ECA1
:101C10000E94650682EA94E90E9465068CEA92ECCD
:101C20000E94650680916402882349F083E89AEC5B
:101C30000E9465068091640290E09E6C06C08BE86D
:101C40009AEC0E9465068DE29EEC0E94650683E890
:101C500094EC0E94650680E598E90E94650687E796
:101C60009CEC0E94650680E090EE0E94650680E094
:101C700098EC0E94650689E490EC0E94650684E079
:101C800080936902809167028F7169F085EC96E01C
:101C90009093010180930001809169008C7F809373
:101CA0006900E89A07C0E8988AEE93E090930101F2
:101CB00080930001DF91CF911F910F91FF90EF90E2
:101CC000DF90CF90BF900895CF92DF92EF92FF9276
:101CD0000F931F93CF93DF93CDB7DEB7ED84FE84D0
:101CE0008E01015F1F4FC7010196F7012491222346
:101CF00009F4D1C0243271F0E0915908F0915A08EA
:101D0000AF014F5F5F4F50935A08409359082083AB
:101D10007C01E9CFF2E0EF0EF11CFC0194919634C6
:101D200009F46EC05CF49434B9F0953409F097C0AE
:101D3000F801808191810E5F1F4F7AC04091590850
:101D400050915A089C3409F443C0933509F44DC0AE
:101D5000983409F084C00EC06801F2E0CF0ED11CA7
:101D60006091590870915A08F801808191810E9410
:101D7000F00C82C0B8016E5F7F4FF8019081292F6F
:101D8000092E000C330B84E0359527958A95E1F7F1
:101D90002F709F709A300CF0995F905D2A300CF094
:101DA000295FFA013196F0935A08E0935908205DB3
:101DB000FA012083E0915908F0915A089F012F5FA2
:101DC0003F4F30935A082093590890838B018BCF53
:101DD0006801F4E0CF0ED11CF8016081718182812D
:101DE00093812AE00E949D1847C06801F2E0CF0E5F
:101DF000D11CF80160817181CA010E94AC193CC0FC
:101E0000F8010190F081E02D0E5F1F4F8491319613
:101E1000882309F468CFA0915908B0915A089D0110
:101E20002F5F3F4F30935A08209359088C93EECF81
:101E30006C01FFEFCF1ADF0A0E94E618882309F42D
:101E400052CFE0915908F0915A089F012F5F3F4F00
:101E500030935A08209359088083C601E9CFE09156
:101E60005908F0915A089F012F5F3F4F30935A084D
:101E700020935908908337CFE0915908F0915A0880
:101E800001900020E9F7CF01019790935A088093C1
:101E90005908860128CFDF91CF911F910F91FF90B4
:101EA000EF90DF90CF900895CF93DF93BC0186EB46
:101EB00097E00E947A04EC016CE971E086EB97E010
:101EC0000E947A048C0F9D1FDF91CF910895CF93CC
:101ED000DF932091B2072223A1F0FC01208122236D
:101EE00081F0A2EBB7E0CEEAD7E08D9121919991F4
:101EF0008227892331F487E0A63BB807B1F781E058
:101F000001C080E0DF91CF91089561E184ED0E94EE
:101F1000ED0861E082ED0E94ED088AEE0E9414094E
:101F200080FDFBCF60E082ED0E94ED0889ED0E940C
:101F3000140990E00895CF93DF93CDB7DEB72797CC
:101F40000FB6F894DEBF0FBECDBF789484B5826023
:101F500084BD84B5816084BD85B5826085BD85B54D
:101F6000816085BD80916E00816080936E001092CB
:101F70008100809181008260809381008091810046
:101F800081608093810080918000816080938000D7
:101F90008091B10084608093B1008091B000816035
:101FA0008093B00080917A00846080937A00809161
:101FB0007A00826080937A0080917A0081608093B9
:101FC0007A0080917A00806880937A001092C10034
:101FD000E091C607F091C70782E08083E091C607D1
:101FE000F091C7071082E091C207F091C3071082F9
:101FF000E091C407F091C50780E180831092CE077D
:10200000E091CA07F091CB0786E08083E091C80792
:10201000F091C907808180618083E091C807F091C9
:10202000C907808188608083E091C807F091C90763
:10203000808180688083E091C807F091C907808122
:102040008F7D808389E591E00E94540F0E945D0D91
:102050001092B70687E390E001E010E020E030E066
:102060000097D1F0FC01A3E0F595E795AA95E1F77B
:10207000EF55F94F482F47706801790104C0CC0C27
:10208000DD1CEE1CFF1C4A95D2F7B701A601A0810A
:102090004A2B40830197E4CF64E271E083E492E04D
:1020A0000E94630788EE93E0909341028093400280
:1020B0000CB406FC25C061E08AE00E94600561E086
:1020C0008AE00E94300561E08BE00E94600561E0DB
:1020D0008DE00E94600560E08CE00E94600561E098
:1020E0008BE00E94300560E08BE00E94300560E0EC
:1020F0008DE00E94300580E58CBD8DB581608DBD81
:102100008AE080933F0261E00E9460050E947808A7
:102110004FEF60E08FEF0E94AC080E949C056B01BE
:102120007C01E2E08E2E912CA12CB12C0E949C050A
:10213000DC01CB018C199D09AE09BF09883E934093
:10214000A105B10598F328EEC20E23E0D21EE11CD2
:10215000F11C8A9489288A288B2829F0812C912CBB
:1021600054018394E3CF0E947F088DE10E9473089D
:1021700080E00E9473081EB50E947808112399F32D
:1021800060E070E088E00E94000960E070E08CE0B0
:102190000E9400096FEF7BE08AE00E94000960E086
:1021A0007CE084E00E9400096FEF71E186E00E940C
:1021B000000961EB88E30E94ED086FE370E388E2B9
:1021C0000E94000969EF77EF80E30E9400096DE04B
:1021D00080EC0E94ED0860E081EC0E94ED0842E393
:1021E00062EC80E80E94AC0862E17CE086EC0E9430
:1021F000000962E184EC0E94ED086CED75E08AEC68
:102200000E9400096091430284EE0E94ED086091F3
:10221000440285EE0E94ED086091450282EE0E9424
:10222000ED086091460283EE0E94ED08609147023E
:1022300080EE0E94ED086091480281EE0E94ED0858
:1022400060E184ED0E94ED0860E071E086ED0E949F
:1022500000098AEE0E94140980FDFBCF8FE10E94E5
:10226000C80840EC6BE180E80E94AC0844E06FE1F4
:1022700080E80E94AC0882E70E941409863008F0CA
:102280008F5F811104C086E691E00E94540F81E0C7
:102290008093B706E4E0F1E001900020E9F7E75011
:1022A000F14080914802282F30E064E03595279571
:1022B0006A95E1F72A30310514F097E301C090E305
:1022C000EC5FFE4F290F2083E4E0F1E00190002055
:1022D000E9F7E650F1408F708A3014F097E301C0BF
:1022E00090E3EC5FFE4F890F8083109242020E94C0
:1022F000C1058B0120914202233091F02F830E946F
:10230000C105601B710B2F8160367A4E48F40E9424
:10231000850F82FFEFCF0E9435090E94950BEACF0F
:1023200082EBE82E87E0F82E4EEA57E069E472E08F
:10233000F70134E03E0D9191DA018D91AD01809568
:10234000892BDB018D93BD013E13F5CF1092620204
:1023500010926102233021F08BE891E00E94540F2B
:1023600067E971E086EB97E00E947A0410E0F701DC
:1023700041917F0150E060E070E02AE086EB97E059
:102380000E948F04133029F06EE286EB97E00E94E2
:1023900073041F5F143059F76CE971E086EB97E026
:1023A0000E947A0403E518E04AE0C42ED12C57E0DD
:1023B000252E51E0352E0E9435095C018091B7062B
:1023C000882319F0C5010E94950BA114B10409F0EE
:1023D000ACC080916302857051F080916102909150
:1023E0006202892B21F40E94850F82FDB4C1809185
:1023F0006102909162020196909362028093610261
:102400008091B606813009F071C08091630281FF2E
:102410006DC082E08093B60680912B018F5F809320
:102420002B018F71F82E80EB96E00E94670F60EB16
:1024300076E0882319F08DE492E002C083E592E013
:102440000E94E10738E0E32EE092C5021092C60236
:1024500049E050E06EEC70E087EC92E00E94941846
:102460008CE28093CA0286E08093D0020E945208D8
:102470001092DD021092DE028BE08093DB02F0927C
:10248000DC02EFEDF2E0DF011D92EA94E9F78091C2
:102490002A018093E1028D5F80932A0180E6809378
:1024A000E70282E08093E80293E09093E9021092C1
:1024B000EA021092EB021092EC021092ED021092DE
:1024C000EE028093EF0294E09093F0028093F10289
:1024D00086E28093F20222E040E250E06AE182E389
:1024E0000E94FA078AE390E00E949F0989E592E042
:1024F0000E94670F882349F08091B506811105C0BD
:102500008091B406882309F430C180EB96E00E94E4
:10251000670F882309F459C08091AF06811155C017
:102520008091AE06811151C028C1B9E2AB16B10449
:1025300008F44BC08091C502883009F046C08091F4
:10254000C602863009F0B5C144E050E062EB77E0A6
:102550008FED92E00E949619892BB9F58091CE02F9
:10256000813029F58FEB92E00E94D6071092CD02C0
:1025700082E08093CE026FEC72E089ED92E00E94DF
:10258000630763E472E08FEC92E00E94630765EDFD
:1025900072E08FED92E00E946B0762EB77E085EDD1
:1025A00092E00E946B078AE290E00E949F0980916E
:1025B000630283FDEAC08091B506882309F4F3C065
:1025C0008091AF06882309F4FCC0809169028530B0
:1025D00091F5809172022091680290E0049630E0BB
:1025E0008217930724F080916802873420F184E0F9
:1025F000809369028091B7029091B8029093B802DB
:102600008093B70280917202833430F081E090E0D1
:102610009093B8028093B7028091710286FF30C018
:1026200080916702982F9F719F3151F190917102B3
:1026300089278F7129F180916902843009F072C075
:1026400010927202109268028FEF9FEF9093B8027F
:102650008093B70260916402662351F08091B702C3
:102660009091B8020E9483069093B8028093B702BB
:1026700085E0809369028DED92E80E94650652C064
:102680008091B7029091B802892B09F0B7C0E09110
:102690006502F0916602309709F4B0C080E00995B8
:1026A0008091B7029091B802892BE1F58091710277
:1026B00087FD38C08091AD0790E020917102FC0148
:1026C00034E0EE0FFF1F3A95E1F7E35FF84F208308
:1026D00040E09F0150917202451708F49BC0209181
:1026E00072022F3008F0A3C0209172022F5FFC010C
:1026F000ED5FF84F20830196B6010E941C1980936C
:10270000AD078091010790910207019660E177E2A1
:102710000E9408199093020780930107809171022B
:1027200085FD87C0F0902C01F7FC12C080916902F2
:10273000853071F48091680281110AC080E090E0D8
:102740000E947E0690FF8EC003C08FEF80932C0105
:102750000E94B70330CE8DE592E00E94010A80917D
:10276000630288608093630242CE89E592E00E9412
:10277000010A81E08093B406C8CE80EB96E00E9407
:10278000010A81E08093AE0620CFF090CE02E2E015
:10279000FE1211CF63E572E08DE592E00E947607AC
:1027A000811123C008CF8091B406882309F408CF93
:1027B0006DE472E089E592E00E947607811118C00D
:1027C000FFCE8091AE06882309F4FFCE6DE472E05F
:1027D00080EB96E00E947607882309F4F6CE81E02C
:1027E0008093AF061092AE06F0CEF0926302E3CE75
:1027F00081E08093B5061092B406E2CE8FEF9FEF92
:10280000DC018093BA069093BB06A093BC06B093FC
:10281000BD0646CF4F3048F4E42FF0E0DF01AD585D
:10282000BD4F5C91E20FF31F51834F5F53CF20E107
:102830005ECF8091710287FD75CF80916C0281110E
:1028400071CF84EC91E00E94540F8091710286FD5B
:1028500007C0809171028F71806C0E949B0662CFCD
:1028600080E8FBCF8DE092E80E947E0684E08093B2
:102870006902E0900007F09272024F2DFF0C550B99
:102880006EEB76E083E792E00E94A3198E2D0E9402
:102890009B0680916902843009F457CF83B7817F0A
:1028A00083BF83B7816083BF889583B78E7F83BFE3
:1028B000F0CF99E2A916B10409F487CE811185CE33
:1028C0008091C702853409F080CE44E050E062EB8D
:1028D00077E087ED92E00E949619892BA9F044E0F9
:1028E00050E069E472E087ED92E00E949619892B2E
:1028F00059F044E050E06DE271E087ED92E00E9413
:102900009619892B09F061CE8091D002813001F5B2
:102910008091DB02883009F058CEE091AC06F0914E
:10292000AD06309719F083ED92E009950E94610899
:102930001092DB028091DD02883F28F09091DE0248
:102940009F5F9093DE02885F8093DD02C501F6C031
:10295000F6E3AF16B10408F438CE863009F035CE70
:102960008091DD028B3009F0A3C044E050E060EBC1
:1029700076E083ED92E00E949619892B09F025CE2E
:102980002091E80222FF13C0E091AA06F091AB0665
:10299000309759F08091DE0220E030E040E050E0D6
:1029A00063E0829586958770099585E06BC02F83DB
:1029B0000E948D077C018091B6062F81823061F5DF
:1029C000822F807122712231D9F460E080E090E0A2
:1029D0000E94530A88E18093E802E091A806F091F2
:1029E000A906309739F08091DC0282958695877030
:1029F000099502C080E090E023E02093B60630C144
:102A000091E09093B606811103C0C701019602C000
:102A100080E090E064E0B7C08330B9F5E114F104E0
:102A2000B9F1E091AA06F091AB06309789F1809157
:102A3000E70290E0B4E095958795BA95E1F7880FA5
:102A4000991F880F991F8296A50148505109841734
:102A5000950708F4AC01C701840F951FA816B906A5
:102A600020F49501241B350B01C097018091DE02F3
:102A700060E0829586958770099569E0C7010E949C
:102A8000530A86E08093B606A0CD853009F49DCD2B
:102A900020FF07C0833009F498CD69E0C701019693
:102AA000EECFE114F10409F490CD60E0C7016BC0F2
:102AB00081118BCD8091DE02803509F086CDF090BA
:102AC000E8022F2D2270922EF1FE3BC01092C90217
:102AD0008CE28093CA020E94610882E18093E8023E
:102AE00060E081E090E00E94A9071092DF0210925E
:102AF000E00280912A018093E1021092E2028D5F50
:102B000080932A0182E08093EF0284E08093F002B8
:102B100085E08093F1021092F20290E69093E70232
:102B20008093E90288E78093EA0222E040E250E0E5
:102B30006AE182E30E94FA078AE390E00E949F091B
:102B400044CDF4FE42CD0E948D079093B906809348
:102B5000B806892B99F0E090E702F12CF4E0F594A7
:102B6000E794FA95E1F7EE0CFF1CEE0CFF1C9701C1
:102B70002E5D3F4FA216B30648F427CDF0FE25CDBB
:102B800060E080E090E00E94530A1FCD109256084A
:102B9000109255088FEE92E0909358088093570852
:102BA00090935A0880935908C90187549D4F7C011E
:102BB0000E94540F46E050E0B7018DEB91E00E9477
:102BC000B319892B09F44FC046E050E0B7018FE9F3
:102BD00091E00E94B319892B09F0A2C1D701169682
:102BE0008C918F3309F444C120916D0230916E02B3
:102BF00080916C02811191C18EE991E03F932F93F6
:102C00009F938F9380916B021F928F9380916A02A2
:102C10001F928F938BE893E09F938F9381EF91E0C6
:102C20009F938F931F930F930E94640E0FB6F89497
:102C3000DEBF0FBECDBFE0905908F0905A088091DA
:102C4000570890915808E81AF90A60E08091B80690
:102C50009091B9060E94530A89E18093E802C70166
:102C60000E94350AB2CC80916A02843021F088300B
:102C700029F083E904C081EB91E002C084E693E08F
:102C800020916B021F923AE03F931F922F939F93E4
:102C90008F931F922F939F938F9380916E028F93A8
:102CA00080916D028F938BE893E09F938F9389E1DE
:102CB00091E09F938F931F930F930E94640E0FB622
:102CC000F894DEBF0FBECDBFE12CF12CEBE06E2EF1
:102CD000E1E07E2E8091AD07D701A80FB11DCD0197
:102CE000B6010E941C195C01FC01ED5FF84F4F0119
:102CF0008081811108C0FFEFEF1AFF0A2AE0E21677
:102D0000F10441F752C020910107309102072A5087
:102D100031092E0D3F1DC901B6010E9408199F936C
:102D20008F93CB01B6010E9408199F938F93C9011D
:102D300064E670E00E940819CB01B6010E940819F0
:102D40009F938F93C90168EE73E00E9408197F93E7
:102D50006F937F926F921F930F930E94640E0FB632
:102D6000F894DEBF0FBECDBF512C74E0AA0CBB1C83
:102D70007A95E1F7D4018C91581608F0BCCFF50193
:102D8000E50DF11DE35FF84F80811F928F933F9215
:102D90002F921F930F930E94640E53940F900F90E5
:102DA0000F900F900F900F90E5CF0E94C10528EE75
:102DB00033E040E050E00E94301929013A01CA0195
:102DC000B90120E13EE040E050E00E9452192B831F
:102DD0003C834D835E836CE3862E912CA12CB12C19
:102DE000C301B201A50194010E945219762ECA01B5
:102DF000B901A50194010E945219362F2AE0872DAE
:102E0000622F0E94FC181F929F931F928F93832F13
:102E10000E94FC181F929F931F928F938B819C811D
:102E2000B7010E9408199F938F937F936F9388EE49
:102E300090E09F938F931F930F930E94640E809155
:102E40005B0890915C080FB6F894DEBF0FBECDBF53
:102E5000009711F48FE598E09E012F5F3F4F7901B5
:102E6000E81AF90AC7019F93EF9287ED90E0EFC04F
:102E70004FEF5FEF66EA71E0C7010E940D0D982EDB
:102E80004FEF5FEF68EA71E0C7010E940D0DB82EA9
:102E900040E050E064EA71E0C7010E940D0DA82EE9
:102EA0004FEF5FEF69E871E0C7010E940D0D2FEF52
:102EB0002B0D2A3F08F098CE9C012150310920317A
:102EC0003E4008F091CE90926A02B0926B02A092BE
:102ED0006C0290936E0280936D024AE6E42E42E00B
:102EE000F42E50E1A52EB12CF70161917F01C501AF
:102EF0000E94EE18FFEFAF1ABF0A26E1A216B10436
:102F000099F70E945D0D8AE0E3E0F7E0DF011D9292
:102F10008A95E9F787E693E0A9C081E591E06ECE56
:102F200046E050E0B7018AEA91E00E94B319892B8C
:102F300009F09AC061EB71E0C7010E94C1195C0100
:102F40004FEF5FEF65E971E0C7010E940D0DD701FA
:102F500016962C912F3309F074C0A114B10409F412
:102F600070C0803208F06DC09C012F713327232B75
:102F700019F0B82FB0649B2E9092000710922C018C
:102F8000D501119690E08C91811119C090932C017C
:102F900064EB71E086EB97E00E947A0440910007B1
:102FA00050E060E070E02AE086EB97E00E948F043A
:102FB0006AE386EB97E00E947304B12C1CC0863252
:102FC00029F3E92F092E000CFF0BE254F94F108270
:102FD0009D012F5F3F4FD9012F5F3F4F8C91805351
:102FE0008A3038F440815AE0459F800D1124808357
:102FF000F2CF9F5FC8CFEB2CF12C80912C01082ED3
:10300000000C990BE816F9069CF460E286EB97E059
:103010000E947304F701E254F94F408150E060E0F0
:1030200070E02AE086EB97E00E948F04B394E3CF30
:103030006CE971E086EB97E00E947A048BEA94E0F9
:1030400015C08BE893E09F938F9388EC93E09F9358
:103050008F931F930F930E94640E0F900F900F9009
:103060000F900F900F90E7CD8FEC94E09F938F938C
:103070001F930F930E94640E0F900F900F900F906C
:10308000DACDE6EBF7E01382128288EE93E0A0E05F
:10309000B0E084839583A683B78387E391E091832F
:1030A000808385EC90E09587848784EC90E0978717
:1030B000868780EC90E0918B808B81EC90E0938B05
:1030C000828B82EC90E0958B848B86EC90E0978BE2
:1030D000868B118E128E138E148EE3E5F8E0138228
:1030E000128289E491E0918380830895FC0188270E
:1030F0009927E89421912032E9F3293010F02E30FD
:10310000C8F32B3241F02D3239F4689404C00E9488
:10311000AC18820F911D219120532A30C0F31EF468
:10312000909581959F4F0895FB01DC0102C00590A9
:103130000D9241505040D8F70895BB272A3051F4E2
:10314000992342F4BDE290958095709561957F4FEB
:103150008F4F9F4F0C94B5187AE0979F902D879FC3
:10316000802D910D11240895BB27FA01A62F621717
:10317000710581059105330B30FB66F0AA27660FB8
:10318000771F881F991FAA1FA21710F0A21B639513
:103190003850A9F7A05DAA3308F0A95DA19336F7CE
:1031A000B111B1931082CA010C94D618DC01FC0154
:1031B000672F71917723E1F7329704C07C916D936B
:1031C00070836291AE17BF07C8F30895F999FECFD7
:1031D00092BD81BDF89A992780B50895262FF99957
:1031E000FECF1FBA92BD81BD20BD0FB6F894FA9AEA
:1031F000F99A0FBE01960895991B79E004C0991FB2
:10320000961708F0961B881F7A95C9F78095089540
:10321000AA1BBB1B51E107C0AA1FBB1FA617B707FC
:1032200010F0A61BB70B881F991F5A95A9F7809518
:103230009095BC01CD01089597FB072E16F40094DC
:1032400007D077FD09D00E94081907FC05D03EF48D
:10325000909581959F4F0895709561957F4F089542
:10326000A1E21A2EAA1BBB1BFD010DC0AA1FBB1F8A
:10327000EE1FFF1FA217B307E407F50720F0A21BFC
:10328000B30BE40BF50B661F771F881F991F1A9469
:1032900069F760957095809590959B01AC01BD0193
:1032A000CF010895052E97FB1EF400940E94691922
:1032B00057FD07D00E94301907FC03D04EF40C9440
:1032C000691950954095309521953F4F4F4F5F4F6D
:1032D000089590958095709561957F4F8F4F9F4F82
:1032E00008950E948219A59F900DB49F900DA49FF0
:1032F000800D911D11240895EE0FFF1F0590F4918C
:10330000E02D0994A29FB001B39FC001A39F700D4F
:10331000811D1124911DB29F700D811D1124911DDD
:10332000089581E090E0F8940C94DB19FB01DC0136
:1033300004C08D910190801921F441505040C8F78C
:10334000881B990B0895FB01DC0102C001900D92CE
:1033500041505040D8F70895FB01DC0101900D92D7
:103360000020E1F70895FB01DC014150504030F0AE
:103370008D910190801919F40020B9F7881B990BE1
:103380000895FB0151915523A9F0BF01DC014D9136
:1033900045174111E1F759F4CD010190002049F0A2
:1033A0004D9140154111C9F3FB014111EFCF81E06F
:0A33B00090E001970895F894FFCF14
:1033BA00EA03EA0341726475696E6F2D454E433222
:1033CA00386A36302D30300000000000000000005E
:1033DA00000000007469692D30310A01FFFFFFFF08
:1033EA00FFFFFF000000004E03BB02E60295031731
:1033FA0003F5020903000000005D04BB026E046DC0
:10340A0004434845434B4544000A5B65746865724A
:10341A004E6F64655D004661696C656420746F2057
:10342A006163636573732045746865726E657420A1
:10343A00636F6E74726F6C6C6572004448435020FF
:10344A006661696C65640049503A20000D0A0047BC
:10345A004554202F630062006700474554202F73AC
:10346A0000623D0053656E6420746F200047455426
:0C347A00202F2000202D3E2061636B00FD
:00000001FF
