:100000000C9463000C948B000C948B000C944303B1
:100010000C9443030C9443030C948B000C948B00BE
:100020000C948B000C948B000C948B000C948B0024
:100030000C948B000C948B000C948B000C948B0014
:100040000C94A1020C948B000C9411030C94EB0201
:100050000C948B000C948B000C948B000C948B00F4
:100060000C948B000C948B0000000008000201002F
:100070000003040700000000000000000000000072
:10008000250028002B0000000000240027002A0083
:1000900000000000230026002900040404040404D6
:1000A0000404020202020202030303030303010227
:1000B00004081020408001020408102001020408F6
:1000C0001020BD03D50511241FBECFEFD8E0DEBF41
:1000D000CDBF11E0A0E0B1E0EEE3FCE002C005908E
:1000E0000D92A433B107D9F722E0A4E3B1E001C037
:1000F0001D92AD33B207E1F710E0C2E6D0E004C0D4
:100100002197FE010E940706C136D107C9F70E9458
:10011000A3040C9412060C940000CF92DF92EF928D
:10012000FF920F931F93CF93DF936C017A018B01A2
:10013000C0E0D0E0CE15DF0589F0D8016D918D01CA
:10014000D601ED91FC910190F081E02DC601099559
:10015000892B11F47E0102C02196ECCFC701DF91FB
:10016000CF911F910F91FF90EF90DF90CF90089566
:10017000FC01538D448D252F30E0842F90E0821BAD
:10018000930B541710F0CF96089501970895FC0132
:10019000918D828D981761F0828DDF01A80FB11DBE
:1001A0005D968C91928D9F5F9F73928F90E00895E2
:1001B0008FEF9FEF0895FC01918D828D981731F09C
:1001C000828DE80FF11D858D90E008958FEF9FEFF0
:1001D0000895FC01918D228D892F90E0805C9F4FC6
:1001E000821B91098F739927089581E891E00E94FD
:1001F000E90021E0892B09F420E0822F0895FC0119
:10020000848DDF01A80FB11DA35ABF4F2C91848D9F
:1002100090E001968F739927848FA689B7892C93D4
:10022000A089B1898C9180648C93938D848D98136F
:1002300006C00288F389E02D80818F7D8083089538
:10024000EF92FF920F931F93CF93DF93EC0181E026
:10025000888F9B8D8C8D981305C0E889F9898081E2
:1002600085FD24C0F62E0B8D10E00F5F1F4F0F731E
:100270001127E02E8C8DE8120CC00FB607FCFACFC8
:10028000E889F989808185FFF5CFCE010E94FF00C2
:10029000F1CF8B8DFE01E80FF11DE35AFF4FF08285
:1002A0000B8FEA89FB898081806207C0EE89FF8914
:1002B0006083E889F98980818064808381E090E0AF
:1002C000DF91CF911F910F91FF90EF900895CF9301
:1002D000DF93EC01888D8823C9F0EA89FB8980814E
:1002E00085FD05C0A889B9898C9186FD0FC00FB620
:1002F00007FCF5CF808185FFF2CFA889B9898C9161
:1003000085FFEDCFCE010E94FF00E7CFDF91CF91B7
:10031000089580E090E0892B29F00E94F50081117A
:100320000C940000089590E0FC01E859FF4F3491CF
:10033000FC01E255FF4F2491FC01E656FF4FE4918A
:10034000EE2309F43BC0332339F1333091F038F414
:100350003130A9F0323001F584B58F7D12C03730CD
:1003600091F03830A1F03430B9F4809180008F7D65
:1003700003C0809180008F77809380000DC084B58A
:100380008F7784BD09C08091B0008F7703C08091C2
:10039000B0008F7D8093B000F0E0EE0FFF1FE458B7
:1003A000FF4FA591B4918FB7F894EC91611103C000
:1003B00020952E2301C02E2B2C938FBF08952091C2
:1003C0007601309177012817390771F49091740103
:1003D00080917501981741F0E0917401F0E0EC5CB8
:1003E000FE4F808190E008958FEF9FEF089508956C
:1003F0001F93CF93DF93DC015C962D913C915D9729
:100400002115310539F481E090E013969C938E9389
:1004100012973DC05196ED91FC91529750969C9148
:100420005097892F80951FB75E964C915E9741FB40
:10043000772770F941FD6095F8944081772311F09A
:10044000492B01C048234083E9012197F1F748E097
:10045000508160FF02C0592B01C058235083E9012D
:100460002197F1F76695415099F7772321F0908114
:100470008923808303C08081982B90831FBF5C9663
:100480008D919C915D970197F1F721E030E0C901D2
:10049000DF91CF911F9108952091760130917701DE
:1004A0002817390771F4809175012091740190E04B
:1004B000805C9F4F821B910960E470E00E94DF0521
:1004C000089580E090E008952091760130917701C1
:1004D00028173907B9F49091740180917501981724
:1004E00089F0E0917401F0E0EC5CFE4F8081209196
:1004F000740130E02F5F3F4F2F7333272093740137
:1005000090E008958FEF9FEF0895E0917601F091CC
:100510007701E817F90769F4A389B4899C91858963
:10052000809589238C93109277011092760181E057
:10053000089580E00895089580E090E008950E9475
:100540000D061F920F920FB60F9211242F933F9317
:100550008F939F93AF93BF9380917D0190917E0184
:10056000A0917F01B091800130917C0123E0230FA5
:100570002D3720F40196A11DB11D05C026E8230FDB
:100580000296A11DB11D20937C0180937D01909363
:100590007E01A0937F01B0938001809178019091BA
:1005A0007901A0917A01B0917B010196A11DB11D45
:1005B0008093780190937901A0937A01B0937B01A5
:1005C000BF91AF919F918F913F912F910F900FBE4F
:1005D0000F901F9018951F920F920FB60F92112433
:1005E0002F933F934F935F936F937F938F939F933B
:1005F000AF93BF93EF93FF9381E891E00E94FF00D8
:10060000FF91EF91BF91AF919F918F917F916F91EA
:100610005F914F913F912F910F900FBE0F901F90C0
:1006200018951F920F920FB60F9211242F938F934C
:100630009F93EF93FF93E0919101F091920180815C
:10064000E0919701F091980182FD12C09081809114
:100650009A018F5F8F7320919B01821751F0E09177
:100660009A01F0E0EF57FE4F958F80939A0101C0F9
:100670008081FF91EF919F918F912F910F900FBEED
:100680000F901F9018951F920F920FB60F92112482
:100690002F933F934F935F936F937F938F939F938A
:1006A000AF93BF93EF93FF93E0917601F0917701C1
:1006B000309709F451C0968DA685B785858591FF41
:1006C00004C09C91892329F447C09C91892309F097
:1006D00043C0A389B4899C918589809589238C9393
:1006E000868997890197F1F7608D718DA685B78509
:1006F000558538E020E0CB010197F1F7822F90E09B
:1007000095958795282F4C91452309F02068315005
:1007100091F7868D81FD20958091750190E001967D
:100720008F73992730917401381749F0A0917501A2
:10073000B0E0AC5CBE4F2C938093750103C0868DF6
:100740008160868F828D938D0197F1F7A389B4899B
:100750009C918589892B8C93FF91EF91BF91AF91EB
:100760009F918F917F916F915F914F913F912F91C9
:100770000F900FBE0F901F9018950F931F93CF935C
:10078000DF93109284011092830188EE93E0A0E041
:10079000B0E08093850190938601A0938701B09388
:1007A000880124E031E0309382012093810125EC1F
:1007B00030E030938E0120938D0124EC30E03093B3
:1007C000900120938F0120EC30E030939201209330
:1007D000910121EC30E0309394012093930122ECBD
:1007E00030E0309396012093950126EC30E0309371
:1007F00098012093970110929A0110929B011092F8
:100800009C0110929D01109221021092200280936F
:10081000220290932302A0932402B093250286E142
:1008200091E090931F0280931E0210923502109265
:10083000340210923702109236021092390210924E
:10084000380210923B0210923A0260913C026E7F95
:100850006D7F60933C026695617081E068270E941D
:100860009301EFEAF0E02491EBE9F0E08491882332
:1008700099F090E0880F991FFC01EA57FF4FA5916E
:10088000B491FC01E458FF4F859194918FB7F8948F
:10089000EC91E22BEC938FBFEFEAF0E0E491E09370
:1008A0002E02EBE9F0E0E491F0E0EE0FFF1FE458D8
:1008B000FF4F859194919093300280932F020EEA1E
:1008C00010E0F8012491CAE9D0E0FE018491882368
:1008D000C9F090E0880F991FFC01EA57FF4FA591DE
:1008E000B49184589F4FFC01459154913FB7F894BF
:1008F0009C91822F809598239C93FA019081892363
:1009000080833FBF80913C0281FD04C061E080E0B4
:100910000E94930110922A02F801049100932B0285
:10092000FE01C491EC2FF0E0EE0FFF1FE057FF4FE8
:100930008591949190932D0280932C02DF91CF9119
:100940001F910F910895789484B5826084BD84B519
:10095000816084BD85B5826085BD85B5816085BDBA
:1009600080916E00816080936E0010928100809172
:1009700081008260809381008091810081608093FA
:100980008100809180008160809380008091B1001F
:1009900084608093B1008091B00081608093B0004A
:1009A00080917A00846080937A0080917A008260DE
:1009B00080937A0080917A00816080937A008091A0
:1009C0007A00806880937A001092C100E0919101D2
:1009D000F091920182E08083E0918D01F0918E018F
:1009E0001082E0918F01F09190018FEC8083109242
:1009F0009901E0919501F091960186E08083E09164
:100A00009301F0919401808180618083E091930152
:100A1000F0919401808188608083E0919301F0914E
:100A20009401808180688083E0919301F09194012A
:100A300080818F7D8083109239021092380210924B
:100A4000370210923602109235021092340285E677
:100A500090E090933B0280933A0290912A02963163
:100A600008F057C021E230E0309335022093340281
:100A700023E630E0309337022093360222E430E060
:100A8000309339022093380220916800983050F05A
:100A900031E09E3008F430E081E001C0880F3A95E3
:100AA000EAF701C084E0822B80936800983038F028
:100AB0009E3040F0963148F020E030E008C02DE64E
:100AC00030E005C02BE630E002C02CE630E0309389
:100AD000320220933102983030F481E001C0880F57
:100AE0009A95EAF70EC0292F30E09E3018F428506E
:100AF000310902C02E50310981E001C0880F2A95CA
:100B0000EAF78093330280913A0290913B02019779
:100B1000F1F78091380290913902892B21F180916F
:100B200076019091770122E08E319207E1F00097F3
:100B300011F00E94850280913C028E7F80933C02DE
:100B400010927501109274018EE192E090937701FA
:100B500080937601E0913102F09132029081809190
:100B60003302892B80834BE050E064E271E081E83E
:100B700091E00E948D0042E050E060E371E081E886
:100B800091E00E948D008EE192E00E944C02892B40
:100B900049F08EE192E00E946402682F81E891E0C2
:100BA0000E9420010E948901EECF86E191E090939E
:100BB0001F0280931E028EE192E00C94850297FB47
:100BC000072E16F4009407D077FD09D00E94F30594
:100BD00007FC05D03EF4909581959F4F0895709540
:100BE00061957F4F0895AA1BBB1B51E107C0AA1F47
:100BF000BB1FA617B70710F0A61BB70B881F991FBE
:100C00005A95A9F780959095BC01CD010895EE0FF6
:100C1000FF1F0590F491E02D099481E090E0F89495
:100C20000C94120610E0C2E6D0E004C0FE010E945F
:0E0C300007062196C336D107C9F7F894FFCF07
:100C3E000000000020018D00B8006701E900C70028
:100C4E00DB0000000000F8018D009C02F7014C0251
:100C5E006402DF01534C4156452052454144590030
:040C6E000D0A00006B
:00000001FF
