:100000000C9463000C948B000C948B000C94C6032E
:100010000C94C6030C94C6030C948B000C948B00B8
:100020000C948B000C948B000C948B000C948B0024
:100030000C948B000C948B000C948B000C948B0014
:100040000C947C030C948B000C944A030C942403B2
:100050000C948B000C948B000C948B000C948B00F4
:100060000C948B000C948B000000000024002700EF
:100070002A0000000008000201000003040700003D
:1000800000000000000000000000250028002B00F8
:1000900000000000230026002900040404040404D6
:1000A0000404020202020202030303030303010227
:1000B00004081020408001020408102001020408F6
:1000C000102040045B0611241FBECFEFD8E0DEBF36
:1000D000CDBF11E0A0E0B1E0EAE4FDE002C0059090
:1000E0000D92AA35B107D9F722E0AAE5B1E001C027
:1000F0001D92A336B207E1F710E0C2E6D0E004C0DB
:100100002197FE010E948D06C136D107C9F70E94D2
:10011000EB040C9498060C940000CF92DF92EF92BF
:10012000FF920F931F93CF93DF936C017A018B01A2
:10013000C0E0D0E0CE15DF0589F0D8016D918D01CA
:10014000D601ED91FC910190F081E02DC601099559
:10015000892B11F47E0102C02196ECCFC701DF91FB
:10016000CF911F910F91FF90EF90DF90CF90089566
:10017000FC01538D448D252F30E0842F90E0821BAD
:10018000930B541710F0CF96089501970895FC0132
:10019000918D828D981761F0828DDF01A80FB11DBE
:1001A0005D968C91928D9F5F9F73928F90E00895E2
:1001B0008FEF9FEF0895FC01918D828D981731F09C
:1001C000828DE80FF11D858D90E008958FEF9FEFF0
:1001D0000895FC01918D228D892F90E0805C9F4FC6
:1001E000821B91098F739927089587EA91E00E94F5
:1001F000E90021E0892B09F420E0822F0895FC0119
:10020000848DDF01A80FB11DA35ABF4F2C91848D9F
:1002100090E001968F739927848FA689B7892C93D4
:10022000A089B1898C9180648C93938D848D98136F
:1002300006C00288F389E02D80818F7D8083089538
:10024000EF92FF920F931F93CF93DF93EC0181E026
:10025000888F9B8D8C8D981305C0E889F9898081E2
:1002600085FD24C0F62E0B8D10E00F5F1F4F0F731E
:100270001127E02E8C8DE8120CC00FB607FCFACFC8
:10028000E889F989808185FFF5CFCE010E94FF00C2
:10029000F1CF8B8DFE01E80FF11DE35AFF4FF08285
:1002A0000B8FEA89FB898081806207C0EE89FF8914
:1002B0006083E889F98980818064808381E090E0AF
:1002C000DF91CF911F910F91FF90EF900895CF9301
:1002D000DF93EC01888D8823C9F0EA89FB8980814E
:1002E00085FD05C0A889B9898C9186FD0FC00FB620
:1002F00007FCF5CF808185FFF2CFA889B9898C9161
:1003000085FFEDCFCE010E94FF00E7CFDF91CF91B7
:10031000089580E090E0892B29F00E94F50081117A
:100320000C940000089590E0FC01EE58FF4F3491CA
:10033000FC01E255FF4F2491FC01E656FF4FE4918A
:10034000EE2309F43BC0332339F1333091F038F414
:100350003130A9F0323001F584B58F7D12C03730CD
:1003600091F03830A1F03430B9F4809180008F7D65
:1003700003C0809180008F77809380000DC084B58A
:100380008F7784BD09C08091B0008F7703C08091C2
:10039000B0008F7D8093B000F0E0EE0FFF1FEA57B2
:1003A000FF4FA591B4918FB7F894EC91611103C000
:1003B00020952E2301C02E2B2C938FBF0895CF9311
:1003C000DF9390E0FC01E255FF4F2491FC01E656DB
:1003D000FF4F8491882361F190E0880F991FFC0101
:1003E000E859FF4FC591D491FC01EA57FF4FA59101
:1003F000B491611109C09FB7F89488812095822338
:100400008883EC912E230BC0623061F49FB7F8947F
:100410003881822F809583238883EC912E2B2C9317
:100420009FBF06C08FB7F894E8812E2B28838FBF1B
:10043000DF91CF9108953FB7F89480919F019091FB
:10044000A001A091A101B091A20126B5A89B05C071
:100450002F3F19F00196A11DB11D3FBFBA2FA92F43
:10046000982F8827820F911DA11DB11DBC01CD01C0
:1004700042E0660F771F881F991F4A95D1F70895AC
:100480002091A5013091A6012817390771F49091A8
:10049000A3018091A401981741F0E091A301F0E03D
:1004A000E65AFE4F808190E008958FEF9FEF089508
:1004B00008951F93CF93DF93DC015C962D913C91BF
:1004C0005D972115310539F481E090E013969C93F6
:1004D0008E9312973DC05196ED91FC915297509694
:1004E0009C915097892F80951FB75E964C915E978F
:1004F00041FB772770F941FD6095F894408177239F
:1005000011F0492B01C048234083E9012197F1F7FD
:1005100048E0508160FF02C0592B01C0582350832E
:10052000E9012197F1F76695415099F7772321F07A
:1005300090818923808303C08081982B90831FBF83
:100540005C968D919C915D970197F1F721E030E0E9
:10055000C901DF91CF911F9108952091A50130919C
:10056000A6012817390771F48091A4012091A301F5
:1005700090E0805C9F4F821B910960E470E00E94D4
:100580006506089580E090E008952091A5013091DE
:10059000A60128173907B9F49091A3018091A4010D
:1005A000981789F0E091A301F0E0E65AFE4F8081B0
:1005B0002091A30130E02F5F3F4F2F73332720930B
:1005C000A30190E008958FEF9FEF0895E091A501BA
:1005D000F091A601E817F90769F4A389B4899C9101
:1005E0008589809589238C931092A6011092A5018C
:1005F00081E0089580E00895089580E090E00895F6
:10060000CF93DF93009779F0FC0101900020E9F788
:100610003197AF01481B590BBC0187EA91E00E945A
:100620008D00EC0102C0C0E0D0E042E050E064E2A6
:1006300071E087EA91E00E948D008C0F9D1FDF9191
:10064000CF9108950E9493061F920F920FB60F92BA
:1006500011242F933F934F935F936F937F938F93C7
:100660009F93AF93BF93EF93FF9387EA91E00E942C
:10067000FF00FF91EF91BF91AF919F918F917F917B
:100680006F915F914F913F912F910F900FBE0F90FF
:100690001F9018951F920F920FB60F9211242F934F
:1006A0008F939F93EF93FF93E091B701F091B8017F
:1006B0008081E091BD01F091BE0182FD12C0908168
:1006C0008091C0018F5F8F732091C101821751F01B
:1006D000E091C001F0E0E955FE4F958F8093C00195
:1006E00001C08081FF91EF919F918F912F910F9089
:1006F0000FBE0F901F9018951F920F920FB60F927A
:1007000011242F933F938F939F93AF93BF93809127
:100710009B0190919C01A0919D01B0919E0130910F
:100720009A0123E0230F2D3720F40196A11DB11D5E
:1007300005C026E8230F0296A11DB11D20939A0142
:1007400080939B0190939C01A0939D01B0939E0187
:1007500080919F019091A001A091A101B091A2016F
:100760000196A11DB11D80939F019093A001A093BC
:10077000A101B093A201BF91AF919F918F913F9141
:100780002F910F900FBE0F901F9018951F920F92F0
:100790000FB60F9211242F933F934F935F936F9354
:1007A0007F938F939F93AF93BF93EF93FF93E091CA
:1007B000A501F091A601309709F451C0968DA68548
:1007C000B785858591FF04C09C91892329F447C092
:1007D0009C91892309F043C0A389B4899C918589A0
:1007E000809589238C93868997890197F1F7608D8D
:1007F000718DA685B785558538E020E0CB0101973E
:10080000F1F7822F90E095958795282F4C914523FD
:1008100009F02068315091F7868D81FD20958091F7
:10082000A40190E001968F7399273091A3013817A6
:1008300049F0A091A401B0E0A65ABE4F2C9380933A
:10084000A40103C0868D8160868F828D938D019770
:10085000F1F7A389B4899C918589892B8C93FF91A9
:10086000EF91BF91AF919F918F917F916F915F9128
:100870004F913F912F910F900FBE0F901F901895A1
:100880001092AA011092A90188EE93E0A0E0B0E0D6
:100890008093AB019093AC01A093AD01B093AE01F6
:1008A00024E031E03093A8012093A70125EC30E04B
:1008B0003093B4012093B30124EC30E03093B601BF
:1008C0002093B50120EC30E03093B8012093B701BC
:1008D00021EC30E03093BA012093B90122EC30E0F2
:1008E0003093BC012093BB0126EC30E03093BE0175
:1008F0002093BD011092C0011092C1011092C2015B
:100900001092C3011092470210924602809348024F
:1009100090934902A0934A02B0934B0286E191E082
:10092000909345028093440210925B0210925A0207
:1009300010925D0210925C0210925F0210925E02B1
:100940001092610210926002609162026E7F6D7F70
:10095000609362026695617081E068278BE00E9477
:10096000930161E08BE00E94DF01E9EBF0E0E491AC
:10097000E0935402E5EAF0E0E491F0E0EE0FFF1FAF
:10098000EA57FF4F859194919093560280935502B8
:1009900060E08AE00E94DF018091620281FD04C074
:1009A00061E08AE00E9493018AE080935002E8EBC4
:1009B000F0E0E491E0935102E4EAF0E0E491F0E049
:1009C000EE0FFF1FE057FF4F8591949190935302D4
:1009D000809352020895789484B5826084BD84B572
:1009E000816084BD85B5826085BD85B5816085BD2A
:1009F00080916E00816080936E00109281008091E2
:100A00008100826080938100809181008160809369
:100A10008100809180008160809380008091B1008E
:100A200084608093B1008091B00081608093B000B9
:100A300080917A00846080937A0080917A0082604D
:100A400080937A0080917A00816080937A0080910F
:100A50007A00806880937A001092C10061E088E09B
:100A60000E94DF0161E089E00E94DF0161E089E02E
:100A70000E9493010E941B024B015C0184EFC82E6F
:100A8000DD24D394E12CF12C0E941B02DC01CB016C
:100A900088199909AA09BB09883E9340A105B105A7
:100AA00058F021E0C21AD108E108F10888EE880E5A
:100AB00083E0981EA11CB11CC114D104E104F1040F
:100AC00019F7E091B701F091B80182E08083E091DD
:100AD000B301F091B4011082E091B501F091B6013B
:100AE0008FEC80831092BF01E091BB01F091BC01BB
:100AF00086E08083E091B901F091BA018081806144
:100B00008083E091B901F091BA018081886080838F
:100B1000E091B901F091BA01808180688083E09111
:100B2000B901F091BA0180818F7D808387E291E0E5
:100B30000E94000361E088E00E94930182E491E05A
:100B40000E94000310925F0210925E0210925D02FA
:100B500010925C0210925B0210925A0282E490E0C2
:100B6000909361028093600290915002963108F058
:100B700057C02FE030E030935B0220935A0220E40C
:100B800030E030935D0220935C0227E230E0309346
:100B90005F0220935E0220916800983050F031E0AF
:100BA0009E3008F430E081E001C0880F3A95EAF702
:100BB00001C084E0822B80936800983038F09E302A
:100BC00040F0963148F020E030E008C02DE630E0FB
:100BD00005C02BE630E002C02CE630E0309358022E
:100BE00020935702983030F481E001C0880F9A9525
:100BF000EAF70EC0292F30E09E3018F42850310952
:100C000002C02E50310981E001C0880F2A95EAF711
:100C10008093590280916002909161020197F1F7EF
:100C200080915E0290915F02892B21F18091A50154
:100C30009091A60122E084349207E1F0009711F030
:100C40000E94E602809162028E7F8093620210927F
:100C5000A4011092A30184E492E09093A6018093F2
:100C6000A501E0915702F0915802908180915902BC
:100C7000892B808384E492E00E94AD02892B49F0A5
:100C800084E492E00E94C502682F87EA91E00E9406
:100C9000200187EA91E00E94E900892B49F087EA68
:100CA00091E00E94C700682F84E492E00E945902FC
:100CB0000E948901DFCF86E191E090934502809305
:100CC000440284E492E00C94E60297FB072E16F4AB
:100CD000009407D077FD09D00E94790607FC05D063
:100CE0003EF4909581959F4F0895709561957F4F43
:100CF0000895AA1BBB1B51E107C0AA1FBB1FA61763
:100D0000B70710F0A61BB70B881F991F5A95A9F7B4
:100D100080959095BC01CD010895EE0FFF1F0590C1
:100D2000F491E02D099481E090E0F8940C949806F9
:100D300010E0C2E6D0E004C0FE010E948D062196BC
:0A0D4000C336D107C9F7F894FFCFBE
:100D4A000000000020018D00B8006701E900C7001B
:100D5A00DB000000000059028D00FD025802AD02BE
:100D6A00C50240020D0A004C6576616E74616E64BC
:100D7A006F20656C206D6F64756C6F2048432D3051
:100D8A0036004573706572616E646F20636F6D61C2
:0A0D9A006E646F732041543A0000AC
:00000001FF
