:100000000C9461000C9473000C9473000C947300B6
:100010000C9473000C9473000C9473000C94730094
:100020000C9473000C9473000C9473000C94730084
:100030000C9473000C9473000C9473000C94730074
:100040000C9475000C94BF000C9473000C94730016
:100050000C9473000C9473000C9473000C94730054
:100060000C9473000C94730000000000250028001D
:100070002B0000000000240027002A0000000000E0
:1000800023002600290004040404040404040202DA
:100090000202020203030303030301020408102007
:1000A0004080010204081020010204081020000012
:1000B0000008000201000003040700000000000027
:1000C000000011241FBECFEFD8E0DEBFCDBF21E07E
:1000D000A0E0B1E001C01D92AA30B207E1F70E9492
:1000E000DE000C9494010C9400001F920F920FB646
:1000F0000F9211242F933F938F939F93AF93BF93AE
:100100008091060190910701A0910801B091090129
:100110003091050123E0230F2D3720F40196A11D16
:10012000B11D05C026E8230F0296A11DB11D209325
:1001300005018093060190930701A0930801B093F5
:1001400009018091010190910201A0910301B091F8
:1001500004010196A11DB11D80930101909302013C
:10016000A0930301B0930401BF91AF919F918F9130
:100170003F912F910F900FBE0F901F9018951F92D7
:100180000F920FB60F9211248F939F938EB590917B
:100190000001913641F0933741F0911108C08093EE
:1001A00000011EBC04C0815F01C088508EBD9F91BC
:1001B0008F910F900FBE0F901F901895789484B573
:1001C000826084BD84B5816084BD85B5826085BD53
:1001D00085B5816085BD80916E00816080936E00E1
:1001E00010928100809181008260809381008091D3
:1001F0008100816080938100809180008160809384
:1002000080008091B10084608093B1008091B00043
:1002100081608093B00080917A00846080937A003E
:1002200080917A00826080937A0080917A00816068
:1002300080937A0080917A00806880937A0010928F
:10024000C100E6EAF0E02491E2E9F0E0849188233D
:1002500099F090E0880F991FFC01EE58FF4FA5918F
:10026000B491FC01E859FF4F859194918FB7F894B0
:10027000EC91E22BEC938FBF8CB580648CBD8CB578
:1002800080688CBDC8EBD0E004EA10E040E9E42EC1
:1002900040E0F42E50E0C52E50E0D52EFE019491A2
:1002A000F8012491F70184918823A1F1992339F170
:1002B000933091F038F49130A9F0923001F594B573
:1002C0009F7D12C0973091F09830A1F09430B9F42E
:1002D000909180009F7D03C0909180009F779093C4
:1002E00080000DC094B59F7794BD09C09091B00077
:1002F0009F7703C09091B0009F7D9093B00090E0F5
:10030000880F991F84589F4FFC01A591B4918C913F
:10031000282339F4C114D10409F4C0CF0E9400008D
:0C032000BDCF10920001F6CFF894FFCF83
:00000001FF
