:100000000C9463000C948B000C948B000C944303B1
:100010000C9443030C9443030C948B000C948B00BE
:100020000C948B000C948B000C948B000C948B0024
:100030000C948B000C948B000C948B000C948B0014
:100040000C94A1020C948B000C9411030C94EB0201
:100050000C948B000C948B000C948B000C948B00F4
:100060000C948B000C948B0000000008000201002F
:100070000003040700000000000000000000000072
:10008000250028002B0000000000240027002A0083
:1000900000000000230026002900040404040404D6
:1000A0000404020202020202030303030303010227
:1000B00004081020408001020408102001020408F6
:1000C0001020BD03EE0511241FBECFEFD8E0DEBF28
:1000D000CDBF11E0A0E0B1E0E0E7FCE002C0059098
:1000E0000D92A234B107D9F722E0A2E4B1E001C039
:1000F0001D92AB34B207E1F710E0C2E6D0E004C0D5
:100100002197FE010E942006C136D107C9F70E943F
:10011000A3040C942B060C940000CF92DF92EF9274
:10012000FF920F931F93CF93DF936C017A018B01A2
:10013000C0E0D0E0CE15DF0589F0D8016D918D01CA
:10014000D601ED91FC910190F081E02DC601099559
:10015000892B11F47E0102C02196ECCFC701DF91FB
:10016000CF911F910F91FF90EF90DF90CF90089566
:10017000FC01538D448D252F30E0842F90E0821BAD
:10018000930B541710F0CF96089501970895FC0132
:10019000918D828D981761F0828DDF01A80FB11DBE
:1001A0005D968C91928D9F5F9F73928F90E00895E2
:1001B0008FEF9FEF0895FC01918D828D981731F09C
:1001C000828DE80FF11D858D90E008958FEF9FEFF0
:1001D0000895FC01918D228D892F90E0805C9F4FC6
:1001E000821B91098F73992708958FE891E00E94EF
:1001F000E90021E0892B09F420E0822F0895FC0119
:10020000848DDF01A80FB11DA35ABF4F2C91848D9F
:1002100090E001968F739927848FA689B7892C93D4
:10022000A089B1898C9180648C93938D848D98136F
:1002300006C00288F389E02D80818F7D8083089538
:10024000EF92FF920F931F93CF93DF93EC0181E026
:10025000888F9B8D8C8D981305C0E889F9898081E2
:1002600085FD24C0F62E0B8D10E00F5F1F4F0F731E
:100270001127E02E8C8DE8120CC00FB607FCFACFC8
:10028000E889F989808185FFF5CFCE010E94FF00C2
:10029000F1CF8B8DFE01E80FF11DE35AFF4FF08285
:1002A0000B8FEA89FB898081806207C0EE89FF8914
:1002B0006083E889F98980818064808381E090E0AF
:1002C000DF91CF911F910F91FF90EF900895CF9301
:1002D000DF93EC01888D8823C9F0EA89FB8980814E
:1002E00085FD05C0A889B9898C9186FD0FC00FB620
:1002F00007FCF5CF808185FFF2CFA889B9898C9161
:1003000085FFEDCFCE010E94FF00E7CFDF91CF91B7
:10031000089580E090E0892B29F00E94F50081117A
:100320000C940000089590E0FC01E859FF4F3491CF
:10033000FC01E255FF4F2491FC01E656FF4FE4918A
:10034000EE2309F43BC0332339F1333091F038F414
:100350003130A9F0323001F584B58F7D12C03730CD
:1003600091F03830A1F03430B9F4809180008F7D65
:1003700003C0809180008F77809380000DC084B58A
:100380008F7784BD09C08091B0008F7703C08091C2
:10039000B0008F7D8093B000F0E0EE0FFF1FE458B7
:1003A000FF4FA591B4918FB7F894EC91611103C000
:1003B00020952E2301C02E2B2C938FBF08952091C2
:1003C0008401309185012817390771F490918201D9
:1003D00080918301981741F0E0918201F0E0EE5B9B
:1003E000FE4F808190E008958FEF9FEF089508956C
:1003F0001F93CF93DF93DC015C962D913C915D9729
:100400002115310539F481E090E013969C938E9389
:1004100012973DC05196ED91FC91529750969C9148
:100420005097892F80951FB75E964C915E9741FB40
:10043000772770F941FD6095F8944081772311F09A
:10044000492B01C048234083E9012197F1F748E097
:10045000508160FF02C0592B01C058235083E9012D
:100460002197F1F76695415099F7772321F0908114
:100470008923808303C08081982B90831FBF5C9663
:100480008D919C915D970197F1F721E030E0C901D2
:10049000DF91CF911F9108952091840130918501C2
:1004A0002817390771F4809183012091820190E02F
:1004B000805C9F4F821B910960E470E00E94F80508
:1004C000089580E090E008952091840130918501A5
:1004D00028173907B9F49091820180918301981708
:1004E00089F0E0918201F0E0EE5BFE4F8081209187
:1004F000820130E02F5F3F4F2F733327209382011B
:1005000090E008958FEF9FEF0895E0918401F091BE
:100510008501E817F90769F4A389B4899C91858955
:10052000809589238C93109285011092840181E03B
:10053000089580E00895089580E090E008950E9475
:1005400026061F920F920FB60F9211242F933F93FE
:100550008F939F93AF93BF9380918B0190918C0168
:10056000A0918D01B0918E0130918A0123E0230F7B
:100570002D3720F40196A11DB11D05C026E8230FDB
:100580000296A11DB11D20938A0180938B01909347
:100590008C01A0938D01B0938E0180918601909182
:1005A0008701A0918801B09189010196A11DB11D1B
:1005B0008093860190938701A0938801B09389016D
:1005C000BF91AF919F918F913F912F910F900FBE4F
:1005D0000F901F9018951F920F920FB60F92112433
:1005E0002F933F934F935F936F937F938F939F933B
:1005F000AF93BF93EF93FF938FE891E00E94FF00CA
:10060000FF91EF91BF91AF919F918F917F916F91EA
:100610005F914F913F912F910F900FBE0F901F90C0
:1006200018951F920F920FB60F9211242F938F934C
:100630009F93EF93FF93E0919F01F091A001808140
:10064000E091A501F091A60182FD12C090818091F8
:10065000A8018F5F8F732091A901821751F0E0915B
:10066000A801F0E0E157FE4F958F8093A80101C0EB
:100670008081FF91EF919F918F912F910F900FBEED
:100680000F901F9018951F920F920FB60F92112482
:100690002F933F934F935F936F937F938F939F938A
:1006A000AF93BF93EF93FF93E0918401F0918501A5
:1006B000309709F451C0968DA685B785858591FF41
:1006C00004C09C91892329F447C09C91892309F097
:1006D00043C0A389B4899C918589809589238C9393
:1006E000868997890197F1F7608D718DA685B78509
:1006F000558538E020E0CB010197F1F7822F90E09B
:1007000095958795282F4C91452309F02068315005
:1007100091F7868D81FD20958091830190E001966F
:100720008F73992730918201381749F0A091830186
:10073000B0E0AE5BBE4F2C938093830103C0868DE7
:100740008160868F828D938D0197F1F7A389B4899B
:100750009C918589892B8C93FF91EF91BF91AF91EB
:100760009F918F917F916F915F914F913F912F91C9
:100770000F900FBE0F901F9018950F931F93CF935C
:10078000DF93109292011092910188EE93E0A0E025
:10079000B0E08093930190939401A0939501B0935E
:1007A000960125E031E03093900120938F0125ECF4
:1007B00030E030939C0120939B0124EC30E0309397
:1007C0009E0120939D0120EC30E03093A001209306
:1007D0009F0121EC30E03093A2012093A10122EC93
:1007E00030E03093A4012093A30126EC30E0309355
:1007F000A6012093A5011092A8011092A9011092C0
:10080000AA011092AB0110922F0210922E02809337
:10081000300290933102A0933202B093330287E109
:1008200091E090932D0280932C021092430210923B
:100830004202109245021092440210924702109216
:100840004602109249021092480260914A026E7F5D
:100850006D7F60934A026695617081E068270E940F
:100860009301EFEAF0E02491EBE9F0E08491882332
:1008700099F090E0880F991FFC01EA57FF4FA5916E
:10088000B491FC01E458FF4F859194918FB7F8948F
:10089000EC91E22BEC938FBFEFEAF0E0E491E09370
:1008A0003C02EBE9F0E0E491F0E0EE0FFF1FE458CA
:1008B000FF4F8591949190933E0280933D020EEA02
:1008C00010E0F8012491CAE9D0E0FE018491882368
:1008D000C9F090E0880F991FFC01EA57FF4FA591DE
:1008E000B49184589F4FFC01459154913FB7F894BF
:1008F0009C91822F809598239C93FA019081892363
:1009000080833FBF80914A0281FD04C061E080E0A6
:100910000E94930110923802F80104910093390269
:10092000FE01C491EC2FF0E0EE0FFF1FE057FF4FE8
:100930008591949190933B0280933A02DF91CF91FD
:100940001F910F910895789484B5826084BD84B519
:10095000816084BD85B5826085BD85B5816085BDBA
:1009600080916E00816080936E0010928100809172
:1009700081008260809381008091810081608093FA
:100980008100809180008160809380008091B1001F
:1009900084608093B1008091B00081608093B0004A
:1009A00080917A00846080937A0080917A008260DE
:1009B00080937A0080917A00816080937A008091A0
:1009C0007A00806880937A001092C100E0919F01C4
:1009D000F091A00182E08083E0919B01F0919C0165
:1009E0001082E0919D01F0919E018FEC8083109226
:1009F000A701E091A301F091A40186E08083E0913A
:100A0000A101F091A201808180618083E091A10128
:100A1000F091A201808188608083E091A101F09132
:100A2000A201808180688083E091A101F091A20100
:100A300080818F7D8083109247021092460210922F
:100A4000450210924402109243021092420285E63F
:100A500090E0909349028093480290913802963139
:100A600008F057C021E230E0309343022093420265
:100A700023E630E0309345022093440222E430E044
:100A8000309347022093460220916800983050F03E
:100A900031E09E3008F430E081E001C0880F3A95E3
:100AA000EAF701C084E0822B80936800983038F028
:100AB0009E3040F0963148F020E030E008C02DE64E
:100AC00030E005C02BE630E002C02CE630E0309389
:100AD000400220933F02983030F481E001C0880F3B
:100AE0009A95EAF70EC0292F30E09E3018F428506E
:100AF000310902C02E50310981E001C0880F2A95CA
:100B0000EAF780934102809148029091490201974F
:100B1000F1F78091460290914702892B21F1809153
:100B200084019091850122E08C329207E1F00097D8
:100B300011F00E94850280914A028E7F80934A02C2
:100B400010928301109282018CE292E090938501D1
:100B500080938401E0913F02F09140029081809166
:100B60004102892B808349E150E065E271E08FE822
:100B700091E00E948D0042E050E06FE371E08FE869
:100B800091E00E948D008CE292E00E944C02892B41
:100B900059F08CE292E00E94640280930001682F79
:100BA0008FE891E00E9420018FE891E00E94E90027
:100BB000892B89F08FE891E00E94C700C82F8093AD
:100BC0000001682F8FE891E00E9420016C2F8CE2D9
:100BD00092E00E94F8010E948901D5CF87E191E05F
:100BE00090932D0280932C028CE292E00C9485026B
:100BF00097FB072E16F4009407D077FD09D00E94CA
:100C00000C0607FC05D03EF4909581959F4F089502
:100C1000709561957F4F0895AA1BBB1B51E107C0DA
:100C2000AA1FBB1FA617B70710F0A61BB70B881F7C
:100C3000991F5A95A9F780959095BC01CD0108950B
:100C4000EE0FFF1F0590F491E02D099481E090E0F4
:100C5000F8940C942B0610E0C2E6D0E004C0FE012C
:100C60000E9420062196C336D107C9F7F894FFCF1A
:100C7000200000000020018D00B8006701E900C7D6
:100C800000DB0000000000F8018D009C02F7014C21
:100C9000026402DF01425473657269616C207374EF
:100CA0006172746564206174203338343030000D13
:020CB0000A0038
:00000001FF
