:100000000C9463000C948B000C948B000C944303B1
:100010000C9443030C9443030C948B000C948B00BE
:100020000C948B000C948B000C948B000C948B0024
:100030000C948B000C948B000C948B000C948B0014
:100040000C94A1020C948B000C9411030C94EB0201
:100050000C948B000C948B000C948B000C948B00F4
:100060000C948B000C948B0000000008000201002F
:100070000003040700000000000000000000000072
:10008000250028002B0000000000240027002A0083
:1000900000000000230026002900040404040404D6
:1000A0000404020202020202030303030303010227
:1000B00004081020408001020408102001020408F6
:1000C0001020BD03ED0511241FBECFEFD8E0DEBF29
:1000D000CDBF11E0A0E0B1E0EEE6FCE002C005908B
:1000E0000D92A233B107D9F722E0A2E3B1E001C03B
:1000F0001D92AB33B207E1F710E0C2E6D0E004C0D6
:100100002197FE010E941F06C136D107C9F70E9440
:10011000A3040C942A060C940000CF92DF92EF9275
:10012000FF920F931F93CF93DF936C017A018B01A2
:10013000C0E0D0E0CE15DF0589F0D8016D918D01CA
:10014000D601ED91FC910190F081E02DC601099559
:10015000892B11F47E0102C02196ECCFC701DF91FB
:10016000CF911F910F91FF90EF90DF90CF90089566
:10017000FC01538D448D252F30E0842F90E0821BAD
:10018000930B541710F0CF96089501970895FC0132
:10019000918D828D981761F0828DDF01A80FB11DBE
:1001A0005D968C91928D9F5F9F73928F90E00895E2
:1001B0008FEF9FEF0895FC01918D828D981731F09C
:1001C000828DE80FF11D858D90E008958FEF9FEFF0
:1001D0000895FC01918D228D892F90E0805C9F4FC6
:1001E000821B91098F73992708958FE791E00E94F0
:1001F000E90021E0892B09F420E0822F0895FC0119
:10020000848DDF01A80FB11DA35ABF4F2C91848D9F
:1002100090E001968F739927848FA689B7892C93D4
:10022000A089B1898C9180648C93938D848D98136F
:1002300006C00288F389E02D80818F7D8083089538
:10024000EF92FF920F931F93CF93DF93EC0181E026
:10025000888F9B8D8C8D981305C0E889F9898081E2
:1002600085FD24C0F62E0B8D10E00F5F1F4F0F731E
:100270001127E02E8C8DE8120CC00FB607FCFACFC8
:10028000E889F989808185FFF5CFCE010E94FF00C2
:10029000F1CF8B8DFE01E80FF11DE35AFF4FF08285
:1002A0000B8FEA89FB898081806207C0EE89FF8914
:1002B0006083E889F98980818064808381E090E0AF
:1002C000DF91CF911F910F91FF90EF900895CF9301
:1002D000DF93EC01888D8823C9F0EA89FB8980814E
:1002E00085FD05C0A889B9898C9186FD0FC00FB620
:1002F00007FCF5CF808185FFF2CFA889B9898C9161
:1003000085FFEDCFCE010E94FF00E7CFDF91CF91B7
:10031000089580E090E0892B29F00E94F50081117A
:100320000C940000089590E0FC01E859FF4F3491CF
:10033000FC01E255FF4F2491FC01E656FF4FE4918A
:10034000EE2309F43BC0332339F1333091F038F414
:100350003130A9F0323001F584B58F7D12C03730CD
:1003600091F03830A1F03430B9F4809180008F7D65
:1003700003C0809180008F77809380000DC084B58A
:100380008F7784BD09C08091B0008F7703C08091C2
:10039000B0008F7D8093B000F0E0EE0FFF1FE458B7
:1003A000FF4FA591B4918FB7F894EC91611103C000
:1003B00020952E2301C02E2B2C938FBF08952091C2
:1003C0007401309175012817390771F49091720109
:1003D00080917301981741F0E0917201F0E0EE5CBA
:1003E000FE4F808190E008958FEF9FEF089508956C
:1003F0001F93CF93DF93DC015C962D913C915D9729
:100400002115310539F481E090E013969C938E9389
:1004100012973DC05196ED91FC91529750969C9148
:100420005097892F80951FB75E964C915E9741FB40
:10043000772770F941FD6095F8944081772311F09A
:10044000492B01C048234083E9012197F1F748E097
:10045000508160FF02C0592B01C058235083E9012D
:100460002197F1F76695415099F7772321F0908114
:100470008923808303C08081982B90831FBF5C9663
:100480008D919C915D970197F1F721E030E0C901D2
:10049000DF91CF911F9108952091740130917501E2
:1004A0002817390771F4809173012091720190E04F
:1004B000805C9F4F821B910960E470E00E94F70509
:1004C000089580E090E008952091740130917501C5
:1004D00028173907B9F49091720180917301981728
:1004E00089F0E0917201F0E0EE5CFE4F8081209196
:1004F000720130E02F5F3F4F2F733327209372013B
:1005000090E008958FEF9FEF0895E0917401F091CE
:100510007501E817F90769F4A389B4899C91858965
:10052000809589238C93109275011092740181E05B
:10053000089580E00895089580E090E008950E9475
:1005400025061F920F920FB60F9211242F933F93FF
:100550008F939F93AF93BF9380917B0190917C0188
:10056000A0917D01B0917E0130917A0123E0230FAB
:100570002D3720F40196A11DB11D05C026E8230FDB
:100580000296A11DB11D20937A0180937B01909367
:100590007C01A0937D01B0937E01809176019091C2
:1005A0007701A0917801B09179010196A11DB11D4B
:1005B0008093760190937701A0937801B0937901AD
:1005C000BF91AF919F918F913F912F910F900FBE4F
:1005D0000F901F9018951F920F920FB60F92112433
:1005E0002F933F934F935F936F937F938F939F933B
:1005F000AF93BF93EF93FF938FE791E00E94FF00CB
:10060000FF91EF91BF91AF919F918F917F916F91EA
:100610005F914F913F912F910F900FBE0F901F90C0
:1006200018951F920F920FB60F9211242F938F934C
:100630009F93EF93FF93E0918F01F0919001808160
:10064000E0919501F091960182FD12C09081809118
:1006500098018F5F8F7320919901821751F0E0917B
:100660009801F0E0E158FE4F958F8093980101C00A
:100670008081FF91EF919F918F912F910F900FBEED
:100680000F901F9018951F920F920FB60F92112482
:100690002F933F934F935F936F937F938F939F938A
:1006A000AF93BF93EF93FF93E0917401F0917501C5
:1006B000309709F451C0968DA685B785858591FF41
:1006C00004C09C91892329F447C09C91892309F097
:1006D00043C0A389B4899C918589809589238C9393
:1006E000868997890197F1F7608D718DA685B78509
:1006F000558538E020E0CB010197F1F7822F90E09B
:1007000095958795282F4C91452309F02068315005
:1007100091F7868D81FD20958091730190E001967F
:100720008F73992730917201381749F0A0917301A6
:10073000B0E0AE5CBE4F2C938093730103C0868DF6
:100740008160868F828D938D0197F1F7A389B4899B
:100750009C918589892B8C93FF91EF91BF91AF91EB
:100760009F918F917F916F915F914F913F912F91C9
:100770000F900FBE0F901F9018950F931F93CF935C
:10078000DF93109282011092810188EE93E0A0E045
:10079000B0E08093830190938401A0938501B0938E
:1007A000860125E031E03093800120937F0125EC24
:1007B00030E030938C0120938B0124EC30E03093B7
:1007C0008E0120938D0120EC30E030939001209336
:1007D0008F0121EC30E0309392012093910122ECC3
:1007E00030E0309394012093930126EC30E0309375
:1007F0009601209395011092980110929901109200
:100800009A0110929B0110921F0210921E02809377
:10081000200290932102A0932202B093230287E149
:1008200091E090931D0280931C021092330210926B
:100830003202109235021092340210923702109256
:100840003602109239021092380260913A026E7F9D
:100850006D7F60933A026695617081E068270E941F
:100860009301EFEAF0E02491EBE9F0E08491882332
:1008700099F090E0880F991FFC01EA57FF4FA5916E
:10088000B491FC01E458FF4F859194918FB7F8948F
:10089000EC91E22BEC938FBFEFEAF0E0E491E09370
:1008A0002C02EBE9F0E0E491F0E0EE0FFF1FE458DA
:1008B000FF4F8591949190932E0280932D020EEA22
:1008C00010E0F8012491CAE9D0E0FE018491882368
:1008D000C9F090E0880F991FFC01EA57FF4FA591DE
:1008E000B49184589F4FFC01459154913FB7F894BF
:1008F0009C91822F809598239C93FA019081892363
:1009000080833FBF80913A0281FD04C061E080E0B6
:100910000E94930110922802F80104910093290289
:10092000FE01C491EC2FF0E0EE0FFF1FE057FF4FE8
:100930008591949190932B0280932A02DF91CF911D
:100940001F910F910895789484B5826084BD84B519
:10095000816084BD85B5826085BD85B5816085BDBA
:1009600080916E00816080936E0010928100809172
:1009700081008260809381008091810081608093FA
:100980008100809180008160809380008091B1001F
:1009900084608093B1008091B00081608093B0004A
:1009A00080917A00846080937A0080917A008260DE
:1009B00080937A0080917A00816080937A008091A0
:1009C0007A00806880937A001092C100E0918F01D4
:1009D000F091900182E08083E0918B01F0918C0195
:1009E0001082E0918D01F0918E018FEC8083109246
:1009F0009701E0919301F091940186E08083E0916A
:100A00009101F0919201808180618083E091910158
:100A1000F0919201808188608083E0919101F09152
:100A20009201808180688083E0919101F091920130
:100A300080818F7D808349E050E065E271E08FE73F
:100A400091E00E948D0042E050E06FE271E08FE79C
:100A500091E00E948D00109237021092360210929F
:100A6000350210923402109233021092320285E65F
:100A700090E0909339028093380290912802963149
:100A800008F057C021E230E0309333022093320265
:100A900023E630E0309335022093340222E430E044
:100AA000309337022093360220916800983050F03E
:100AB00031E09E3008F430E081E001C0880F3A95C3
:100AC000EAF701C084E0822B80936800983038F008
:100AD0009E3040F0963148F020E030E008C02DE62E
:100AE00030E005C02BE630E002C02CE630E0309369
:100AF000300220932F02983030F481E001C0880F3B
:100B00009A95EAF70EC0292F30E09E3018F428504D
:100B1000310902C02E50310981E001C0880F2A95A9
:100B2000EAF780933102809138029091390201975F
:100B3000F1F78091360290913702892B21F1809153
:100B400074019091750122E08C319207E1F00097D9
:100B500011F00E94850280913A028E7F80933A02C2
:100B600010927301109272018CE192E090937501E2
:100B700080937401E0912F02F09130029081809176
:100B80003102892B80836DE08CE192E00E94F801B4
:100B90008CE192E00E944C02892B59F08CE192E0AA
:100BA0000E94640280930001682F8FE791E00E9409
:100BB00020018FE791E00E94E900892B59F08FE72F
:100BC00091E00E94C70080930001682F8CE192E0C1
:100BD0000E94F8010E948901DBCF87E191E09093A8
:100BE0001D0280931C028CE192E00C94850297FB1D
:100BF000072E16F4009407D077FD09D00E940B064B
:100C000007FC05D03EF4909581959F4F089570950F
:100C100061957F4F0895AA1BBB1B51E107C0AA1F16
:100C2000BB1FA617B70710F0A61BB70B881F991F8D
:100C30005A95A9F780959095BC01CD010895EE0FC6
:100C4000FF1F0590F491E02D099481E090E0F89465
:100C50000C942A0610E0C2E6D0E004C0FE010E9417
:0E0C60001F062196C336D107C9F7F894FFCFBF
:100C6E00200000000020018D00B8006701E900C7D8
:100C7E0000DB0000000000F8018D009C02F7014C23
:100C8E00026402DF014D4153544552204F4B000D7B
:020C9E000A004A
:107E0000112484B714BE81FFF0D085E080938100F7
:107E100082E08093C00088E18093C10086E0809377
:107E2000C20080E18093C4008EE0C9D0259A86E02C
:107E300020E33CEF91E0309385002093840096BBD3
:107E4000B09BFECF1D9AA8958150A9F7CC24DD24C4
:107E500088248394B5E0AB2EA1E19A2EF3E0BF2EE7
:107E6000A2D0813461F49FD0082FAFD0023811F036
:107E7000013811F484E001C083E08DD089C08234E0
:107E800011F484E103C0853419F485E0A6D080C0E4
:107E9000853579F488D0E82EFF2485D0082F10E0AE
:107EA000102F00270E291F29000F111F8ED06801E7
:107EB0006FC0863521F484E090D080E0DECF843638
:107EC00009F040C070D06FD0082F6DD080E0C81688
:107ED00080E7D80618F4F601B7BEE895C0E0D1E017
:107EE00062D089930C17E1F7F0E0CF16F0E7DF06D8
:107EF00018F0F601B7BEE89568D007B600FCFDCFD4
:107F0000A601A0E0B1E02C9130E011968C91119780
:107F100090E0982F8827822B932B1296FA010C0160
:107F200087BEE89511244E5F5F4FF1E0A038BF0790
:107F300051F7F601A7BEE89507B600FCFDCF97BE46
:107F4000E89526C08437B1F42ED02DD0F82E2BD052
:107F50003CD0F601EF2C8F010F5F1F4F84911BD097
:107F6000EA94F801C1F70894C11CD11CFA94CF0C13
:107F7000D11C0EC0853739F428D08EE10CD085E9AC
:107F80000AD08FE07ACF813511F488E018D01DD067
:107F900080E101D065CF982F8091C00085FFFCCF94
:107FA0009093C60008958091C00087FFFCCF809118
:107FB000C00084FD01C0A8958091C6000895E0E648
:107FC000F0E098E1908380830895EDDF803219F02E
:107FD00088E0F5DFFFCF84E1DECF1F93182FE3DFCA
:107FE0001150E9F7F2DF1F91089580E0E8DFEE27F6
:047FF000FF270994CA
:027FFE00040479
:0400000300007E007B
:00000001FF
