:100000000C9435000C945D000C945D000C945D0024
:100010000C945D000C945D000C945D000C945D00EC
:100020000C945D000C945D000C945D000C945D00DC
:100030000C945D000C945D000C945D000C945D00CC
:100040000C94BE010C945D000C942E020C940802DA
:100050000C945D000C945D000C945D000C945D00AC
:100060000C945D000C945D00300311241FBECFEF93
:10007000D8E0DEBFCDBF21E0AEE1B1E001C01D920E
:10008000A63CB207E1F711E0A0E0B1E0E4E1FAE05C
:1000900002C005900D92AE31B107D9F710E0C5E36B
:1000A000D0E004C02197FE010E94FD04C433D107B3
:1000B000C9F70E9460020C9408050C940000CF92CE
:1000C000DF92EF92FF920F931F93CF93DF936C0118
:1000D0007A018B01C0E0D0E0CE15DF0589F0D801B0
:1000E0006D918D01D601ED91FC910190F081E02D93
:1000F000C6010995892B11F47E0102C02196ECCF2F
:10010000C701DF91CF911F910F91FF90EF90DF908A
:10011000CF900895089580E090E00895FC01538DFC
:10012000448D252F30E0842F90E0821B930B5417D1
:1001300010F0CF96089501970895FC01918D828D5E
:10014000981761F0828DDF01A80FB11D5D968C912B
:10015000928D9F5F9F73928F90E008958FEF9FEF36
:100160000895FC01918D828D981731F0828DE80FF2
:10017000F11D858D90E008958FEF9FEF0895FC01AC
:10018000918D228D892F90E0805C9F4F821B910979
:100190008F739927089587E291E00E94BF0021E0C4
:1001A000892B09F420E0822F0895FC01848DDF0162
:1001B000A80FB11DA35ABF4F2C91848D90E00196DA
:1001C0008F739927848FA689B7892C93A089B189C9
:1001D0008C9180648C93938D848D981306C00288D3
:1001E000F389E02D80818F7D80830895EF92FF92C7
:1001F0000F931F93CF93DF93EC0181E0888F9B8D4A
:100200008C8D981305C0E889F989808185FD24C00B
:10021000F62E0B8D10E00F5F1F4F0F731127E02E8E
:100220008C8DE8120CC00FB607FCFACFE889F9896B
:10023000808185FFF5CFCE010E94D500F1CF8B8D57
:10024000FE01E80FF11DE35AFF4FF0820B8FEA89A0
:10025000FB898081806207C0EE89FF896083E8891D
:10026000F98980818064808381E090E0DF91CF9183
:100270001F910F91FF90EF900895CF93DF93EC01C2
:10028000888D8823C9F0EA89FB89808185FD05C0B6
:10029000A889B9898C9186FD0FC00FB607FCF5CFF0
:1002A000808185FFF2CFA889B9898C9185FFEDCF38
:1002B000CE010E94D500E7CFDF91CF91089580E075
:1002C00090E0892B29F00E94CB0081110C94000052
:1002D0000895009769F0FC0101900020E9F731973B
:1002E000AF01481B590BBC0187E291E00C945F0001
:1002F00080E090E008958F929F92AF92BF920F930B
:100300001F93CF93DF93CDB7DEB7A1970FB6F894C5
:10031000DEBF0FBECDBF19A2423008F44AE08E0105
:100320000F5D1F4F842E912CA12CB12CA50194019F
:100330000E948A04E62FB901CA0101501109EA306E
:1003400014F4E05D01C0E95CD801EC93232B242B6D
:10035000252B61F7C8010E946901A1960FB6F89498
:10036000DEBF0FBECDBFDF91CF911F910F91BF9028
:10037000AF909F908F9008950E9403051F920F9257
:100380000FB60F9211242F933F938F939F93AF93A8
:10039000BF938091230190912401A0912501B091F8
:1003A00026013091220123E0230F2D3720F40196FE
:1003B000A11DB11D05C026E8230F0296A11DB11D88
:1003C000209322018093230190932401A09325017F
:1003D000B093260180911E0190911F01A0912001F0
:1003E000B09121010196A11DB11D80931E01909332
:1003F0001F01A0932001B0932101BF91AF919F9164
:100400008F913F912F910F900FBE0F901F901895D5
:100410001F920F920FB60F9211242F933F934F9379
:100420005F936F937F938F939F93AF93BF93EF935C
:10043000FF9387E291E00E94D500FF91EF91BF9179
:10044000AF919F918F917F916F915F914F913F916C
:100450002F910F900FBE0F901F9018951F920F9223
:100460000FB60F9211242F938F939F93EF93FF93C7
:10047000E0913701F09138018081E0913D01F091E8
:100480003E0182FD12C09081809140018F5F8F7389
:1004900020914101821751F0E0914001F0E0E95DC7
:1004A000FE4F958F8093400101C08081FF91EF91B5
:1004B0009F918F912F910F900FBE0F901F901895C5
:1004C000789484B5826084BD84B5816084BD85B52F
:1004D000826085BD85B5816085BD80916E0081603B
:1004E00080936E00109281008091810082608093E1
:1004F00081008091810081608093810080918000E3
:100500008160809380008091B10084608093B1000D
:100510008091B00081608093B00080917A00846007
:1005200080937A0080917A00826080937A00809133
:100530007A00816080937A0080917A00806880934D
:100540007A001092C100E0913701F091380182E009
:100550008083E0913301F09134011082E091350104
:10056000F09136018FEC808310923F01E0913B01C6
:10057000F0913C0186E08083E0913901F0913A01ED
:10058000808180618083E0913901F0913A0180811E
:1005900088608083E0913901F0913A018081806820
:1005A0008083E0913901F0913A0180818F7D8083D1
:1005B00082E191E00E94690187E191E00E94690176
:1005C00089E191E00E94690187E191E00E9469015F
:1005D000E0912701F09128010190F081E02D60E485
:1005E00087E291E0099587E191E00E9469014AE084
:1005F00060E470E080E090E00E947B0187E191E0A0
:100600000E94690140E150E060E070E08AE191E021
:100610000E945D036B01770FEE08FF08F7FE14C020
:10062000E0912701F09128010190F081E02D6DE229
:1006300087E291E0099566277727CB016C197D0940
:100640008E099F094AE003C04AE0C701B6010E9433
:100650007B0187E191E00E9469010E945F01FDCF6B
:10066000E7E2F1E01382128288EE93E0A0E0B0E0CE
:1006700084839583A683B78384E091E0918380830C
:1006800085EC90E09587848784EC90E09787868757
:1006900080EC90E0918B808B81EC90E0938B828B4F
:1006A00082EC90E0958B848B86EC90E0978B868B28
:1006B000118E128E138E148E0895A0E0B0E0E3E642
:1006C000F3E00C94B7045C016B017A0161157105CC
:1006D00019F0FB0191838083E114F10429F0C70133
:1006E0000297839708F0F1C0E5012196F50110818A
:1006F000812F90E00E946E04892B11F05E01F4CFEF
:100700001D3229F42196F501118101E007C01B3249
:1007100021F4E5012296F501118100E0E114F104D4
:1007200059F1F0E1EF16F10461F41033E1F488813E
:100730008F7D883569F519812296026070E1E72E78
:10074000F12C88E0E816F10439F12CF4F2E0EF1610
:10075000F104C9F12AC08AE0E816F10479F0E0E179
:10076000EE16F10411F550E1E52EF12C812C912CBF
:10077000A12C68E0B62E2CC01033C9F23AE0E32E6B
:10078000F12C4CEC842E982CA82C4CE0B42E20C0DC
:1007900010E3E114F104A9F698E0E92EF12C812C84
:1007A000912CA12C20E1B22E13C060E070E080E01B
:1007B00090E897010F2C000C440B550B0E948A0403
:1007C00049015A0105C0812C912CA12C80E4B82E3E
:1007D00060E020E030E0A90127010F2C000C660842
:1007E00077081E01E0EDE10FEA3060F08FEB810F3A
:1007F0008A3110F4E9EC05C08FE9810F8A3128F5C0
:10080000E9EAE10F8E2F90E08E159F05F4F467FD65
:1008100018C082169306A406B50690F0C301B20173
:100820000E947A049B01AC012E0F311D411D511D08
:10083000213031054105F0E85F0710F461E001C0A7
:100840006FEF2196F1011081CCCF802F8170C11400
:10085000D10471F0662329F02197F601D183C0837A
:1008600007C001FF19C02297F601D183C08314C0CD
:1008700067FF12C0811105C02FEF3FEF4FEF5FE719
:1008800004C020E030E040E050E882E290E0909345
:10089000C5018093C40116C0882341F0509540954E
:1008A000309521953F4F4F4F5F4F0CC057FF0AC007
:1008B00082E290E09093C5018093C4012FEF3FEF57
:1008C0004FEF5FE7B901CA0104C060E070E080E06B
:1008D00090E0CDB7DEB7E2E10C94D30491110C9413
:1008E0007704803219F089508550C8F70895992708
:1008F00088270895DB018F939F930E94AC04BF91DA
:10090000AF91A29F800D911DA39F900DB29F900D5E
:1009100011240895A1E21A2EAA1BBB1BFD010DC0D4
:10092000AA1FBB1FEE1FFF1FA217B307E407F5079F
:1009300020F0A21BB30BE40BF50B661F771F881F7B
:10094000991F1A9469F760957095809590959B0111
:10095000AC01BD01CF0108950E94EE04A59F900D4A
:10096000B49F900DA49F800D911D112408952F9286
:100970003F924F925F926F927F928F929F92AF922F
:10098000BF92CF92DF92EF92FF920F931F93CF937C
:10099000DF93CDB7DEB7CA1BDB0B0FB6F894DEBF13
:1009A0000FBECDBF09942A88398848885F846E8439
:1009B0007D848C849B84AA84B984C884DF80EE8083
:1009C000FD800C811B81AA81B981CE0FD11D0FB68C
:1009D000F894DEBF0FBECDBFED010895A29FB00118
:1009E000B39FC001A39F700D811D1124911DB29F63
:1009F000700D811D1124911D0895EE0FFF1F0590AC
:100A0000F491E02D099481E090E0F8940C940805AD
:040A1000F894FFCF88
:100A140000000000F6005F008E003D01BF009D0055
:0E0A2400B10054657374000D0A0030410000EB
:107E0000112484B714BE81FFF0D085E080938100F7
:107E100082E08093C00088E18093C10086E0809377
:107E2000C20080E18093C4008EE0C9D0259A86E02C
:107E300020E33CEF91E0309385002093840096BBD3
:107E4000B09BFECF1D9AA8958150A9F7CC24DD24C4
:107E500088248394B5E0AB2EA1E19A2EF3E0BF2EE7
:107E6000A2D0813461F49FD0082FAFD0023811F036
:107E7000013811F484E001C083E08DD089C08234E0
:107E800011F484E103C0853419F485E0A6D080C0E4
:107E9000853579F488D0E82EFF2485D0082F10E0AE
:107EA000102F00270E291F29000F111F8ED06801E7
:107EB0006FC0863521F484E090D080E0DECF843638
:107EC00009F040C070D06FD0082F6DD080E0C81688
:107ED00080E7D80618F4F601B7BEE895C0E0D1E017
:107EE00062D089930C17E1F7F0E0CF16F0E7DF06D8
:107EF00018F0F601B7BEE89568D007B600FCFDCFD4
:107F0000A601A0E0B1E02C9130E011968C91119780
:107F100090E0982F8827822B932B1296FA010C0160
:107F200087BEE89511244E5F5F4FF1E0A038BF0790
:107F300051F7F601A7BEE89507B600FCFDCF97BE46
:107F4000E89526C08437B1F42ED02DD0F82E2BD052
:107F50003CD0F601EF2C8F010F5F1F4F84911BD097
:107F6000EA94F801C1F70894C11CD11CFA94CF0C13
:107F7000D11C0EC0853739F428D08EE10CD085E9AC
:107F80000AD08FE07ACF813511F488E018D01DD067
:107F900080E101D065CF982F8091C00085FFFCCF94
:107FA0009093C60008958091C00087FFFCCF809118
:107FB000C00084FD01C0A8958091C6000895E0E648
:107FC000F0E098E1908380830895EDDF803219F02E
:107FD00088E0F5DFFFCF84E1DECF1F93182FE3DFCA
:107FE0001150E9F7F2DF1F91089580E0E8DFEE27F6
:047FF000FF270994CA
:027FFE00040479
:0400000300007E007B
:00000001FF
