:100000000C94E8000C9410010C9410010C94100155
:100010000C9410010C9410010C9410010C9410011C
:100020000C9410010C9410010C9410010C9410010C
:100030000C9410010C9410010C9410010C941001FC
:100040000C943D040C9410010C94C80E0C94A20E58
:100050000C9410010C9410010C9410010C941001DC
:100060000C9410010C94100163825363000108008A
:100070000604000100504F53542024462048545495
:10008000502F312E300D0A486F73743A2024460DDC
:100090000A244624534163636570743A202A2F2A48
:1000A0000D0A436F6E74656E742D4C656E677468CF
:1000B0003A2024440D0A436F6E74656E742D547992
:1000C00070653A206170706C69636174696F6E2F3E
:1000D000782D7777772D666F726D2D75726C656EE2
:1000E000636F6465640D0A0D0A245300474554206C
:1000F0002446245320485454502F312E300D0A48A2
:100100006F73743A2024460D0A24460D0A0D0A0026
:10011000450000820000400020000000002400276D
:10012000002A0000000000250028002B0004040421
:100130000404040404020202020202030303030390
:10014000030102040810204080010204081020016D
:10015000020408102000000008000201000003044F
:100160000700000000000000004448435020666182
:10017000696C6564004661696C656420746F206118
:1001800063636573732045746865726E657420637C
:100190006F6E74726F6C6C6572000A5B7765624398
:1001A0006C69656E745D004163636570743A2074B8
:1001B0006578742F68746D6C007777772E676F6F32
:1001C000676C652E636F6D002F666F6F2F00520F87
:1001D00011241FBECFEFD8E0DEBFCDBF11E0A0E0FD
:1001E000B1E0EAEBF7E202C005900D92AA39B1073F
:1001F000D9F725E0AAE9B1E001C01D92A237B20704
:10020000E1F710E0C8EED0E004C02197FE010E94A3
:100210009F13C73ED107C9F70E947F0F0C94DB13D1
:100220000C9400008091F20190E0982F8827209193
:10023000F301822B44972091100230E044E0359581
:1002400027954A95E1F7220F331F220F331F821B98
:10025000930B97FF02C080E090E008952091060282
:100260003091040230930602209304022091070289
:100270003091050230930702209305022CE032E012
:10028000A0E1B2E0F9014291840F911D4E918C934F
:10029000662311F0408301C01082892F992744E022
:1002A0004E0F4213F0CF109214021092150280E507
:1002B0008093100208950F931F93CF93DF9370E004
:1002C0006E517E4F213021F48A01075F1F4F0CC011
:1002D000223039F000E010E09801DB011196EA01CC
:1002E00006C08A010250110920E030E0F6CFC2308A
:1002F000D10578F0FD013197E081F0E0FE2FEE2787
:100300009C91E92B0E0F1F1F211D311D2297129664
:10031000EECFFA01EE7FE60FF71F40FF0CC04081E1
:1003200050E060E070E0762F652F542F4427040FD3
:10033000151F261F371FA90166277727411551056D
:100340006105710519F022273327F1CF009510952B
:10035000E82FF0E0EE51FE4F10830183DF91CF9143
:100360001F910F910895E2EEF1E0108E118E80E45E
:10037000848B158A868B20E044E150E06EE088E1B2
:100380000C945B01DC011696ED91FC9117979F018F
:100390002F5F3F4F17963C932E931697608381E013
:1003A00090E00895CF92DF92EF92FF920F931F9308
:1003B0008634910568F120910502233449F5C090F7
:1003C0001002D0901102E0901202F09013020091FE
:1003D000A1011091A2012091A3013091A401C016A6
:1003E000D106E206F306A1F4ECEFF2E08E519E4F47
:1003F0009F012E5F3F4F41815081553319F4528147
:10040000561741F0F901E40FF11DE817F90780F3E1
:1004100080E001C081E01F910F91FF90EF90DF908D
:10042000CF900895E0919A01F0919B019F012F5F79
:100430003F4F30939B0120939A0180830895EF9260
:10044000FF920F931F93CF93DF931F92CDB7DEB729
:10045000062F142F59830E941202802F0E9412022D
:10046000E12E5981F52E100F1E1531F0F701819103
:100470007F010E941202F8CF0F90DF91CF911F9160
:100480000F91FF90EF900895CF93DF93EC01FB0164
:100490008A30910548F06AE070E00E945E13CB015B
:1004A000BF010E944402FC01CE016AE070E00E949C
:1004B0005E13805D80831182CF010196DF91CF9121
:1004C0000895089580E090E008950F931F93CF93CF
:1004D000DF9389019091B404891751F0E091B5043C
:1004E000F091B60440E050E060E070E084E029C0A4
:1004F000611128C02D30310528F1C091B504D0918B
:10050000B6042097F9F0BA0165517E4F43E050E000
:100510008AE591E00E94CD136091100270E024E022
:10052000759567952A95E1F7660F771F660F771F18
:100530006E5D7F4F21E0892B09F420E0A801822F16
:10054000FE01099580E0DF91CF911F910F910895F1
:10055000AF92BF92CF92DF92EF92FF920F931F93D1
:10056000CF93DF93CDB7DEB7ED84FE84CF84D888F8
:100570008E010F5E1F4FC6010196F60124912223C2
:1005800009F4D6C0243279F0D7011696ED91FC918A
:100590001797AF014F5F5F4F17965C934E93169777
:1005A00020836C01E8CFB2E0CB0ED11CFC0194910A
:1005B000963409F46FC05CF49434C1F0953409F0BA
:1005C00099C0F801808191810E5F1F4F7BC0D701D8
:1005D00016964D915C9117979C3409F443C093355E
:1005E00009F44DC0983409F085C00DC05801B2E03F
:1005F000AB0EB11CF70166817781D8018D919C917A
:100600000E94440285C0B8016E5F7F4FF80190815F
:10061000292F092E000C330B84E0359527958A95F8
:10062000E1F72F709F709A300CF0995F905D2A303F
:100630000CF0295FFA013196D7011796FC93EE93DF
:100640001697205DFA0120831696ED91FC9117977D
:100650009F012F5F3F4F17963C932E9316979083E1
:100660008B0189CF5801F4E0AF0EB11CD8016D9118
:100670007D918D919C912AE00E94151349C05801EB
:10068000B2E0AB0EB11CF80160817181CA010E9419
:10069000C6133EC0F8010190F081E02D0E5F1F4FA0
:1006A0008491AF014F5F5F4F882309F464CFF70156
:1006B000A681B7819D012F5F3F4F378326838C939F
:1006C000FA01EECF5C01BFEFAB1ABB0A0E945613D2
:1006D000882309F450CFD7011696ED91FC91179716
:1006E0009F012F5F3F4F17963C932E931697808361
:1006F000C501E8CFD7011696ED91FC9117979F01A0
:100700002F5F3F4F17963C932E931697908333CFCE
:10071000D7011696ED91FC91179701900020E9F70B
:10072000CF01019717969C938E931697850123CF3F
:10073000DF91CF911F910F91FF90EF90DF90CF90BD
:10074000BF90AF9008950F931F93CF93DF93CDB7D2
:10075000DEB728970FB6F894DEBF0FBECDBF1C8260
:100760001B822CE231E03A83298328E132E03E8388
:100770002D8338872F839091B404891357C0A0919B
:10078000B704B091B8040091BC041091BB047091FF
:10079000C0046091BF04AE014F5F5F4F1097C9F472
:1007A0008091BA048F938091B9048F930F931F9314
:1007B0008091BE048F938091BD048F937F936F933C
:1007C0008CEE90E09F938F935F934F930E94A802CB
:1007D00028C08091B9049091BA04FD0101900020D5
:1007E000E9F73197EA1BFB0B009719F02EE531E092
:1007F00004C020E631E084E790E0BF93AF93FF931D
:10080000EF933F932F939F938F930F931F937F9318
:100810006F9385E790E09F938F935F934F930E9430
:10082000A8020FB6F894DEBF0FBECDBF8F819885AA
:100830002D813E81821B930B28960FB6F894DEBF64
:100840000FBECDBFDF91CF911F910F910895CF9330
:10085000DF93EB0181E691E00E94760ECE018E518E
:100860009E4FFC01E45DFE4F10820E943E0E85E625
:1008700091E0DF91CF910C94760E1F920F920FB6FC
:100880000F9211242F933F938F939F93AF93BF9316
:100890008091C9019091CA01A091CB01B091CC0186
:1008A0003091C80123E0230F2D3720F40196A11DBC
:1008B000B11D05C026E8230F0296A11DB11D20938E
:1008C000C8018093C9019093CA01A093CB01B09352
:1008D000CC018091CD019091CE01A091CF01B0913A
:1008E000D0010196A11DB11D8093CD019093CE0141
:1008F000A093CF01B093D001BF91AF919F918F9101
:100900003F912F910F900FBE0F901F9018958F92CF
:100910009F92AF92BF92CF92DF92EF92FF921F937E
:10092000CF93DF93CDB7DEB7A3970FB6F894DEBFB2
:100930000FBECDBF6AA37BA30E943E0E6AA1E62E26
:100940007BA1F72E10E08AE0882E912CA12CB12CEF
:10095000F70181917F01282F30E040E050E019A29B
:10096000CE0181966C01CA01B901A50194010E94D2
:100970007213605DF60162936F0121153105410527
:10098000510589F7CF010E943E0E133059F0E091D6
:10099000C904F091CA040190F081E02D6EE289EC67
:1009A00094E009951F5F143099F68EE591E00E945E
:1009B0003E0EA3960FB6F894DEBF0FBECDBFDF91FB
:1009C000CF911F91FF90EF90DF90CF90BF90AF90AD
:1009D0009F908F900895DC0196E0FB0101900D92AD
:1009E0009A95E1F70895CF93DF93EB0144E050E04F
:1009F000BC018EEF91E00E94B913892B39F468EFA6
:100A000071E0CE010E94EB0481E001C080E0DF9143
:100A1000CF910895BC0182EE91E00E94EB046BED52
:100A200071E088EE91E00C94EB04FB014081518170
:100A300062817381FC0140835183628373830895D3
:100A400088EE91E00E940A056CEF71E080E092E090
:100A50000E94150565EC74E08CEF91E00E9415058D
:100A60000C94B301CF93DF9300D0CDB7DEB7698389
:100A70007A830E940A0569817A8180E092E00E946F
:100A8000150565EC74E08CEF91E00F900F90DF910D
:100A9000CF910C941505EF92FF920F931F93CF9374
:100AA000DF93182F092FEB01F42EE52ECB010E94C6
:100AB000840EBE01882319F089EB91E002C08FEB10
:100AC00091E00E9432052881207F203E91F08881AC
:100AD0009981AA81BB818F3F9F4FAF4FBF4F49F094
:100AE00044E050E0BE0184ED91E00E94B913892BEF
:100AF00031F464E371E082EE91E00E94EB0488E05F
:100B00008093EE011092EF0149E050E060E171E066
:100B100080EF91E00E940C131092F20181E180932A
:100B2000F901E0920602F09207020093040210938A
:100B300005021092080210920A0210920B02DF9135
:100B4000CF911F910F91FF90EF9008958EBD0DB43E
:100B500007FEFDCF089561E08091D1010E94FA0E59
:100B600078940895F89460E08091D1010C94FA0E85
:100B70000F931F93CF93DF93EC018B010E94B2057B
:100B80002097B9F08AE30E94A6051EBCF801CE01A9
:100B9000019739F00DB407FEFDCF2EB51EBC219391
:100BA000F7CF2197C00FD11F0DB407FEFDCF8EB533
:100BB0008883DF91CF911F910F910C94AB05CF9358
:100BC000DF9300D01F92CDB7DEB74B836A83898352
:100BD0000E94B2056A816F718981862B0E94A605E9
:100BE0004B81842F0E94A6050F900F900F90DF91EC
:100BF000CF910C94AB051F93CF93DF93182F1076F2
:100C0000C12FD0E02091B10130E0C217D307A1F08D
:100C100043E06FE180EA0E94DF051093B101AE016D
:100C200085E0559547958A95E1F76FE180E8DF917A
:100C3000CF911F910C94DF05DF91CF911F91089503
:100C40001F93CF93DF931F92CDB7DEB7182F698321
:100C50000E94FB054981612F80E40F90DF91CF91C5
:100C60001F910C94DF051F93CF93DF931F92CDB795
:100C7000DEB7182F79830E9420067981672F81E0E3
:100C8000810F0F90DF91CF911F910C9420061F933D
:100C9000CF93DF931F92CDB7DEB7182F0E94FB05CD
:100CA0000E94B205812F8F710E94A60580E00E94EC
:100CB000A60517FF03C080E00E94A6058EB58983B4
:100CC0000E94AB0589810F90DF91CF911F9108950C
:100CD0000F931F93CF93DF9300D000D000D0CDB7F8
:100CE000DEB78091B401882389F06091B2017091E0
:100CF000B3016115710519F46FEF7BE002C061501B
:100D000071098CE00E9433061092B40189E30E94BD
:100D100047068823C9F16091B2017091B30180E068
:100D20000E943306BE016F5F7F4F86E090E00E9415
:100D3000B80589819A819093B3018093B2010B81A8
:100D40001C818091D2019091D3012D8127FF0DC08C
:100D50000197045011098017910708F48C0162EE85
:100D600071E0C8010E94B80502C000E010E0F8017F
:100D7000EE51FE4F108281E08093B40140E46EE1B9
:100D800080E80E94DF0502C000E010E0C80126965E
:100D90000FB6F894DEBF0FBECDBFDF91CF911F918C
:100DA0000F910895CF93DF93EC0140E86FE180E865
:100DB0000E94DF0540E86FE180EA0E94DF054AE01B
:100DC0006CE180EA0E94DF0560E07CE082E00E9446
:100DD0003306BE01745F86E00E94330640E060E0A7
:100DE0008AE70E94DF050E94B205209751F40E9415
:100DF000AB0548E06FE180E80E94DF05C0E0D0E08D
:100E00001CC08AE70E94A6058091E2018EBDE3EE38
:100E1000F1E0CE51DE4FEC17FD0731F081910DB4BA
:100E200007FEFDCF8EBDF7CF0DB407FEFDCFDFCFA0
:100E30002196C83E83E0D80729F08CE10E9447063E
:100E40008A70B1F38CE10E94470681FD03C0C83E61
:100E5000D34039F448E06FE180EADF91CF910C9400
:100E6000DF05DF91CF9108950F931F93CF938C01EE
:100E700084E391E00E940A05E2EEF1E088E08487D5
:100E8000C6E0C58748E050E06CE670E080EF91E096
:100E90000E940C13E2E0F2E0DF011D92CA95E9F72F
:100EA0006BED71E088EF91E00E94EB04B80188E0FF
:100EB00092E00E94150565EC74E08EEF91E00E94CF
:100EC00015058AE290E0CF911F910F910C94D20604
:100ED0000F931F93CF93DF93EC0102EE11E04C963A
:100EE000F801908B818B0E94B301CE010896F80126
:100EF00096A387A3AE01405F5F4F21E06AE188E2DD
:100F00000E945B01CE018A96DF91CF911F910F91D4
:100F10000C94D206FF920F931F93CF93DF938C0113
:100F200086E191E0E2EEF1E0DF019C011D922150AB
:100F30003040E1F78091DA01833019F064E371E029
:100F400002C06CE971E043E450E084E490E00E9468
:100F50004B0564E371E082EE91E00E94EB0481E0D6
:100F600080930C0280930D0286E080930E028091A4
:100F7000A1019091A201A091A301B091A40180933D
:100F8000100290931102A0931202B0931302809169
:100F9000DA01833031F465EC74E088E192E00E947C
:100FA00015056BED71E088E292E00E94EB0488EF9A
:100FB00092E090939B0180939A01C8E6D0E0FC2ECA
:100FC00034E0F30EFE0184910E9412022196FC127D
:100FD000F9CF85E30E94120281E00E941202809103
:100FE000DA01882311F083E001C081E00E9412023F
:100FF0008DE30E94120287E00E94120281E00E94AB
:101000001202CBEDD1E0FC2E26E0F20EFC1621F010
:1010100089910E941202FACF80910201882371F017
:10102000E2E0F1E001900020E9F73197BF01625062
:10103000714042E051E08CE00E941F020115110551
:1010400059F0A80164E082E30E941F024CE951E0DC
:1010500064E086E30E941F0287E30E94120283E09D
:101060000E94120281E00E94120283E00E9412029A
:1010700086E00E9412028FEF0E94120280919A0174
:1010800090919B018C509240DF91CF911F910F91D5
:10109000FF900C946807262F206120931102643082
:1010A00021F0009711F481E090E061E00E942E01B0
:1010B0001092F20188E28093F3010E94200584E0FF
:1010C000809312021092130222E04CE150E06AE198
:1010D00082E30E945B0186E390E00C94D20661E11A
:1010E00084ED0E94200661E082ED0E9420068AEED7
:1010F0000E94470680FDFBCF60E082ED0E94200643
:1011000089ED0E94470682FB882780F90895CF92D7
:10111000DF92EF92FF920F931F93CF93DF9300D054
:1011200000D0CDB7DEB78C018091DA01823009F4AE
:1011300080C030F48823A9F1813009F452C035C150
:10114000833021F0843009F474C02FC1C090AD0108
:10115000D090AE01E090AF01F090B0012FEFC21639
:10116000D206E206F20609F420C10E94460F009161
:10117000A9011091AA012091AB013091AC01DC01D1
:10118000CB01801B910BA20BB30B8C159D05AE05FB
:10119000BF0508F40AC185EC94E00E948A0784E048
:1011A000F8C00E94460F6093A1017093A201809342
:1011B000A3019093A4011092C5041092C60410924A
:1011C000C7041092C80480E090E00E948A0788E378
:1011D0000E944706682F616088E30E94200681E034
:1011E000D8C062E0C8010E94D201882341F16CE1BD
:1011F00072E0CE0101960E941505ECEFF2E00E516F
:101200001E4FBF016E5F7F4F81819081963329F41D
:101210008CE991E00E94150506C0FB01E80FF11D65
:10122000E017F10770F3CE0101960E948A0782E071
:10123000B0C065E0C8010E94D201811119C00E94AE
:10124000460F0091A5011091A6012091A7013091B0
:10125000A801DC01CB01801B910BA20BB30B8131E8
:101260009742A105B10508F4A0C01092DA019DC013
:101270008091A001811108C088E30E944706682F71
:101280006E7F88E30E9420066CE172E085EC94E0BA
:101290000E941505ECEFF2E00E511E4F7F0182E037
:1012A000E80EF11CD18080818630A9F048F48130AD
:1012B00071F0833009F045C0B70188EA94E00EC0B0
:1012C0008A3379F08F3FD9F18333D9F50AC0B7015A
:1012D00081EC94E003C0B70184EA94E00E94150514
:1012E00030C0D701369620E030E0A9018D91742FEF
:1012F000632F522F44279A01AB01280F311D411D46
:10130000511DAE17BF0791F72093AD013093AE0189
:101310004093AF015093B0012F3F8FEF380748073C
:10132000580779F0A8EEB3E00E9494136093AD01E2
:101330007093AE018093AF019093B00102C081E041
:1013400001C080E0F701ED0DF11D811104C0E0172F
:10135000F10708F4A3CF0E94460F6093A901709390
:10136000AA018093AB019093AC018091A8048823DB
:1013700061F01092D9011092D80181E080939E040F
:1013800068EA74E0CB010E94150583E08093DA01DE
:101390000CC08093DA010E94460F6093A501709300
:1013A000A6018093A7019093A8010F900F900F9032
:1013B0000F90DF91CF911F910F91FF90EF90DF90F1
:1013C000CF900895CF92DF92FF920F931F93CF9308
:1013D000DF931F92CDB7DEB78C018091E1018823A6
:1013E00019F0C8010E9487080115110509F0BDC058
:1013F00080919E04857051F08091D8019091D9011F
:10140000892B21F40E946F088111C9C08091D801F5
:101410009091D90101969093D9018093D801809140
:10142000AD04813009F07CC080919E0481FF78C0BA
:1014300082E08093AD04809101018F5F8093010170
:101440001091AE040091AF048F712091AC0490E232
:10145000299F90011124F82EF22A80EA94E00E943C
:10146000840E60EA74E0882319F089EB91E002C0F1
:101470008FEB91E00E943205E8E0DE2ED092EE0183
:101480001092EF0149E050E060E171E080EF91E0FF
:101490000E940C138CE28093F30186E08093F901A3
:1014A0000E94B30100930602109307028BE0809321
:1014B0000402F0920502E8E0F2E0DF011D92DA9406
:1014C000E9F78091000180930A028D5F809300010B
:1014D00080E68093100282E08093110293E0909363
:1014E000120210921302109214021092150210921E
:1014F0001602109217028093180294E0909319023A
:1015000080931A0286E280931B0222E040E250E0C0
:101510006AE182E30E945B018AE390E00E94D206C6
:1015200084EA94E00E94840E882341F080919F0415
:10153000811104C08091C7018823D9F180EA94E029
:101540000E94840E882309F4A9C08091C6018111EC
:10155000A5C08091C5018111A1C080EA94E00E94DC
:10156000340781E08093C50199C00932110508F460
:1015700095C08091EE01883009F090C08091EF0114
:10158000863009F086C044E050E065EC74E088E005
:1015900092E00E94B913892B09F080C012C088EA3A
:1015A00094E00E94340780919E04886080939E049A
:1015B0002DCF84EA94E00E94340781E08093C70134
:1015C000BDCF8091F701813029F588EE91E00E942E
:1015D0000A051092F60182E08093F70168EF71E04E
:1015E00082E092E00E94EB046BED71E088EF91E005
:1015F0000E94EB046EEF71E088E092E00E94150516
:1016000065EC74E08EEF91E00E9415058AE290E0AF
:101610000E94D20680919E0483FF0CC01091F701B6
:10162000123041F46FEB71E088EA94E00E94F30419
:10163000811126C080919F0481110CC08091C70147
:10164000882341F069EB71E084EA94E00E94F3049E
:10165000811119C08091C601811120C08091C501FE
:101660008823E1F069EB71E080EA94E00E94F304E2
:101670008823A1F081E08093C6011092C5010EC0BD
:1016800010939E04D7CF81E080939F041092C701EE
:10169000E1CF0932110511F0882319F0C12CD12CAA
:1016A0007AC18091F0018534C9F744E050E065ECDF
:1016B00074E080E092E00E94B913892BA1F044E02D
:1016C00050E064ED71E080E092E00E94B913892B54
:1016D00051F044E050E064E371E080E092E00E9469
:1016E000B913892BD9F68091F9018130F9F48091F1
:1016F0000402883099F6E091B701F091B801309773
:1017000019F08CEF91E009950E94200510920402D7
:1017100080910602883F28F0909107029F5F909386
:101720000702885F80930602C8010CC106331105C9
:1017300008F4B4CF863009F0B1CF809106028B3027
:1017400009F0BDC044E050E060EA74E08CEF91E045
:101750000E94B913892B09F0A1CF2091110222FF19
:1017600013C0E091B204F091B304309759F0809126
:10177000070220E030E040E050E063E0829586958B
:101780008770099585E08FC029830E9412016C0142
:101790008091AD042981823009F043C0822F80718D
:1017A0002271223191F560E080E090E00E944B08C8
:1017B00088E180931102E091B004F091B104309778
:1017C00041F08091050282958695877009958C017C
:1017D00002C000E010E083E08093AD04C801889669
:1017E0009093F2018093F3010E94B30110921402CE
:1017F00010921502A801445E5F4F22E06AE182E385
:101800000E945B01C801C6969DC091E09093AD0413
:10181000811103C0C601019602C080E090E064E03F
:101820004BC0833091F5C114D10491F1E091B20421
:10183000F091B304309761F14091100250E064E000
:10184000559547956A95E1F7440F551F440F551F6D
:10185000C80108974E5D5F4F8417950708F4AC01E7
:10186000C601840F951F0817190720F49801241B3F
:10187000350B01C096018091070260E08295869544
:101880008770099569E0C6010BC0853009F406CF61
:1018900020FF0CC0833009F401CF69E0C601019636
:1018A0000E944B0886E08093AD04F8CEC114D104A9
:1018B00009F4F4CE60E0C6010E944B08EFCE81111E
:1018C000EDCE80910702803509F0E8CEF09011024C
:1018D000F1FE3BC01092F2018CE28093F3010E9472
:1018E000200582E18093110260E081E090E00E9497
:1018F0002E0110920802109209028091000180933B
:101900000A0210920B028D5F8093000182E08093A7
:10191000180284E08093190285E080931A021092E5
:101920001B0290E6909310028093120288E7809346
:10193000130222E040E250E06AE182E30E945B0190
:101940008AE390E00E94D206A9CEF4FEA7CE0E94C0
:1019500012016C019093B6018093B501892BA1F01F
:101960008091100290E024E0959587952A95E1F703
:10197000880F991F880F991F6C01B2E2CB0ED11C02
:101980000C151D0540F48ACEF0FE88CE60E080E0A4
:1019900090E00E944B08C6010F90DF91CF911F91FC
:1019A0000F91FF90DF90CF900895CF92DF92EF924A
:1019B000FF920F931F93CF93DF936C017A018B01FA
:1019C000C0E0D0E0CE15DF0589F0D8016D918D0122
:1019D000D601ED91FC910190F081E02DC6010995B1
:1019E000892B11F47E0102C02196ECCFC701DF9153
:1019F000CF911F910F91FF90EF90DF90CF900895BE
:101A0000FC01538D448D252F30E0842F90E0821B04
:101A1000930B541710F0CF96089501970895FC0189
:101A2000918D828D981761F0828DDF01A80FB11D15
:101A30005D968C91928D9F5F9F73928F90E0089539
:101A40008FEF9FEF0895FC01918D828D981731F0F3
:101A5000828DE80FF11D858D90E008958FEF9FEF47
:101A60000895FC01918D228D892F90E0805C9F4F1D
:101A7000821B91098F739927089589EC94E00E9445
:101A8000310D21E0892B09F420E0822F0895FC011B
:101A9000848DDF01A80FB11DA35ABF4F2C91848DF7
:101AA00090E001968F739927848FA689B7892C932C
:101AB000A089B1898C9180648C93938D848D9813C7
:101AC00006C00288F389E02D80818F7D8083089590
:101AD000EF92FF920F931F93CF93DF93EC0181E07E
:101AE000888F9B8D8C8D981305C0E889F98980813A
:101AF00085FD24C0F62E0B8D10E00F5F1F4F0F7376
:101B00001127E02E8C8DE8120CC00FB607FCFACF1F
:101B1000E889F989808185FFF5CFCE010E94470DC4
:101B2000F1CF8B8DFE01E80FF11DE35AFF4FF082DC
:101B30000B8FEA89FB898081806207C0EE89FF896B
:101B40006083E889F98980818064808381E090E006
:101B5000DF91CF911F910F91FF90EF900895CF9358
:101B6000DF93EC01888D8823C9F0EA89FB898081A5
:101B700085FD05C0A889B9898C9186FD0FC00FB677
:101B800007FCF5CF808185FFF2CFA889B9898C91B8
:101B900085FFEDCFCE010E94470DE7CFDF91CF91BA
:101BA000089580E090E0892B29F00E943D0D81117D
:101BB0000C9400000895CF93DF9390E0FC01EF5B5D
:101BC000FE4F2491FC01E35DFE4F8491882361F177
:101BD00090E0880F991FFC01E75EFE4FC591D491FC
:101BE000FC01ED5DFE4FA591B491611109C09FB755
:101BF000F8948881209582238883EC912E230BC052
:101C0000623061F49FB7F8943881822F80958323E6
:101C10008883EC912E2B2C939FBF06C08FB7F8942E
:101C2000E8812E2B28838FBFDF91CF9108953FB796
:101C3000F8948091CD019091CE01A091CF01B09107
:101C4000D00126B5A89B05C02F3F19F00196A11D14
:101C5000B11D3FBFBA2FA92F982F8827820F911D42
:101C6000A11DB11DBC01CD0142E0660F771F881F89
:101C7000991F4A95D1F708950E94B413009769F00F
:101C8000FC0101900020E9F73197AF01481B590B87
:101C9000BC0189EC94E00C94D50C80E090E00895B0
:101CA0000F931F93CF93DF938C01C0E0D0E0F80136
:101CB000EC0FFD1F6491662371F0E091C904F0916F
:101CC000CA040190F081E02D89EC94E00995892BFC
:101CD00011F02196ECCF8EE591E00E943E0E8C0F24
:101CE0009D1FDF91CF911F910F910895CF93DF93A7
:101CF0000E943E0EEC018EE591E00E943E0E8C0F9C
:101D00009D1FDF91CF910895CF93DF932091C5045C
:101D10002223A1F0FC012081222381F0A5ECB4E074
:101D2000C1ECD4E08D91219199918227892331F4DE
:101D300084E0A93CB807B1F781E001C080E0DF9101
:101D4000CF9108951F920F920FB60F9211242F93E7
:101D50003F934F935F936F937F938F939F93AF9333
:101D6000BF93EF93FF9389EC94E00E94470DFF919E
:101D7000EF91BF91AF919F918F917F916F915F9103
:101D80004F913F912F910F900FBE0F901F9018957C
:101D90001F920F920FB60F9211242F938F939F9340
:101DA000EF93FF93E091D904F091DA048081E09100
:101DB000DF04F091E00482FD12C090818091E20482
:101DC0008F5F8F732091E304821751F0E091E2045A
:101DD000F0E0E753FB4F958F8093E20401C08081D0
:101DE000FF91EF919F918F912F910F900FBE0F90C8
:101DF0001F90189590E0FC01EB5AFE4F3491FC01C6
:101E0000EF5BFE4F2491FC01E35DFE4FE491EE2376
:101E100009F43BC0332339F1333091F038F43130D9
:101E2000A9F0323001F584B58F7D12C0373091F0C2
:101E30003830A1F03430B9F4809180008F7D03C038
:101E4000809180008F77809380000DC084B58F775C
:101E500084BD09C08091B0008F7703C08091B0002D
:101E60008F7D8093B000F0E0EE0FFF1FED5DFE4F21
:101E7000A591B4918FB7F894EC91611103C02095AE
:101E80002E2301C02E2B2C938FBF08952FB7F894CB
:101E90006091C9017091CA018091CB019091CC01F0
:101EA0002FBF0895E9ECF4E01382128288EE93E0EC
:101EB000A0E0B0E084839583A683B7838EE391E0AE
:101EC0009183808385EC90E09587848784EC90E013
:101ED0009787868780EC90E0918B808B81EC90E0F7
:101EE000938B828B82EC90E0958B848B86EC90E0D8
:101EF000978B868B118E128E138E148E0895789484
:101F000084B5826084BD84B5816084BD85B58260FE
:101F100085BD85B5816085BD80916E0081608093AF
:101F20006E00109281008091810082608093810018
:101F30008091810081608093810080918000816028
:101F4000809380008091B10084608093B100809183
:101F5000B00081608093B00080917A0084608093AB
:101F60007A0080917A00826080937A0080917A0072
:101F7000816080937A0080917A00806880937A00F3
:101F80001092C100E091D904F091DA0482E08083DC
:101F9000E091D504F091D6041082E091D704F0913D
:101FA000D8048FEC80831092E104E091DD04F0917D
:101FB000DE0486E08083E091DB04F091DC04808124
:101FC00080618083E091DB04F091DC048081886093
:101FD0008083E091DB04F091DC0480818068808361
:101FE000E091DB04F091DC0480818F7D80838AE9BD
:101FF00091E00E94500E1092E10187E390E001E031
:1020000010E020E030E00097D1F0FC01A3E0F5956E
:10201000E795AA95E1F7EA59FA4F482F477068010A
:10202000790104C0CC0CDD1CEE1CFF1C4A95D2F7D4
:10203000B701A601A0814A2B40830197E4CF62E259
:1020400071E08BED91E00E94EB048CEB92E09093B9
:10205000D3018093D2010CB406FC25C061E08AE074
:102060000E94DB0D61E08AE00E94FA0E61E08BE0E5
:102070000E94DB0D61E08DE00E94DB0D60E08CE0F2
:102080000E94DB0D61E08BE00E94FA0E60E08BE0C5
:102090000E94FA0E60E08DE00E94FA0E80E58CBD91
:1020A0008DB581608DBD8AE08093D10161E00E9491
:1020B000DB0D0E94AB054FEF60E08FEF0E94DF0564
:1020C0000E94170E6B017C01E2E08E2E912CA12C58
:1020D000B12C0E94170EDC01CB018C199D09AE09B1
:1020E000BF09883E9340A105B10598F328EEC20EC2
:1020F00023E0D21EE11CF11C8A9489288A288B28AF
:1021000029F0812C912C54018394E3CF0E94B205D5
:102110008DE10E94A60580E00E94A605CEB50E9432
:10212000AB05CC2399F360E070E088E00E943306B1
:1021300060E070E08CE00E9433066FEF7BE08AE0A5
:102140000E94330660E07CE084E00E9433066FEF7B
:1021500071E186E00E94330661EB88E30E9420066D
:102160006FE370E388E20E94330669EF77EF80E364
:102170000E9433066DE080EC0E94200660E081EC56
:102180000E94200642E362EC80E80E94DF0562E1E3
:102190007CE086EC0E94330662E184EC0E9420061B
:1021A0006CED75E08AEC0E9433066091DB0184EEF1
:1021B0000E9420066091DC0185EE0E94200660915D
:1021C000DD0182EE0E9420066091DE0183EE0E9416
:1021D00020066091DF0180EE0E9420066091E00100
:1021E00081EE0E94200660E184ED0E94200660E0FE
:1021F00071E086ED0E9433068AEE0E94470680FD5C
:10220000FBCF8FE10E94FB0540EC6BE180E80E9470
:10221000DF0544E06FE180E80E94DF0582E70E946D
:102220004706863008F08F5F811104C085E791E092
:102230000E94500E81E08093E101E2E0F1E0019024
:102240000020E9F7E550F1408091E001282F30E0CF
:1022500064E0359527956A95E1F72A30310514F049
:1022600097E301C090E3EE5FFE4F290F2083E2E089
:10227000F1E001900020E9F7E450F1408F708A30DE
:1022800014F097E301C090E3EE5FFE4F890F808367
:102290001092DA010E94460FEB011091DA0113301F
:1022A00081F00E94460F6C1B7D0B60367A4E48F41D
:1022B0000E946F08882389F30E9468060E9487089D
:1022C000ECCFC1ECD4E0A4EDB1E0E5ECF4E024E027
:1022D0002E0F919189918095892B8D932E13F9CF93
:1022E0001092D9011092D801133021F089E691E0C3
:1022F0000E94500E65EC74E089E691E00E9487042C
:1023000068EA74E08FE691E00E94870464EA74E072
:1023100085E791E00E9487040E94460FEB010E942E
:102320006F08811108C00E94460F6C1B7D0B603343
:102330007547A8F39DC011E084EA94E00E94840EE2
:10234000882319F080919F0404C080919E04869593
:102350008170812761F00E9468060E94E2090E9454
:10236000460F6C1B7D0B6033754730F381C01092B4
:10237000A0041092A1041092A2041092A3048091D0
:102380006D058F5F80936D059091A40491110BC032
:1023900048E058E0BA014093A4045093A504609328
:1023A000A6047093A70490E045E350E064EA74E06B
:1023B000906E0E944B058CE0ECE0F2E0DF011D9294
:1023C0008A95E9F7A8E1B2E049EB51E0FA01942FD0
:1023D0008E2F841B249131962E3249F0222339F01E
:1023E0008E2F891BED01C80FD11D2883F1CF8C934F
:1023F00090E00196A80FB91F222311F0AF01E6CF9C
:102400001C9211961C92119781E012968C93129750
:1024100013961C92139714968C93149722EE31E026
:10242000A21BA552A0930C0290916D0590930D02F2
:1024300080930E02809311028A2F90E00E94680719
:102440000E94460FEB018091A004811115C00E94EB
:10245000460F6C1B7D0B6033754750F40E94680675
:102460008C01009781F30E94E209892B61F783C0F8
:102470008BE791E00E94760E60EA74E086E891E0D6
:102480000E94870488EC682E81E0782EC5E9D1E0AF
:1024900009EB11E097EAE92E91E0F92E27E2C22E2E
:1024A00024E0D22E35E6A32E32E0B32E43EA842E6A
:1024B00043E0942E50E5552E442443940E94680630
:1024C0000E94E2090E94460F20916E0530916F052F
:1024D0004091700550917105261737074807590735
:1024E00008F046C00E94460FDC01CB0188579C4E85
:1024F000AF4FBF4F80936E0590936F05A09370050B
:10250000B09371058EE591E00E943E0E8CE891E05B
:102510000E943E0E7092C0046092BF04D093BE042D
:10252000C093BD041093BC040093BB04F092BA04A2
:10253000E092B9041092B8041092B704D092B60495
:10254000C092B504B092B304A092B2049092B104C8
:102550008092B0041092AF045092AE044092AD0449
:102560008091AC048F5F87708093AC048093B40437
:102570000E94D10DA3CF0634110508F464CF8091D9
:102580000502853309F05FCF80910602803E09F095
:102590005ACF8091070290916D05891354CF909185
:1025A0000D02981350CF80910F028F7009F060CF09
:1025B000E0910C02F0E0E45FFD4F0E511E4F808170
:1025C000807C11F032960EC0BF016F5F7F4FFB0120
:1025D0006017710738F4BF016F5F7F4F80818111F1
:1025E000F6CFFB01CF010E960817190708F42BCF81
:1025F00081816185813051F4643041F4BF01665FAF
:102600007F4F80EA94E00E9415051DCF70E0665F61
:102610007F4FE60FF71FD3CFFB01DC0102C005900F
:102620000D9241505040D8F70895BB272A3051F4FD
:10263000992342F4BDE290958095709561957F4F06
:102640008F4F9F4F0C942513BB27FA01A62F6217BB
:10265000710581059105330B30FB66F0AA27660FE3
:10266000771F881F991FAA1FA21710F0A21B63953E
:102670003850A9F7A05DAA3308F0A95DA19336F7F9
:10268000B111B1931082CA010C944613DC01FC0114
:10269000672F71917723E1F7329704C07C916D9396
:1026A00070836291AE17BF07C8F30895F999FECF02
:1026B00092BD81BDF89A992780B50895AA1BBB1BCE
:1026C00051E107C0AA1FBB1FA617B70710F0A61B32
:1026D000B70B881F991F5A95A9F780959095BC0153
:1026E000CD010895A1E21A2EAA1BBB1BFD010DC04E
:1026F000AA1FBB1FEE1FFF1FA217B307E407F507B2
:1027000020F0A21BB30BE40BF50B661F771F881F8D
:10271000991F1A9469F760957095809590959B0123
:10272000AC01BD01CF0108950E94A513A59F900D96
:10273000B49F900DA49F800D911D11240895EE0F5C
:10274000FF1F0590F491E02D0994A29FB001B39F63
:10275000C001A39F700D811D1124911DB29F700DAA
:10276000811D1124911D089581E090E0F8940C944E
:10277000DB13FB01DC0104C08D910190801921F471
:1027800041505040C8F7881B990B0895FB01DC01AC
:1027900001900D920020E1F70895FB01DC0141500A
:1027A000504030F08D910190801919F40020B9F754
:0A27B000881B990B0895F894FFCFE1
:1027BA000A0141726475696E6F2D454E4332386A5B
:1027CA0036302D303000000000000000000000000C
:1027DA0000007469692D303100000000C201D50C77
:1027EA0062026102FFFFFFFFFFFF00000000680DA9
:1027FA00D50C000DAF0D310D0F0D230D000000009B
:10280A003C0ED50C620261025000323030000D0AD3
:10281A00003E3E3E002E2E2E0049503A2020004710
:10282A00573A202000444E533A2000444E53206623
:10283A0061696C6564005352563A20003C3C3C2066
:0A284A005245512000626172000047
:107E0000112484B714BE81FFF0D085E080938100F7
:107E100082E08093C00088E18093C10086E0809377
:107E2000C20080E18093C4008EE0C9D0259A86E02C
:107E300020E33CEF91E0309385002093840096BBD3
:107E4000B09BFECF1D9AA8958150A9F7CC24DD24C4
:107E500088248394B5E0AB2EA1E19A2EF3E0BF2EE7
:107E6000A2D0813461F49FD0082FAFD0023811F036
:107E7000013811F484E001C083E08DD089C08234E0
:107E800011F484E103C0853419F485E0A6D080C0E4
:107E9000853579F488D0E82EFF2485D0082F10E0AE
:107EA000102F00270E291F29000F111F8ED06801E7
:107EB0006FC0863521F484E090D080E0DECF843638
:107EC00009F040C070D06FD0082F6DD080E0C81688
:107ED00080E7D80618F4F601B7BEE895C0E0D1E017
:107EE00062D089930C17E1F7F0E0CF16F0E7DF06D8
:107EF00018F0F601B7BEE89568D007B600FCFDCFD4
:107F0000A601A0E0B1E02C9130E011968C91119780
:107F100090E0982F8827822B932B1296FA010C0160
:107F200087BEE89511244E5F5F4FF1E0A038BF0790
:107F300051F7F601A7BEE89507B600FCFDCF97BE46
:107F4000E89526C08437B1F42ED02DD0F82E2BD052
:107F50003CD0F601EF2C8F010F5F1F4F84911BD097
:107F6000EA94F801C1F70894C11CD11CFA94CF0C13
:107F7000D11C0EC0853739F428D08EE10CD085E9AC
:107F80000AD08FE07ACF813511F488E018D01DD067
:107F900080E101D065CF982F8091C00085FFFCCF94
:107FA0009093C60008958091C00087FFFCCF809118
:107FB000C00084FD01C0A8958091C6000895E0E648
:107FC000F0E098E1908380830895EDDF803219F02E
:107FD00088E0F5DFFFCF84E1DECF1F93182FE3DFCA
:107FE0001150E9F7F2DF1F91089580E0E8DFEE27F6
:047FF000FF270994CA
:027FFE00040479
:0400000300007E007B
:00000001FF
