:100000000C9463000C948B000C948B000C9465038F
:100010000C9465030C9465030C948B000C948B007A
:100020000C948B000C948B000C948B000C948B0024
:100030000C948B000C948B000C948B000C948B0014
:100040000C94C3020C948B000C9433030C940D039A
:100050000C948B000C948B000C948B000C948B00F4
:100060000C948B000C948B0000000008000201002F
:100070000003040700000000000000000000000072
:10008000250028002B0000000000240027002A0083
:1000900000000000230026002900040404040404D6
:1000A0000404020202020202030303030303010227
:1000B00004081020408001020408102001020408F6
:1000C0001020DF03080611241FBECFEFD8E0DEBFEB
:1000D000CDBF11E0A0E0B1E0E4EAFCE002C0059091
:1000E0000D92AE35B107D9F722E0AEE5B1E001C01F
:1000F0001D92A736B207E1F710E0C2E6D0E004C0D7
:100100002197FE010E943A06C136D107C9F70E9425
:10011000C5040C9445060C940000CF92DF92EF9238
:10012000FF920F931F93CF93DF936C017A018B01A2
:10013000C0E0D0E0CE15DF0589F0D8016D918D01CA
:10014000D601ED91FC910190F081E02DC601099559
:10015000892B11F47E0102C02196ECCFC701DF91FB
:10016000CF911F910F91FF90EF90DF90CF90089566
:10017000FC01538D448D252F30E0842F90E0821BAD
:10018000930B541710F0CF96089501970895FC0132
:10019000918D828D981761F0828DDF01A80FB11DBE
:1001A0005D968C91928D9F5F9F73928F90E00895E2
:1001B0008FEF9FEF0895FC01918D828D981731F09C
:1001C000828DE80FF11D858D90E008958FEF9FEFF0
:1001D0000895FC01918D228D892F90E0805C9F4FC6
:1001E000821B91098F73992708958BEA91E00E94F1
:1001F000E90021E0892B09F420E0822F0895FC0119
:10020000848DDF01A80FB11DA35ABF4F2C91848D9F
:1002100090E001968F739927848FA689B7892C93D4
:10022000A089B1898C9180648C93938D848D98136F
:1002300006C00288F389E02D80818F7D8083089538
:10024000EF92FF920F931F93CF93DF93EC0181E026
:10025000888F9B8D8C8D981305C0E889F9898081E2
:1002600085FD24C0F62E0B8D10E00F5F1F4F0F731E
:100270001127E02E8C8DE8120CC00FB607FCFACFC8
:10028000E889F989808185FFF5CFCE010E94FF00C2
:10029000F1CF8B8DFE01E80FF11DE35AFF4FF08285
:1002A0000B8FEA89FB898081806207C0EE89FF8914
:1002B0006083E889F98980818064808381E090E0AF
:1002C000DF91CF911F910F91FF90EF900895CF9301
:1002D000DF93EC01888D8823C9F0EA89FB8980814E
:1002E00085FD05C0A889B9898C9186FD0FC00FB620
:1002F00007FCF5CF808185FFF2CFA889B9898C9161
:1003000085FFEDCFCE010E94FF00E7CFDF91CF91B7
:10031000089580E090E0892B29F00E94F50081117A
:100320000C940000089590E0FC01E859FF4F3491CF
:10033000FC01E255FF4F2491FC01E656FF4FE4918A
:10034000EE2309F43BC0332339F1333091F038F414
:100350003130A9F0323001F584B58F7D12C03730CD
:1003600091F03830A1F03430B9F4809180008F7D65
:1003700003C0809180008F77809380000DC084B58A
:100380008F7784BD09C08091B0008F7703C08091C2
:10039000B0008F7D8093B000F0E0EE0FFF1FE458B7
:1003A000FF4FA591B4918FB7F894EC91611103C000
:1003B00020952E2301C02E2B2C938FBF08952091C2
:1003C000A0013091A1012817390771F490919E0185
:1003D00080919F01981741F0E0919E01F0E0E25A70
:1003E000FE4F808190E008958FEF9FEF089508956C
:1003F0001F93CF93DF93DC015C962D913C915D9729
:100400002115310539F481E090E013969C938E9389
:1004100012973DC05196ED91FC91529750969C9148
:100420005097892F80951FB75E964C915E9741FB40
:10043000772770F941FD6095F8944081772311F09A
:10044000492B01C048234083E9012197F1F748E097
:10045000508160FF02C0592B01C058235083E9012D
:100460002197F1F76695415099F7772321F0908114
:100470008923808303C08081982B90831FBF5C9663
:100480008D919C915D970197F1F721E030E0C901D2
:10049000DF91CF911F9108952091A0013091A1018A
:1004A0002817390771F480919F0120919E0190E0F7
:1004B000805C9F4F821B910960E470E00E941206ED
:1004C000089580E090E008952091A0013091A1016D
:1004D00028173907B9F490919E0180919F019817D0
:1004E00089F0E0919E01F0E0E25AFE4F8081209178
:1004F0009E0130E02F5F3F4F2F73332720939E01E3
:1005000090E008958FEF9FEF0895E091A001F091A2
:10051000A101E817F90769F4A389B4899C91858939
:10052000809589238C931092A1011092A00181E003
:10053000089580E00895089580E090E00895CF93B5
:10054000DF93009779F0FC0101900020E9F73197E3
:10055000AF01481B590BBC018BEA91E00E948D0052
:10056000EC0102C0C0E0D0E042E050E065E271E0A2
:100570008BEA91E00E948D008C0F9D1FDF91CF913F
:1005800008950E9440061F920F920FB60F921124F9
:100590002F933F938F939F93AF93BF938091A70126
:1005A0009091A801A091A901B091AA013091A60152
:1005B00023E0230F2D3720F40196A11DB11D05C0A6
:1005C00026E8230F0296A11DB11D2093A60180935A
:1005D000A7019093A801A093A901B093AA018091CB
:1005E000A2019091A301A091A401B091A50101964F
:1005F000A11DB11D8093A2019093A301A093A4011A
:10060000B093A501BF91AF919F918F913F912F9191
:100610000F900FBE0F901F9018951F920F920FB65C
:100620000F9211242F933F934F935F936F937F9378
:100630008F939F93AF93BF93EF93FF938BEA91E0D8
:100640000E94FF00FF91EF91BF91AF919F918F9119
:100650007F916F915F914F913F912F910F900FBEBE
:100660000F901F9018951F920F920FB60F921124A2
:100670002F938F939F93EF93FF93E091BB01F091A2
:10068000BC018081E091C101F091C20182FD12C0E4
:1006900090818091C4018F5F8F732091C501821773
:1006A00051F0E091C401F0E0E555FE4F958F809345
:1006B000C40101C08081FF91EF919F918F912F9193
:1006C0000F900FBE0F901F9018951F920F920FB6AC
:1006D0000F9211242F933F934F935F936F937F93C8
:1006E0008F939F93AF93BF93EF93FF93E091A001FC
:1006F000F091A101309709F451C0968DA685B78578
:10070000858591FF04C09C91892329F447C09C9161
:10071000892309F043C0A389B4899C918589809578
:1007200089238C93868997890197F1F7608D718D64
:10073000A685B785558538E020E0CB010197F1F714
:10074000822F90E095958795282F4C91452309F0AD
:100750002068315091F7868D81FD209580919F0111
:1007600090E001968F73992730919E01381749F0D8
:10077000A0919F01B0E0A25ABE4F2C9380939F019D
:1007800003C0868D8160868F828D938D0197F1F7EE
:10079000A389B4899C918589892B8C93FF91EF91D2
:1007A000BF91AF919F918F917F916F915F914F9189
:1007B0003F912F910F900FBE0F901F9018950F93A0
:1007C0001F93CF93DF931092AE011092AD0188EE8C
:1007D00093E0A0E0B0E08093AF019093B001A093CC
:1007E000B101B093B20125E031E03093AC01209328
:1007F000AB0125EC30E03093B8012093B70124EC35
:1008000030E03093BA012093B90120EC30E030930E
:10081000BC012093BB0121EC30E03093BE0120935A
:10082000BD0122EC30E03093C0012093BF0126ECE3
:1008300030E03093C2012093C1011092C4011092A4
:10084000C5011092C6011092C70110924B0210927E
:100850004A0280934C0290934D02A0934E02B093B3
:100860004F0287E191E090934902809348021092F1
:100870005F0210925E02109261021092600210926A
:1008800063021092620210926502109264026091FB
:1008900066026E7F6D7F609366026695617081E08F
:1008A00068270E949301EFEAF0E02491EBE9F0E081
:1008B0008491882399F090E0880F991FFC01EA57F2
:1008C000FF4FA591B491FC01E458FF4F859194919D
:1008D0008FB7F894EC91E22BEC938FBFEFEAF0E046
:1008E000E491E0935802EBE9F0E0E491F0E0EE0FE0
:1008F000FF1FE458FF4F8591949190935A02809383
:1009000059020EEA10E0F8012491CAE9D0E0FE0194
:1009100084918823C9F090E0880F991FFC01EA5761
:10092000FF4FA591B49184589F4FFC01459154917C
:100930003FB7F8949C91822F809598239C93FA015D
:100940009081892380833FBF8091660281FD04C02E
:1009500061E080E00E94930110925402F80104913A
:1009600000935502FE01C491EC2FF0E0EE0FFF1F43
:10097000E057FF4F859194919093570280935602D0
:10098000DF91CF911F910F910895789484B5826083
:1009900084BD84B5816084BD85B5826085BD85B523
:1009A000816085BD80916E00816080936E001092A1
:1009B000810080918100826080938100809181001C
:1009C00081608093810080918000816080938000AD
:1009D0008091B10084608093B1008091B00081600B
:1009E0008093B00080917A00846080937A00809137
:1009F0007A00826080937A0080917A00816080938F
:100A00007A0080917A00806880937A001092C10009
:100A1000E091BB01F091BC0182E08083E091B701DD
:100A2000F091B8011082E091B901F091BA018FEC18
:100A300080831092C301E091BF01F091C00186E074
:100A40008083E091BD01F091BE018081806180834F
:100A5000E091BD01F091BE01808188608083E091CA
:100A6000BD01F091BE01808180688083E091BD016D
:100A7000F091BE0180818F7D808388E291E00E94A9
:100A80009F02109263021092620210926102109211
:100A9000600210925F0210925E0285E690E09093F1
:100AA00065028093640290915402963108F057C019
:100AB00021E230E030935F0220935E0223E630E0D3
:100AC000309361022093600222E430E030936302AD
:100AD0002093620220916800983050F031E09E30FF
:100AE00008F430E081E001C0880F3A95EAF701C0D0
:100AF00084E0822B80936800983038F09E3040F07C
:100B0000963148F020E030E008C02DE630E005C026
:100B10002BE630E002C02CE630E030935C022093FC
:100B20005B02983030F481E001C0880F9A95EAF7B3
:100B30000EC0292F30E09E3018F42850310902C031
:100B40002E50310981E001C0880F2A95EAF7809381
:100B50005D0280916402909165020197F1F78091A6
:100B6000620290916302892B21F18091A001909102
:100B7000A10122E088349207E1F0009711F00E9471
:100B80008502809166028E7F8093660210929F019B
:100B900010929E0188E492E09093A1018093A001BD
:100BA000E0915B02F0915C02908180915D02892B63
:100BB000808384E491E00E949F0288E492E00E9496
:100BC0004C02892B59F088E492E00E9464028093E1
:100BD0000001682F8BEA91E00E9420018BEA91E0EE
:100BE0000E94E900892B89F08BEA91E00E94C700FE
:100BF000C82F80930001682F8BEA91E00E942001AA
:100C00006C2F88E492E00E94F8010E948901D5CF00
:100C100087E191E0909349028093480288E492E052
:100C20000C94850297FB072E16F4009407D077FDED
:100C300009D00E94260607FC05D03EF490958195C8
:100C40009F4F0895709561957F4F0895AA1BBB1B18
:100C500051E107C0AA1FBB1FA617B70710F0A61BBC
:100C6000B70B881F991F5A95A9F780959095BC01DD
:100C7000CD010895EE0FFF1F0590F491E02D09942A
:100C800081E090E0F8940C94450610E0C2E6D0E0D4
:100C900004C0FE010E943A062196C336D107C9F767
:040CA000F894FFCFF6
:100CA400200000000020018D00B8006701E900C7A2
:100CB40000DB0000000000F8018D009C02F7014CED
:100CC400026402DF010D0A0041726475696E6F20CF
:100CD400776974682048432D303520697320726524
:100CE40061647900425473657269616C2073746144
:0E0CF40072746564206174203338343030002F
:00000001FF
