:100000000C94FB000C9423010C9423010C94230109
:100010000C9423010C9423010C9423010C942301D0
:100020000C9423010C9423010C9423010C942301C0
:100030000C9423010C9423010C9423010C942301B0
:100040000C9474030C9423010C9489020C946302A5
:100050000C9423010C9423010C9423010C94230190
:100060000C9423010C942301450000820000400001
:1000700020485454502F312E3020353033205365D2
:10008000727669636520556E617661696C61626C38
:10009000650D0A436F6E74656E742D547970653A00
:1000A00020746578742F68746D6C0D0A52657472D3
:1000B000792D41667465723A203630300D0A0D0A8A
:1000C0003C68746D6C3E3C686561643E3C74697468
:1000D0006C653E536572766963652054656D706F1B
:1000E000726172696C7920556E617661696C6162CA
:1000F0006C653C2F7469746C653E3C2F6865616467
:100100003E3C626F64793E3C68333E5468697320BC
:1001100073657276696365206973206375727265B1
:100120006E746C7920756E617661696C61626C6564
:100130003C2F68333E3C703E3C656D3E5468652004
:100140006D61696E207365727665722069732063D4
:10015000757272656E746C79206F66662D6C696E4F
:10016000652E3C6272202F3E506C65617365207471
:10017000727920616761696E206C617465722E3CD2
:100180002F656D3E3C2F703E3C2F626F64793E3C84
:100190002F68746D6C3E0063825363000108000693
:1001A00004000100000000240027002A00000000D5
:1001B00000250028002B00040404040404040402A5
:1001C00002020202020303030303030102040810F4
:1001D00020408001020408102001020408102000C1
:1001E00000000800020100000304070000000000F6
:1001F00000000000C90E11241FBECFEFD8E0DEBF03
:10020000CDBF11E0A0E0B1E0EAEAFEE102C0059056
:100210000D92A039B107D9F724E0A0E9B1E001C0FF
:100220001D92AB38B207E1F710E0CBEFD0E004C08D
:100230002197FE010E942C0FCA3FD107C9F70E94E7
:100240005A080C94530F0C940000CF92DF92EF9257
:10025000FF920F931F93CF93DF936C017A018B0171
:10026000C0E0D0E0CE15DF0589F0D8016D918D0199
:10027000D601ED91FC910190F081E02DC601099528
:10028000892B11F47E0102C02196ECCFC701DF91CA
:10029000CF911F910F91FF90EF90DF90CF90089535
:1002A000FC01538D448D252F30E0842F90E0821B7C
:1002B000930B541710F0CF96089501970895FC0101
:1002C000918D828D981761F0828DDF01A80FB11D8D
:1002D0005D968C91928D9F5F9F73928F90E00895B1
:1002E0008FEF9FEF0895FC01918D828D981731F06B
:1002F000828DE80FF11D858D90E008958FEF9FEFBF
:100300000895FC01918D228D892F90E0805C9F4F94
:10031000821B91098F739927089586EE93E00E94BE
:10032000810121E0892B09F420E0822F0895FC014E
:10033000848DDF01A80FB11DA35ABF4F2C91848D6E
:1003400090E001968F739927848FA689B7892C93A3
:10035000A089B1898C9180648C93938D848D98133E
:1003600006C00288F389E02D80818F7D8083089507
:10037000EF92FF920F931F93CF93DF93EC0181E0F5
:10038000888F9B8D8C8D981305C0E889F9898081B1
:1003900085FD24C0F62E0B8D10E00F5F1F4F0F73ED
:1003A0001127E02E8C8DE8120CC00FB607FCFACF97
:1003B000E889F989808185FFF5CFCE010E949701F8
:1003C000F1CF8B8DFE01E80FF11DE35AFF4FF08254
:1003D0000B8FEA89FB898081806207C0EE89FF89E3
:1003E0006083E889F98980818064808381E090E07E
:1003F000DF91CF911F910F91FF90EF900895CF93D0
:10040000DF93EC01888D8823C9F0EA89FB8980811C
:1004100085FD05C0A889B9898C9186FD0FC00FB6EE
:1004200007FCF5CF808185FFF2CFA889B9898C912F
:1004300085FFEDCFCE010E949701E7CFDF91CF91ED
:10044000089580E090E0892B29F00E948D018111B0
:100450000C9400000895E091DA03F091DB039F0112
:100460002F5F3F4F3093DB032093DA03808308959F
:10047000EF92FF920F931F93CF93DF931F92CDB70D
:10048000DEB7062F142F59830E942B02802F0E9463
:100490002B02E12E5981F52E100F1E1531F0F701B8
:1004A00081917F010E942B02F8CF0F90DF91CF91B5
:1004B0001F910F91FF90EF900895089580E090E0D4
:1004C00008950E94410F1F920F920FB60F921124B0
:1004D0002F933F934F935F936F937F938F939F934C
:1004E000AF93BF93EF93FF9386EE93E00E94970143
:1004F000FF91EF91BF91AF919F918F917F916F91FC
:100500005F914F913F912F910F900FBE0F901F90D1
:1005100018951F920F920FB60F9211242F938F935D
:100520009F93EF93FF93E091F603F091F70380819F
:10053000E091FC03F091FD0382FD12C09081809157
:10054000FF038F5F8F7320910004821751F0E091B9
:10055000FF03F0E0EA51FC4F958F8093FF0301C049
:100560008081FF91EF919F918F912F910F900FBEFE
:100570000F901F90189590E0FC01E152FE4F3491CE
:10058000FC01E553FE4F2491FC01E954FE4FE49138
:10059000EE2309F43BC0332339F1333091F038F4C2
:1005A0003130A9F0323001F584B58F7D12C037307B
:1005B00091F03830A1F03430B9F4809180008F7D13
:1005C00003C0809180008F77809380000DC084B538
:1005D0008F7784BD09C08091B0008F7703C0809170
:1005E000B0008F7D8093B000F0E0EE0FFF1FE35569
:1005F000FE4FA591B4918FB7F894EC91611103C0AF
:1006000020952E2301C02E2B2C938FBF0895CF93BE
:10061000DF9390E0FC01E553FE4F2491FC01E95487
:10062000FE4F8491882361F190E0880F991FFC01AF
:10063000ED55FE4FC591D491FC01E355FE4FA591B8
:10064000B491611109C09FB7F894888120958223E5
:100650008883EC912E230BC0623061F49FB7F8942D
:100660003881822F809583238883EC912E2B2C93C5
:100670009FBF06C08FB7F894E8812E2B28838FBFC9
:10068000DF91CF9108953FB7F8948091E203909164
:10069000E303A091E403B091E50326B5A89B05C050
:1006A0002F3F19F00196A11DB11D3FBFBA2FA92FF1
:1006B000982F8827820F911DA11DB11DBC01CD016E
:1006C00042E0660F771F881F991F4A95D1F708955A
:1006D0002FB7F8946091DE037091DF038091E003FF
:1006E0009091E1032FBF08951F920F920FB60F92C2
:1006F00011242F933F938F939F93AF93BF93809138
:10070000DE039091DF03A091E003B091E10330910B
:10071000DD0323E0230F2D3720F40196A11DB11D29
:1007200005C026E8230F0296A11DB11D2093DD030D
:100730008093DE039093DF03A093E003B093E10383
:100740008091E2039091E303A091E403B091E5036B
:100750000196A11DB11D8093E2039093E303A09342
:10076000E403B093E503BF91AF919F918F913F91C7
:100770002F910F900FBE0F901F9018958F929F9200
:10078000AF92BF92CF92DF92EF92FF921F93CF93DF
:10079000DF93CDB7DEB7A3970FB6F894DEBF0FBED9
:1007A000CDBF6AA37BA30E9448086AA1E62E7BA165
:1007B000F72E10E08AE0882E912CA12CB12CF701A5
:1007C00081917F01282F30E040E050E019A2CE0156
:1007D00081966C01CA01B901A50194010E94FF0E26
:1007E000605DF60162936F012115310541055105E8
:1007F00089F7CF010E944808133059F0E091E603D1
:10080000F091E7030190F081E02D6EE286EE93E037
:1008100009951F5F143099F685E591E00E9448081C
:10082000A3960FB6F894DEBF0FBECDBFDF91CF9178
:100830001F91FF90EF90DF90CF90BF90AF909F906F
:100840008F900895DC0196E0FB0101900D929A953E
:10085000E1F70895FB014081518162817381FC01C0
:1008600040835183628373830895CF93DF93EB01B9
:1008700044E050E0BC018CEC91E00E94460F892BD3
:1008800039F466EC71E0CE010E94220481E001C0DF
:1008900080E0DF91CF9108958091C00190E0982F82
:1008A00088272091C101822B44972091DE0130E0FE
:1008B00044E0359527954A95E1F7220F331F220F23
:1008C000331F821B930B97FF02C080E090E00895D6
:1008D0002091D4013091D2013093D4012093D201E0
:1008E0002091D5013091D3013093D5012093D301CC
:1008F0002AED31E0AEEDB1E0F9014291840F911D96
:100900004E918C93662311F0408301C01082892F91
:10091000992744E04E0F4213F0CF1092E20110925B
:10092000E30180E58093DE010895BC0180EB91E056
:100930000E9422046AE971E086EB91E00C942204A3
:10094000CF93DF9300D0CDB7DEB769837A830E945F
:10095000950469817A818EEC91E00E942A0467E80F
:1009600074E08AEC91E00F900F90DF91CF910C949E
:100970002A040F931F93CF93DF9370E060557E4F4F
:10098000213021F48A01075F1F4F0CC0223039F05B
:1009900000E010E09801DB011196EA0106C08A012F
:1009A0000250110920E030E0F6CFC230D10578F0D6
:1009B000FD013197E081F0E0FE2FEE279C91E92BBD
:1009C0000E0F1F1F211D311D22971296EECFFA0127
:1009D000EE7FE60FF71F40FF0CC0408150E060E063
:1009E00070E0762F652F542F4427040F151F261F04
:1009F000371FA90166277727411551056105710544
:100A000019F022273327F1CF00951095E82FF0E059
:100A1000E055FE4F10830183DF91CF911F910F911D
:100A20000895E0EBF1E0108E118E80E4848B158A3E
:100A3000868B20E044E150E06EE088E10C94B9043C
:100A400086EB91E00E9495046AEC71E08EEC91E0F7
:100A50000E942A0467E874E08AEC91E00E942A046C
:100A60000C9411058EBD0DB407FEFDCF089561E015
:100A7000809190010E94BB0278940895F89460E000
:100A8000809190010C94BB020F931F93CF93DF933F
:100A9000EC018B010E943E052097B9F08AE30E9489
:100AA00032051EBCF801CE01019739F00DB407FEE6
:100AB000FDCF2EB51EBC2193F7CF2197C00FD11FBC
:100AC0000DB407FEFDCF8EB58883DF91CF911F91C6
:100AD0000F910C943705CF93DF9300D01F92CDB7C1
:100AE000DEB74B836A8389830E943E056A816F71FA
:100AF0008981862B0E9432054B81842F0E9432050A
:100B00000F900F900F90DF91CF910C9437051F93AA
:100B1000CF93DF93182F1076C12FD0E02091DC0304
:100B200030E0C217D307A1F043E06FE180EA0E94F2
:100B30006B051093DC03AE0185E0559547958A95CA
:100B4000E1F76FE180E8DF91CF911F910C946B0585
:100B5000DF91CF911F9108951F93CF93DF931F9241
:100B6000CDB7DEB7182F69830E9487054981612FB1
:100B700080E40F90DF91CF911F910C946B051F9330
:100B8000CF93DF931F92CDB7DEB7182F79830E94E2
:100B9000AC057981672F81E0810F0F90DF91CF91B4
:100BA0001F910C94AC051F93CF93DF931F92CDB789
:100BB000DEB7182F0E9487050E943E05812F8F7196
:100BC0000E94320580E00E94320517FF03C080E0DA
:100BD0000E9432058EB589830E94370589810F9066
:100BE000DF91CF911F910895CF93DF93EC0140E8FF
:100BF0006FE180E80E946B0540E86FE180EA0E94A7
:100C00006B054AE06CE180EA0E946B0560E07CE0E5
:100C100082E00E94BF05BE01745F86E00E94BF05AE
:100C200040E060E08AE70E946B050E943E05209745
:100C300051F40E94370548E06FE180E80E946B059F
:100C4000C0E0D0E01CC08AE70E9432058091B0016C
:100C50008EBDE1EBF1E0C055DE4FEC17FD0731F042
:100C600081910DB407FEFDCF8EBDF7CF0DB407FE09
:100C7000FDCFDFCF2196C83E83E0D80729F08CE175
:100C80000E94D3058A70B1F38CE10E94D30581FDE7
:100C900003C0C83ED34039F448E06FE180EADF91F9
:100CA000CF910C946B05DF91CF9108950F931F9313
:100CB000CF938C0181E391E00E949504E0EBF1E099
:100CC00088E08487C6E0C58748E050E06BE971E0C2
:100CD0008EEB91E00E94F60EE0EDF1E0DF011D9257
:100CE000CA95E9F76AE971E086EC91E00E94220476
:100CF000B80186ED91E00E942A0467E874E08CEC6C
:100D000091E00E942A048AE290E0CF911F910F9116
:100D10000C94F4050F931F93CF93DF938C01889667
:100D2000C0EBD1E0988B898B0E9411051AAA1BAAEF
:100D3000A801445E5F4F22E06AE182E30E94B904A9
:100D4000C801C696DF91CF911F910F910C94F405C5
:100D5000262F20612093DF01643021F0009711F4E9
:100D600081E090E061E00E9468041092C00188E296
:100D70008093C1010E94200584E08093E0011092DD
:100D8000E10122E04CE150E06AE182E30E94B90413
:100D900086E390E00C94F405CF92DF92EF92FF92FD
:100DA0000F931F938634910568F12091D30123346A
:100DB00049F5C090DE01D090DF01E090E001F090B5
:100DC000E1010091950110919601209197013091D8
:100DD0009801C016D106E206F306A1F4EAECF2E0AF
:100DE00080559E4F9F012E5F3F4F4181508155336B
:100DF00019F45281561741F0F901E40FF11DE8177B
:100E0000F90780F380E001C081E01F910F91FF900E
:100E1000EF90DF90CF900895FF920F931F93CF93A1
:100E2000DF938C0186E191E0E0EBF1E0DF019C01D2
:100E30001D9221503040E1F780919901833019F0E3
:100E4000C1E3D1E002C0C1E9D1E0CE010E942A088D
:100E5000BE01882319F084EA91E002C08AEA91E099
:100E60000E94A0048881807F803E91F088819981D2
:100E7000AA81BB818F3F9F4FAF4FBF4F49F044E0E6
:100E800050E0BE0180EA91E00E94460F892B31F4C8
:100E900061E371E080EB91E00E94220488E080939E
:100EA000BC011092BD0149E050E068E670E08EEBB5
:100EB00091E00E94F60E1092C00181E18093C7017B
:100EC0001092D40183E48093D5011092D20184E47E
:100ED0008093D3011092D6011092D8011092D901BB
:100EE00061E371E080EB91E00E94220481E0809355
:100EF000DA018093DB0186E08093DC01809195012B
:100F000090919601A0919701B09198018093DE0194
:100F10009093DF01A093E001B093E10180919901EA
:100F2000833031F467E874E086EE91E00E942A0491
:100F30006AE971E086EF91E00E94220486EC92E07B
:100F40009093DB038093DA03C7E9D1E0FC2E84E0C1
:100F5000F80EFE0184910E942B022196FC12F9CF1B
:100F600085E30E942B0281E00E942B02809199016F
:100F7000882311F083E001C081E00E942B028DE301
:100F80000E942B0287E00E942B0281E00E942B022C
:100F9000CAE9D1E0FC2E26E0F20EFC1621F0899180
:100FA0000E942B02FACF80911001882371F0E0E1BA
:100FB000F1E001900020E9F73197BF0160517140E5
:100FC00040E151E08CE00E9438020115110559F012
:100FD000A80164E082E30E94380241E951E064E044
:100FE00086E30E94380287E30E942B0283E00E947E
:100FF0002B0281E00E942B0283E00E942B0286E0FC
:101000000E942B028FEF0E942B02C091DA03D09135
:10101000DB03CA5DD140CE014C969093C001809312
:10102000C1010E941105CE0108969093D6018093CC
:10103000D701AE01405F5F4F21E06AE188E20E9484
:10104000B904CE018A96DF91CF911F910F91FF9045
:101050000C94F405CF93DF93209187042223A1F011
:10106000FC012081222381F0A7E8B4E0C3E8D4E0AA
:101070008D91219199918227892331F484E0AB38B5
:10108000B807B1F781E001C080E0DF91CF9108950A
:10109000009769F0FC0101900020E9F73197AF015A
:1010A000481B590BBC0186EE93E00C94250180E0AF
:1010B00090E00895CF93DF93CDB7DEB72A970FB6B0
:1010C000F894DEBF0FBECDBF789484B5826084BD36
:1010D00084B5816084BD85B5826085BD85B581603C
:1010E00085BD80916E00816080936E0010928100BA
:1010F0008091810082608093810080918100816075
:101100008093810080918000816080938000809135
:10111000B10084608093B1008091B00081608093C1
:10112000B00080917A00846080937A0080917A0088
:10113000826080937A0080917A00816080937A0047
:1011400080917A00806880937A001092C100E091CB
:10115000F603F091F70382E08083E091F603F091CB
:10116000F7031082E091F203F091F3031082E09113
:10117000F403F091F50380E180831092FE03E09187
:10118000FA03F091FB0386E08083E091F803F0918D
:10119000F903808180618083E091F803F091F90385
:1011A000808188608083E091F803F091F903808169
:1011B00080688083E091F803F091F90380818F7D4E
:1011C000808389E491E00E94480885E591E00E94CF
:1011D00048081092D70387E390E001E010E020E098
:1011E00030E00097D1F0FC01A3E0F595E795AA95D2
:1011F000E1F7EC55FC4F482F47706801790104C0B6
:10120000CC0CDD1CEE1CFF1C4A95D2F7B701A601E1
:10121000A0814A2B40830197E4CF68E071E08AE91E
:1012200091E00E94220484EF91E09093AC038093BC
:10123000AB030CB406FC25C061E08AE00E94070302
:1012400061E08AE00E94BB0261E08BE00E9407033C
:1012500061E08DE00E94070360E08CE00E940703DC
:1012600061E08BE00E94BB0260E08BE00E94BB0269
:1012700060E08DE00E94BB0280E58CBD8DB5816091
:101280008DBD8AE08093900161E00E9407030E9477
:1012900037054FEF60E08FEF0E946B050E9443031C
:1012A0006B017C01F2E08F2E912CA12CB12C0E94BD
:1012B0004303DC01CB018C199D09AE09BF09883EAF
:1012C0009340A105B10598F328EEC20E23E0D21E8B
:1012D000E11CF11C8A9489288A288B2829F0812C0A
:1012E000912C54018394E3CF0E943E058DE10E942E
:1012F000320580E00E9432051EB50E943705112399
:1013000099F360E070E088E00E94BF0560E070E063
:101310008CE00E94BF056FEF7BE08AE00E94BF0572
:1013200060E07CE084E00E94BF056FEF71E186E041
:101330000E94BF0561EB88E30E94AC056FE370E398
:1013400088E20E94BF0569EF77EF80E30E94BF0546
:101350006DE080EC0E94AC0560E081EC0E94AC0581
:1013600042E362EC80E80E946B0562E17CE086EC7F
:101370000E94BF0562E184EC0E94AC056CED75E053
:101380008AEC0E94BF0560919A0184EE0E94AC0530
:1013900060919B0185EE0E94AC0560919C0182EEFC
:1013A0000E94AC0560919D0183EE0E94AC056091A6
:1013B0009E0180EE0E94AC0560919F0181EE0E942B
:1013C000AC0560E184ED0E94AC0560E071E086ED63
:1013D0000E94BF058AEE0E94D30580FDFBCF8FE1FE
:1013E0000E94870540EC6BE180E80E946B0544E0B9
:1013F0006FE180E80E946B0582E70E94D30586308A
:1014000008F08F5F811108C088E591E00E944808CC
:1014100085E591E00E9448081092D70364E071E0EE
:1014200087E894E00E942A0481E08093D60360E07C
:1014300071E080ED93E00E942A0423E834E060EA42
:1014400071E0E7E8F4E044E04E0F9191D9018D910D
:101450009D018095892BDB018D93BD014E13F5CF46
:101460001092D5031092D40367E874E08DE791E001
:101470000E94BE0360ED73E083E891E00E94BE032A
:101480006BEC73E089E891E00E94BE03332433944F
:1014900073E0272EC090BF03D090C003E090BD033F
:1014A000F090BE03F886EF8256018090C1039090C1
:1014B000C2038091AF03882389F06091AD037091DE
:1014C000AE036115710519F46FEF7BE002C0615046
:1014D00071098CE00E94BF051092AF0389E30E945E
:1014E000D3058823C1F16091AD037091AE0380E014
:1014F0000E94BF05BE016F5F7F4F86E090E00E94B3
:10150000440589819A819093AE038093AD030B814A
:101510001C818091AB039091AC032D8127FF0DC0FE
:101520000197045011098017910708F48C0160EBB2
:1015300071E0C8010E94440502C000E010E0F8011B
:10154000E055FE4F10823092AF0340E46EE180E838
:101550000E946B0502C000E010E08091D703882351
:1015600009F43FC180919901823009F489C030F4B7
:10157000882381F1813009F44EC033C1833021F0DA
:10158000843009F47DC02DC14090B9035090BA0356
:101590006090BB037090BC032FEF421652066206A8
:1015A000720609F41EC10E9468032091B5033091B0
:1015B000B6034091B7035091B803DC01CB01821B05
:1015C000930BA40BB50B84159505A605B70508F07C
:1015D00018C207C10E946803609395017093960139
:1015E0008093970190939801109287041092880439
:1015F0001092890410928A0480E090E00E940C0707
:1016000088E30E94D305682F616088E30E94AC05DF
:10161000309299012AC062E0C8010E94CC0688235A
:10162000A9F16AEE71E0CE0101960E942A04EAEC6B
:10163000F2E0C80180559E4FBF016E5F7F4F218150
:101640003081363329F481E991E00E942A0406C0F2
:10165000FB01E20FF11DE817F90770F3CE010196C7
:101660000E940C0782E0809399010E9468036093B6
:10167000B1037093B2038093B3039093B403B1C0EA
:1016800065E0C8010E94CC06811119C00E94680360
:101690002091B1033091B2034091B3035091B40350
:1016A000DC01CB01821B930BA40BB50B813197425C
:1016B000A105B10508F495C01092990192C08091DE
:1016C000B003811108C088E30E94D305682F6E7FA4
:1016D00088E30E94AC056AEE71E087E894E00E941E
:1016E0002A04EAECF2E0C80180559E4F2C017F01EC
:1016F00092E0E90EF11CA181A98780818630A9F0D2
:1017000048F4813071F0833009F045C0B70180EDB5
:1017100093E00EC08A3379F08F3FD9F18333D9F546
:101720000AC0B70183E894E003C0B7018BEC93E0F3
:101730000E942A0430C0D701369620E030E0A9018B
:101740008D91742F632F522F44279A01AB01280FDC
:10175000311D411D511DAE17BF0791F72093B903ED
:101760003093BA034093BB035093BC032F3FBFEFAA
:101770003B074B075B0779F0A8EEB3E00E94210F0F
:101780006093B9037093BA038093BB039093BC0337
:1017900002C081E001C080E0F7012985E20FF11D60
:1017A000811104C0E415F50508F4A1CF0E94680377
:1017B0006093B5037093B6038093B7039093B80317
:1017C0008091D003882359F01092D5031092D4034E
:1017D0003092D60360ED73E0CB010E942A04209280
:1017E00099010115110509F0BCC08091D6038570DF
:1017F000E1F08091D4039091D503892BB1F461E19C
:1018000084ED0E94AC0561E082ED0E94AC058AEE99
:101810000E94D30580FDFBCF60E082ED0E94AC0505
:1018200089ED0E94D30582FDF2C08091D40390918E
:10183000D50301969093D5038093D4038091CF0371
:10184000813009F06FC08091D60381FF6BC082E0C8
:101850008093CF0380910F018F5F80930F01182F2A
:101860001F7185EC93E00E942A0865EC73E08823E1
:1018700019F084EA91E002C08AEA91E00E94A00493
:1018800008E00093BC011092BD0149E050E068E619
:1018900070E08EEB91E00E94F60E8CE28093C10125
:1018A00086E08093C7010E9411051092D401109226
:1018B000D5018BE08093D2011093D301E6EDF1E0E6
:1018C000DF011D920A95E9F780910E018093D801FE
:1018D0008D5F80930E0180E68093DE0182E080932D
:1018E000DF012092E0011092E1011092E2011092DA
:1018F000E3011092E4011092E5018093E60194E087
:101900009093E7018093E80186E28093E90122E069
:1019100040E250E06AE182E30E94B9048AE390E089
:101920000E94F4058BEC93E00E942A08882349F07A
:101930008091CA03811105C08091C903882309F4ED
:1019400070C085EC93E00E942A08882309F456C0F1
:101950008091C403811152C08091C30381114EC094
:1019600067C00932110508F449C08091BC01883074
:1019700009F044C08091BD01863009F094C044E074
:1019800050E067E874E086ED91E00E94460F892BF5
:10199000A9F58091C501813029F586EB91E00E947F
:1019A00095041092C40182E08093C50166EC71E059
:1019B00080ED91E00E9422046AE971E086EC91E0FA
:1019C0000E9422046CEC71E086ED91E00E942A04F2
:1019D00067E874E08CEC91E00E942A048AE290E0CF
:1019E0000E94F4058091D60383FD29C08091CA032B
:1019F000882391F18091C4038823D9F10E942102A8
:101A000058CD87E894E00E940C0784E02CCE80ED4E
:101A100093E00E9456068091D60388608093D60397
:101A200004CF8BEC93E00E9456063092C90389CF15
:101A300085EC93E00E9456063092C303DFCF1091ED
:101A4000C501123099F66AEA71E080ED93E00E94D8
:101A50003504811120C0CACF8091C903882351F277
:101A600064EA71E08BEC93E00E943504811116C0AA
:101A7000C1CF8091C303882309F264EA71E085EC49
:101A800093E00E943504882309F4B8CF3092C40350
:101A90001092C303B3CF1093D603A8CF3092CA03DA
:101AA0001092C903A7CF0932110509F4A7CF8111FC
:101AB000A5CF8091BE01853409F0A0CF44E050E06D
:101AC00067E874E08EEC91E00E94460F892BA9F044
:101AD00044E050E060EA71E08EEC91E00E94460F35
:101AE000892B59F044E050E061E371E08EEC91E025
:101AF0000E94460F892B09F081CF8091C701813068
:101B0000F1F48091D201883009F078CF81149104EA
:101B100021F08AEC91E0F40109950E9420051092D1
:101B2000D2018091D401883F28F09091D5019F5F28
:101B30009093D501885F8093D401C801ECC006332F
:101B4000110508F45BCF863009F058CF8091D4019D
:101B50008B3009F09DC044E050E065EC73E08AEC06
:101B600091E00E94460F892B09F048CF2091DF01B8
:101B700022FF11C0A114B10461F08091D50120E0D1
:101B800030E040E050E063E0829586958770F50193
:101B9000099585E067C02A870E944C047C018091EA
:101BA000CF032A85823051F5822F80712271223134
:101BB000D1F460E080E090E00E94A80688E1809384
:101BC000DF01EF80F884E114F10441F08091D3014A
:101BD000829586958770F701099502C080E090E0B4
:101BE0002092CF03D3C03092CF03811103C0C7012D
:101BF000019602C080E090E064E0C5C08330A9F5A2
:101C0000E114F104A9F1C114D10491F18091DE0134
:101C100090E044E0959587954A95E1F7880F991FE4
:101C2000880F991F8296A80148505109841795077B
:101C300008F4AC01C701840F951F0817190720F499
:101C40009801241B350B01C097018091D50160E0FC
:101C5000829586958770F601099569E0C7010E9413
:101C6000A80686E08093CF03C9CE853009F4C6CE9E
:101C700020FF07C0833009F4C1CE69E0C701019697
:101C8000EECFE114F10409F4B9CE60E0C7017BC0E6
:101C90008111B4CE8091D501803509F0AFCEF0909E
:101CA000DF01F1FE3BC01092C0018CE28093C101C4
:101CB0000E94200582E18093DF0160E081E090E0F6
:101CC0000E9468041092D6011092D70180910E01F3
:101CD0008093D8011092D9018D5F80930E0182E02C
:101CE0008093E60184E08093E70185E08093E8013A
:101CF0001092E90190E69093DE018093E00188E77D
:101D00008093E10122E040E250E06AE182E30E9438
:101D1000B9048AE390E00E94F40570CEF4FE6ECE22
:101D20000E944C049093D9038093D803892B31F1FE
:101D30008091DE0190E024E0959587952A95E1F762
:101D4000880F991F880F991F82960817190708F4A2
:101D500055CE46E251E061E770E086EE91E00E94E8
:101D6000F60E60E08091D8039091D9030E94A806F6
:101D700089E18093DF0185E291E008C0F0FE3ECE6C
:101D800060E080E090E00E94A80638CE0E948A06BB
:101D900035CEE6EEF3E01382128288EE93E0A0E007
:101DA000B0E084839583A683B7838BE391E091832E
:101DB000808385EC90E09587848784EC90E097871A
:101DC000868780EC90E0918B808B81EC90E0938B08
:101DD000828B82EC90E0958B848B86EC90E0978BE5
:101DE000868B118E128E138E148E0895FB01DC01EA
:101DF00002C005900D9241505040D8F70895A1E2DD
:101E00001A2EAA1BBB1BFD010DC0AA1FBB1FEE1F74
:101E1000FF1FA217B307E407F50720F0A21BB30BBF
:101E2000E40BF50B661F771F881F991F1A9469F73B
:101E300060957095809590959B01AC01BD01CF0197
:101E400008950E94320FA59F900DB49F900DA49FFE
:101E5000800D911D11240895EE0FFF1F0590F49140
:101E6000E02D0994A29FB001B39FC001A39F700D04
:101E7000811D1124911DB29F700D811D1124911D92
:101E8000089581E090E0F8940C94530FFB01DC017D
:101E900004C08D910190801921F441505040C8F741
:0A1EA000881B990B0895F894FFCFFA
:101EAA00C0A80101C0A801C87469692D30310A01AE
:101EBA0041726475696E6F2D454E4332386A363009
:101ECA002D3030000000000000000000000000007B
:101EDA0000FFFFFFFFFFFF00000000B801250150CF
:101EEA0001FF0181015F0173010A5B6261636B5348
:101EFA006F6F6E5D000D0A004661696C656420743F
:101F0A006F206163636573732045746865726E65DB
:101F1A007420636F6E74726F6C6C65720049503A0C
:101F2A0020200047573A202000444E533A20000010
:00000001FF
