:100000000C945D000C9485000C9485000C94850084
:100010000C9485000C9485000C9485000C9485004C
:100020000C9485000C9485000C9485000C9485003C
:100030000C9485000C9485000C9485000C9485002C
:100040000C94D9020C9485000C94A7020C948102A4
:100050000C9485000C9485000C9485000C9485000C
:100060000C9485000C94850000000008000201003B
:100070000003040700000000000000000000000072
:10008000250028002B0000000000240027002A0083
:10009000040404040404040402020202020203032E
:1000A0000303030301020408102040800102040836
:1000B0001020010204081020620411241FBECFEF9B
:1000C000D8E0DEBFCDBF11E0A0E0B1E0ECE7F9E0A1
:1000D00002C005900D92AA33B107D9F721E0AAE337
:1000E000B1E001C01D92A13EB207E1F710E0CDE5FD
:1000F000D0E004C02197FE010E94B104CC35D107A5
:10010000C9F70E9423030C94BC040C94000090E0F7
:10011000FC01EC55FF4F2491FC01E057FF4F849107
:10012000882399F090E0880F991FFC01EA57FF4F50
:10013000A591B491FC01E458FF4F859194918FB73C
:10014000F894EC91E22BEC938FBF0895E2E7F0E096
:100150002491EEEAF0E09491EAE9F0E0E491EE23F4
:1001600009F43BC0222339F1233091F038F42130D7
:10017000A9F0223001F524B52F7D12C0273091F06F
:100180002830A1F02430B9F4209180002F7D03C0E5
:10019000209180002F77209380000DC024B52F7709
:1001A00024BD09C02091B0002F7703C02091B0007A
:1001B0002F7D2093B000F0E0EE0FFF1FE458FF4FBB
:1001C000A591B4912FB7F894EC91811103C090954B
:1001D0009E2301C09E2B9C932FBF0895CF92DF9248
:1001E000EF92FF920F931F93CF93DF936C017A01ED
:1001F0008B01C0E0D0E0CE15DF0589F0D8016D910C
:100200008D01D601ED91FC910190F081E02DC601A8
:100210000995892B11F47E0102C02196ECCFC7010C
:10022000DF91CF911F910F91FF90EF90DF90CF90D2
:100230000895089580E090E00895FC01538D448D69
:10024000252F30E0842F90E0821B930B541710F081
:10025000CF96089501970895FC01918D828D98178E
:1002600061F0828DDF01A80FB11D5D968C91928D9A
:100270009F5F9F73928F90E008958FEF9FEF089597
:10028000FC01918D828D981731F0828DE80FF11D60
:10029000858D90E008958FEF9FEF0895FC01918D7B
:1002A000228D892F90E0805C9F4F821B91098F7374
:1002B0009927089584E491E00E944E0121E0892B62
:1002C00009F420E0822F0895FC01848DDF01A80F3E
:1002D000B11DA35ABF4F2C91848D90E001968F736E
:1002E0009927848FA689B7892C93A089B1898C918D
:1002F00080648C93938D848D981306C00288F38953
:10030000E02D80818F7D80830895EF92FF920F937F
:100310001F93CF93DF93EC0181E0888F9B8D8C8DB1
:10032000981305C0E889F989808185FD24C0F62EDF
:100330000B8D10E00F5F1F4F0F731127E02E8C8D78
:10034000E8120CC00FB607FCFACFE889F989808162
:1003500085FFF5CFCE010E946401F1CF8B8DFE01A8
:10036000E80FF11DE35AFF4FF0820B8FEA89FB89FA
:100370008081806207C0EE89FF896083E889F989FE
:1003800080818064808381E090E0DF91CF911F9134
:100390000F91FF90EF900895CF93DF93EC01888D3C
:1003A0008823C9F0EA89FB89808185FD05C0A88979
:1003B000B9898C9186FD0FC00FB607FCF5CF8081FF
:1003C00085FFF2CFA889B9898C9185FFEDCFCE0149
:1003D0000E946401E7CFDF91CF91089580E090E023
:1003E000892B29F00E945A0181110C940000089574
:1003F0003FB7F89480913F0190914001A091410155
:10040000B091420126B5A89B05C02F3F19F0019677
:10041000A11DB11D3FBFBA2FA92F982F8827820F8A
:10042000911DA11DB11DBC01CD0142E0660F771FDA
:10043000881F991F4A95D1F708958EBD00000DB40D
:1004400007FEFDCF8EB5EBE4F0E03197F1F70895AC
:10045000009769F0FC0101900020E9F73197AF01A6
:10046000481B590BBC0184E491E00C94EE0080E041
:1004700090E00895CF92DF92EF92FF920F931F9337
:10048000CF93DF93CDB7DEB7A1970FB6F894DEBF59
:100490000FBECDBF282F30E040E050E019A28E0102
:1004A0000F5D1F4F8AE0C82ED12CE12CF12CCA0120
:1004B000B901A70196010E948F04605DF801629363
:1004C0008F01211531054105510589F7CF010E94A2
:1004D00028028C0182E191E00E942802800F911F86
:1004E000A1960FB6F894DEBF0FBECDBFDF91CF91BE
:1004F0001F910F91FF90EF90DF90CF9008950E9491
:10050000B7041F920F920FB60F9211242F933F93AF
:100510004F935F936F937F938F939F93AF93BF930B
:10052000EF93FF9384E491E00E946401FF91EF91C7
:10053000BF91AF919F918F917F916F915F914F91FB
:100540003F912F910F900FBE0F901F9018951F9203
:100550000F920FB60F9211242F938F939F93EF93C7
:10056000FF93E0915401F09155018081E0915A018F
:10057000F0915B0182FD12C0908180915D018F5FDF
:100580008F7320915E01821751F0E0915D01F0E0E0
:10059000EC5BFE4F958F80935D0101C08081FF91E0
:1005A000EF919F918F912F910F900FBE0F901F9001
:1005B00018951F920F920FB60F9211242F933F930D
:1005C0008F939F93AF93BF9380913B0190913C0198
:1005D000A0913D01B0913E0130913A0123E0230FFB
:1005E0002D3720F40196A11DB11D05C026E8230F6B
:1005F0000296A11DB11D20933A0180933B01909377
:100600003C01A0933D01B0933E0180913F01909148
:100610004001A0914101B09142010196A11DB11D7F
:1006200080933F0190934001A0934101B093420118
:10063000BF91AF919F918F913F912F910F900FBEDE
:100640000F901F901895789484B5826084BD84B50E
:10065000816084BD85B5826085BD85B5816085BDBD
:1006600080916E00816080936E0010928100809175
:1006700081008260809381008091810081608093FD
:100680008100809180008160809380008091B10022
:1006900084608093B1008091B00081608093B0004D
:1006A00080917A00846080937A0080917A008260E1
:1006B00080937A0080917A00816080937A008091A3
:1006C0007A00806880937A001092C100E091540112
:1006D000F091550182E08083E0915001F091510149
:1006E0001082E0915201F091530180E180831092D9
:1006F0005C01E0915801F091590186E08083E0911E
:100700005601F0915701808180618083E09156010C
:10071000F0915701808188608083E0915601F091CB
:100720005701808180688083E0915601F0915701E4
:1007300080818F7D808382E191E00E94280281E0A8
:100740000E94A600FFB6F89480914301811123C056
:10075000EAE9F0E08491EEEAF0E09491E82FF0E02D
:10076000EE0FFF1FEA57FF4FA591B491EC91E923DB
:1007700019F481E00E94A6008AE00E9487008CB5EF
:1007800080618CBD8CB580648CBD8DE00E9487003B
:100790008BE00E948700809143018F5F809343012B
:1007A000FFBE8CB58C7F81608CBD8DB581608DBDA9
:1007B00080E00E94A60081E60E941D028AE00E945D
:1007C0001D0281E10E941D02C82E81E20E941D02CD
:1007D000D82E8AE20E941D02E82E80E00E941D02AF
:1007E000F82E81E00E94A60085E191E00E94280297
:1007F00082E191E00E9428028C2D0E943A028D2D08
:100800000E943A028E2D0E943A028F2D0E943A02D7
:1008100080E00E94A60083E70E941D028AE00E94F9
:100820001D0281E10E941D02C82E81E20E941D026C
:10083000D82E8AE20E941D02E82E80E00E941D024E
:10084000F82E81E00E94A60085E291E00E94280235
:1008500082E191E00E9428028C2D0E943A028D2DA7
:100860000E943A028E2D0E943A028F2D0E943A0277
:100870000E94F8014B015C0188EEC82E83E0D82E5F
:10088000E12CF12C0E94F801DC01CB0188199909B7
:10089000AA09BB09883E9340A105B10558F021E0A3
:1008A000C21AD108E108F10888EE880E83E0981E8C
:1008B000A11CB11CC114D104E104F10419F70E9478
:1008C000EE0176CFE4E4F1E01382128288EE93E049
:1008D000A0E0B0E084839583A683B78384E091E0B1
:1008E0009183808385EC90E09587848784EC90E009
:1008F0009787868780EC90E0918B808B81EC90E0ED
:10090000938B828B82EC90E0958B848B86EC90E0CD
:10091000978B868B118E128E138E148E0895A1E202
:100920001A2EAA1BBB1BFD010DC0AA1FBB1FEE1F69
:10093000FF1FA217B307E407F50720F0A21BB30BB4
:10094000E40BF50B661F771F881F991F1A9469F730
:1009500060957095809590959B01AC01BD01CF018C
:100960000895EE0FFF1F0590F491E02D099481E0AA
:0C09700090E0F8940C94BC04F894FFCFC5
:10097C00000000008501EE001D01CC014E012C0190
:10098C0040010D0A00416464696E672072657375DD
:10099C006C74733A005375627472616374696E6738
:0A09AC0020726573756C74733A00D5
:00000001FF
