:100000000C9463000C948B000C948B000C949E0455
:100010000C949E040C949E040C948B000C948B0006
:100020000C948B000C948B000C948B000C948B0024
:100030000C948B000C948B000C948B000C948B0014
:100040000C94FC030C948B000C946C040C944604EC
:100050000C948B000C948B000C948B000C948B00F4
:100060000C948B000C948B000000000024002700EF
:100070002A000000000023002600290000000000E4
:10008000250028002B0004040404040404040202D4
:100090000202020203030303030301020408102007
:1000A0004080010204081020010204081020000012
:1000B0000008000201000003040700000000000027
:1000C000000018050B0611241FBECFEFD8E0DEBFDD
:1000D000CDBF11E0A0E0B1E0E2ECFCE002C0059091
:1000E0000D92A635B107D9F722E0A6E5B1E001C02F
:1000F0001D92AE37B207E1F710E0C2E6D0E004C0CF
:100100002197FE010E944906C136D107C9F70E9416
:1001100052050C9454060C940000CF92DF92EF929B
:10012000FF920F931F93CF93DF936C017A018B01A2
:10013000C0E0D0E0CE15DF0589F0D8016D918D01CA
:10014000D601ED91FC910190F081E02DC601099559
:10015000892B11F47E0102C02196ECCFC701DF91FB
:10016000CF911F910F91FF90EF90DF90CF90089566
:10017000FC01538D448D252F30E0842F90E0821BAD
:10018000930B541710F0CF96089501970895FC0132
:10019000918D828D981761F0828DDF01A80FB11DBE
:1001A0005D968C91928D9F5F9F73928F90E00895E2
:1001B0008FEF9FEF0895FC01918D828D981731F09C
:1001C000828DE80FF11D858D90E008958FEF9FEFF0
:1001D0000895FC01918D228D892F90E0805C9F4FC6
:1001E000821B91098F739927089583EA91E00E94F9
:1001F000E90021E0892B09F420E0822F0895FC0119
:10020000848DDF01A80FB11DA35ABF4F2C91848D9F
:1002100090E001968F739927848FA689B7892C93D4
:10022000A089B1898C9180648C93938D848D98136F
:1002300006C00288F389E02D80818F7D8083089538
:10024000EF92FF920F931F93CF93DF93EC0181E026
:10025000888F9B8D8C8D981305C0E889F9898081E2
:1002600085FD24C0F62E0B8D10E00F5F1F4F0F731E
:100270001127E02E8C8DE8120CC00FB607FCFACFC8
:10028000E889F989808185FFF5CFCE010E94FF00C2
:10029000F1CF8B8DFE01E80FF11DE35AFF4FF08285
:1002A0000B8FEA89FB898081806207C0EE89FF8914
:1002B0006083E889F98980818064808381E090E0AF
:1002C000DF91CF911F910F91FF90EF900895CF9301
:1002D000DF93EC01888D8823C9F0EA89FB8980814E
:1002E00085FD05C0A889B9898C9186FD0FC00FB620
:1002F00007FCF5CF808185FFF2CFA889B9898C9161
:1003000085FFEDCFCE010E94FF00E7CFDF91CF91B7
:10031000089580E090E0892B29F00E94F50081117A
:100320000C940000089590E0FC01E255FF4F3491D9
:10033000FC01E656FF4F2491FC01EA57FF4FE49180
:10034000EE2309F43BC0332339F1333091F038F414
:100350003130A9F0323001F584B58F7D12C03730CD
:1003600091F03830A1F03430B9F4809180008F7D65
:1003700003C0809180008F77809380000DC084B58A
:100380008F7784BD09C08091B0008F7703C08091C2
:10039000B0008F7D8093B000F0E0EE0FFF1FE458B7
:1003A000FF4FA591B4918FB7F894EC91611103C000
:1003B00020952E2301C02E2B2C938FBF08952091C2
:1003C0009801309199012817390771F4909197019C
:1003D00080919601981741F0E0919701F0E0EA5A78
:1003E000FE4F808190E008958FEF9FEF089508956C
:1003F0001F93CF93DF93DC015C962D913C915D9729
:100400002115310539F481E090E013969C938E9389
:1004100012973DC05196ED91FC91529750969C9148
:100420005097892F80951FB75E964C915E9741FB40
:10043000772770F941FD6095F8944081772311F09A
:10044000492B01C048234083E9012197F1F748E097
:10045000508160FF02C0592B01C058235083E9012D
:100460002197F1F76695415099F7772321F0908114
:100470008923808303C08081982B90831FBF5C9663
:100480008D919C915D970197F1F721E030E0C901D2
:10049000DF91CF911F91089520919801309199019A
:1004A0002817390771F4809196012091970190E007
:1004B000805C9F4F821B910960E470E00E942106DE
:1004C000089580E090E0089520919801309199017D
:1004D00028173907B9F490919701809196019817E0
:1004E00089F0E0919701F0E0EA5AFE4F8081209177
:1004F000970130E02F5F3F4F2F73332720939701F1
:1005000090E008958FEF9FEF0895AF92BF92CF9242
:10051000DF92FF920F931F93CF93DF931F92CDB77C
:10052000DEB75C01F62EFC011382128288EE93E0A6
:10053000A0E0B0E084839583A683B78384E091E054
:1005400091838083178A168A118E108E138E128ED5
:10055000158E148E668D6E7F20FB61F9668F669511
:10056000617081E06827842F49830E94930149814B
:1005700050E0BA0166567F4FFB01A4914A575F4F86
:10058000FA0184918823A9F090E0880F991F9C01BB
:1005900028593F4FF9010591149184589F4FFC0150
:1005A000259134918FB7F894F8019081A92BA083FD
:1005B0008FBFFB016491F501608BFA014491E42F38
:1005C000F0E0EE0FFF1FE458FF4F85919491F50185
:1005D000928B818B0F2D10E0C80186569F4F6C01C6
:1005E000FC0184910A571F4FF80124912223C1F086
:1005F00030E0220F331FF901E859FF4FA591B49164
:1006000024583F4FF901459154912FB7F8949C918C
:10061000809598239C93FA019081892380832FBF32
:10062000F501868D81FD04C061E08F2D0E9493014C
:10063000F501F486F601C490F501C586F801049130
:10064000E02FF0E0EE0FFF1FEE58FF4F85919491E1
:10065000F501978786870F90DF91CF911F910F91BA
:10066000FF90DF90CF90BF90AF900895E0919801F8
:10067000F0919901E817F90769F4A389B4899C916D
:100680008589809589238C93109299011092980105
:1006900081E0089580E00895CF93DF93EC018A8D87
:1006A0009B8D892BF1F080919801909199018C1785
:1006B0009D07B9F0009711F00E9436038E8D8E7F52
:1006C0008E8F1092960110929701D0939901C0934A
:1006D0009801EB89FC8990818D89892B808381E049
:1006E00001C080E0DF91CF910895FC01138E128E3E
:1006F000118E108E178A168A8DE991E0958F848F5E
:100700008485863108F04DC02DEB30E0378B268B89
:100710002BE931E0318F208F2CE231E0338F228FB3
:1007200090916800883050F021E08E3008F420E08D
:1007300081E001C0880F2A95EAF701C084E0892B87
:10074000809368008485883038F08E3040F08631A0
:1007500048F020E030E008C02DE630E005C02BE690
:1007600030E002C02CE630E0348B238B883030F44C
:1007700091E001C0990F8A95EAF70EC0282F30E06A
:100780008E3018F42850310902C02E50310991E002
:1007900001C0990F2A95EAF7958B848D958D019765
:1007A000F1F7CF010C944C03089580E090E0089598
:1007B000CF93DF93009779F0FC0101900020E9F7D7
:1007C0003197AF01481B590BBC0183EA91E00E94AD
:1007D0008D00EC0102C0C0E0D0E042E050E064E2F5
:1007E00071E083EA91E00E948D008C0F9D1FDF91E4
:1007F000CF9108950E944F061F920F920FB60F924D
:1008000011242F933F938F939F93AF93BF93809126
:100810009F019091A001A091A101B091A2013091FE
:100820009E0123E0230F2D3720F40196A11DB11D59
:1008300005C026E8230F0296A11DB11D20939E013D
:1008400080939F019093A001A093A101B093A20176
:1008500080919A0190919B01A0919C01B0919D0182
:100860000196A11DB11D80939A0190939B01A093C5
:100870009C01B0939D01BF91AF919F918F913F914A
:100880002F910F900FBE0F901F9018951F920F92EF
:100890000FB60F9211242F933F934F935F936F9353
:1008A0007F938F939F93AF93BF93EF93FF9383EACD
:1008B00091E00E94FF00FF91EF91BF91AF919F9156
:1008C0008F917F916F915F914F913F912F910F90F9
:1008D0000FBE0F901F9018951F920F920FB60F9298
:1008E00011242F938F939F93EF93FF93E091B30184
:1008F000F091B4018081E091B901F091BA0182FDDB
:1009000012C090818091BC018F5F8F732091BD01D7
:10091000821751F0E091BC01F0E0ED55FE4F958F4C
:100920008093BC0101C08081FF91EF919F918F91D5
:100930002F910F900FBE0F901F9018951F920F923E
:100940000FB60F9211242F933F934F935F936F93A2
:100950007F938F939F93AF93BF93EF93FF93E09118
:100960009801F0919901309709F451C0968DA685B0
:10097000B785858591FF04C09C91892329F447C0E0
:100980009C91892309F043C0A389B4899C918589EE
:10099000809589238C93868997890197F1F7608DDB
:1009A000718DA685B785558538E020E0CB0101978C
:1009B000F1F7822F90E095958795282F4C9145234C
:1009C00009F02068315091F7868D81FD2095809146
:1009D000960190E001968F7399273091970138170F
:1009E00049F0A0919601B0E0AA5ABE4F2C93809393
:1009F000960103C0868D8160868F828D938D0197CD
:100A0000F1F7A389B4899C918589892B8C93FF91F7
:100A1000EF91BF91AF919F918F917F916F915F9176
:100A20004F913F912F910F900FBE0F901F901895EF
:100A3000E3EAF1E01382128288EE93E0A0E0B0E0F6
:100A400084839583A683B78386E191E09183808335
:100A500085EC90E09587848784EC90E09787868783
:100A600080EC90E0918B808B81EC90E0938B828B7B
:100A700082EC90E0958B848B86EC90E0978B868B54
:100A8000118E128E138E148E20E041E060E08FE50F
:100A900092E00E94850220E043E062E080E492E080
:100AA0000C948502789484B5826084BD84B581609D
:100AB00084BD85B5826085BD85B5816085BD809129
:100AC0006E00816080936E001092810080918100A1
:100AD0008260809381008091810081608093810099
:100AE000809180008160809380008091B10084605B
:100AF0008093B1008091B00081608093B0008091BC
:100B00007A00846080937A0080917A00826080937A
:100B10007A0080917A00816080937A0080917A00D7
:100B2000806880937A001092C100E091B301F09147
:100B3000B40182E08083E091AF01F091B0011082B6
:100B4000E091B101F091B2018FEC80831092BB0172
:100B5000E091B701F091B80186E08083E091B501A2
:100B6000F091B601808180618083E091B501F091C0
:100B7000B601808188608083E091B501F091B60173
:100B8000808180688083E091B501F091B601808119
:100B90008F7D80838FE592E00E94750380E492E070
:100BA0000E94750387E291E00E94D8038FE592E0EE
:100BB0000E944C038FE592E00E944C021816190621
:100BC00074F48EE291E00E94D8038FE592E00E94D7
:100BD0006402682F83EA91E00E942001EBCF80E459
:100BE00092E00E944C0380E492E00E944C021816AE
:100BF000190674F482E491E00E94D80380E492E044
:100C00000E946402682F83EA91E00E942001EBCFEA
:100C10000E948901CBCFCF93DF93C4E0D1E0D09382
:100C20004102C093400280E492E00E943603D093D8
:100C30006002C0935F028FE592E0DF91CF910C9448
:100C4000360397FB072E16F4009407D077FD09D0E2
:100C50000E94350607FC05D03EF4909581959F4F84
:100C60000895709561957F4F0895AA1BBB1B51E1B4
:100C700007C0AA1FBB1FA617B70710F0A61BB70B0C
:100C8000881F991F5A95A9F780959095BC01CD01B1
:100C90000895EE0FFF1F0590F491E02D099481E077
:100CA00090E0F8940C94540610E0C2E6D0E004C042
:100CB000FE010E9449062196C336D107C9F7F89470
:020CC000FFCF64
:100CC20000000000F8018D00D503F7014C02640218
:100CD200DF010000000020018D00B8006701E9007B
:100CE200C700DB000D0A00416C6C204F6B004461B1
:100CF20074612066726F6D20706F7274206F6E6502
:100D02003A00446174612066726F6D20706F727474
:060D12002074776F3A0027
:107E0000112484B714BE81FFF0D085E080938100F7
:107E100082E08093C00088E18093C10086E0809377
:107E2000C20080E18093C4008EE0C9D0259A86E02C
:107E300020E33CEF91E0309385002093840096BBD3
:107E4000B09BFECF1D9AA8958150A9F7CC24DD24C4
:107E500088248394B5E0AB2EA1E19A2EF3E0BF2EE7
:107E6000A2D0813461F49FD0082FAFD0023811F036
:107E7000013811F484E001C083E08DD089C08234E0
:107E800011F484E103C0853419F485E0A6D080C0E4
:107E9000853579F488D0E82EFF2485D0082F10E0AE
:107EA000102F00270E291F29000F111F8ED06801E7
:107EB0006FC0863521F484E090D080E0DECF843638
:107EC00009F040C070D06FD0082F6DD080E0C81688
:107ED00080E7D80618F4F601B7BEE895C0E0D1E017
:107EE00062D089930C17E1F7F0E0CF16F0E7DF06D8
:107EF00018F0F601B7BEE89568D007B600FCFDCFD4
:107F0000A601A0E0B1E02C9130E011968C91119780
:107F100090E0982F8827822B932B1296FA010C0160
:107F200087BEE89511244E5F5F4FF1E0A038BF0790
:107F300051F7F601A7BEE89507B600FCFDCF97BE46
:107F4000E89526C08437B1F42ED02DD0F82E2BD052
:107F50003CD0F601EF2C8F010F5F1F4F84911BD097
:107F6000EA94F801C1F70894C11CD11CFA94CF0C13
:107F7000D11C0EC0853739F428D08EE10CD085E9AC
:107F80000AD08FE07ACF813511F488E018D01DD067
:107F900080E101D065CF982F8091C00085FFFCCF94
:107FA0009093C60008958091C00087FFFCCF809118
:107FB000C00084FD01C0A8958091C6000895E0E648
:107FC000F0E098E1908380830895EDDF803219F02E
:107FD00088E0F5DFFFCF84E1DECF1F93182FE3DFCA
:107FE0001150E9F7F2DF1F91089580E0E8DFEE27F6
:047FF000FF270994CA
:027FFE00040479
:0400000300007E007B
:00000001FF
