:100000000C945D000C9485000C9485000C94850084
:100010000C9485000C9485000C9485000C9485004C
:100020000C9485000C9485000C9485000C9485003C
:100030000C9485000C9485000C9485000C9485002C
:100040000C948A020C9485000C9485000C94850015
:100050000C9485000C9485000C9485000C9485000C
:100060000C9485000C94850000000008000201003B
:100070000003040700000000000000000000000072
:10008000250028002B0000000000240027002A0083
:10009000040404040404040402020202020203032E
:1000A0000303030301020408102040800102040836
:1000B0001020010204081020A10311241FBECFEF5D
:1000C000D8E0DEBFCDBF11E0A0E0B1E0EAE9F7E0A3
:1000D00002C005900D92AA32B107D9F721E0AAE239
:1000E000B1E001C01D92AC34B207E1F710E0CDE5FC
:1000F000D0E004C02197FE010E94C003CC35D10797
:10010000C9F70E94D4020C94CB030C94000090E039
:10011000FC01EC55FF4F2491FC01E057FF4F849107
:10012000882399F090E0880F991FFC01EA57FF4F50
:10013000A591B491FC01E458FF4F859194918FB73C
:10014000F894EC91E22BEC938FBF0895CF92DF925D
:10015000EF92FF920F931F93CF93DF936C017A017D
:100160008B01C0E0D0E0CE15DF0589F0D8016D919C
:100170008D01D601ED91FC910190F081E02DC60139
:100180000995892B11F47E0102C02196ECCFC7019D
:10019000DF91CF911F910F91FF90EF90DF90CF9063
:1001A000089590E0FC01E859FF4F3491FC01EC55B3
:1001B000FF4F2491FC01E057FF4FE491EE2309F437
:1001C0003BC0332339F1333091F038F43130A9F0AA
:1001D000323001F584B58F7D12C0373091F0383060
:1001E000A1F03430B9F4809180008F7D03C08091FC
:1001F00080008F77809380000DC084B58F7784BD99
:1002000009C08091B0008F7703C08091B0008F7DCE
:100210008093B000F0E0EE0FFF1FE458FF4FA59170
:10022000B4918FB7F894EC91611103C020952E23FF
:1002300001C02E2B2C938FBF08953FB7F894809167
:100240002F0190913001A0913101B091320126B57A
:10025000A89B05C02F3F19F00196A11DB11D3FBFFE
:10026000BA2FA92F982F8827820F911DA11DB11D8C
:10027000BC01CD0142E0660F771F881F991F4A9588
:10028000D1F70895CF93DF93EC0160E08E810E9457
:10029000D10061E08E810E94D10060E08E810E94D9
:1002A000D1008BE891E00197F1F7DF91CF910895AC
:1002B000CF92DF92EF92FF920F931F93CF93DF9332
:1002C0007C016C0187E0C80ED11CC0E0D0E0062F95
:1002D00010E0B8010C2E02C0759567950A94E2F7FC
:1002E0006170F60181916F010E94D1002196C430A6
:1002F000D10579F7C701DF91CF911F910F91FF9041
:10030000EF90DF90CF900C944201CF92DF92EF926A
:10031000FF920F931F93CF93DF93EC01F62E642F80
:100320008C810E94D1008D818F3F19F060E00E9486
:10033000D1008F850F2D10E084FF25C06E0187E06E
:10034000C80ED11CE12CF12CB8010E2C02C0759501
:1003500067950A94E2F76170F60181916F010E943E
:10036000D100FFEFEF1AFF0A88E0E816F10461F709
:10037000CE01DF91CF911F910F91FF90EF90DF9011
:10038000CF900C944201B80184E0759567958A95E9
:10039000E1F7CE010E9458016F2DCE01DF91CF9180
:1003A0001F910F91FF90EF90DF90CF900C94580128
:1003B000EF92FF920F931F93CF93DF93EC01623084
:1003C00018F08F8588608F876B8B1C8A80E48D8BFB
:1003D00080E18E8B80E58F8B8C810E9487008D81E0
:1003E0008F3F11F00E9487008E810E9487007E015E
:1003F00087E0E80EF11C00E010E08F8584FD03C06B
:1004000084E090E002C088E090E00817190744F407
:10041000F70181917F010E9487000F5F1F4FEDCF91
:100420008BE39DE00197F1F760E08C810E94D100A1
:1004300060E08E810E94D1008D818F3F19F060E0D5
:100440000E94D1006F8564FD1DC063E0CE010E9453
:1004500058010BE416E4C8010197F1F763E0CE01FF
:100460000E945801C8010197F1F763E0CE010E9494
:10047000580183E592E00197F1F762E0CE010E9416
:10048000580119C0606240E0CE010E9485018BE4F2
:1004900096E40197F1F76F85606240E0CE010E941B
:1004A000850183E592E00197F1F76F85606240E096
:1004B000CE010E9485016F85606240E0CE010E94FE
:1004C000850184E0888B40E06CE0CE010E948501CC
:1004D00040E061E0CE010E9485018BE39FE101973E
:1004E000F1F782E0898B40E066E0CE01DF91CF91A9
:1004F0001F910F91FF90EF900C94850141E00E94B5
:10050000850181E090E00895089580E090E00895ED
:100510000E94C6031F920F920FB60F9211242F93C1
:100520003F938F939F93AF93BF9380912B019091B3
:100530002C01A0912D01B0912E0130912A0123E0D0
:10054000230F2D3720F40196A11DB11D05C026E80B
:10055000230F0296A11DB11D20932A0180932B0128
:1005600090932C01A0932D01B0932E0180912F0127
:1005700090913001A0913101B09132010196A11DFD
:10058000B11D80932F0190933001A0933101B0935E
:100590003201BF91AF919F918F913F912F910F9019
:1005A0000FBE0F901F901895789484B5826084BD1B
:1005B00084B5816084BD85B5826085BD85B5816067
:1005C00085BD80916E00816080936E0010928100E5
:1005D00080918100826080938100809181008160A0
:1005E0008093810080918000816080938000809161
:1005F000B10084608093B1008091B00081608093ED
:10060000B00080917A00846080937A0080917A00B3
:10061000826080937A0080917A00816080937A0072
:1006200080917A00806880937A001092C10062E025
:1006300084E391E00E94D8014DE050E06CE071E06D
:1006400084E391E00E94A60061E08AE00E94D1006C
:10065000CFB7F89480913301811124C0EAE9F0E02A
:100660008491EEEAF0E09491E82FF0E0EE0FFF1FA6
:10067000EA57FF4FA591B491EC91E92321F461E091
:100680008AE00E94D1008AE00E9487008CB58061D8
:100690008CBD8CB580648CBD8DE00E9487008BE0A2
:1006A0000E948700809133018F5F80933301CFBF19
:1006B0008CB58C7F81608CBD8DB581608DBDC0E0B7
:1006C000D0E060E08AE00E94D100EAE1F1E08191AF
:1006D000882339F08EBD00000DB407FEFDCF8EB526
:1006E000F6CF61E08AE00E94D1000E941D014B011B
:1006F0005C0188EEC82E83E0D82EE12CF12C0E94FC
:100700001D01DC01CB0188199909AA09BB09883EA2
:100710009340A105B10558F021E0C21AD108E108C3
:10072000F10888EE880E83E0981EA11CB11CC1144C
:10073000D104E104F10419F7209719F20E94000096
:10074000C0CFE4E3F1E01382128284E091E0918370
:10075000808387E084838FEF858386E0868385E0CE
:10076000878384E0808783E0818782E082871386A5
:10077000148615861686178661E0CF010C94D80181
:10078000EE0FFF1F0590F491E02D099481E090E0B9
:0A079000F8940C94CB03F894FFCF0B
:10079A00000000007E02A6008502840268656C6C77
:1007AA006F2C20776F726C64210048656C6C6F2C1B
:0A07BA0020776F726C64210A0000C2
:00000001FF
