:100000000C94C5000C94ED000C94ED000C94ED00E4
:100010000C94ED000C94ED000C94ED000C94ED00AC
:100020000C94ED000C94ED000C94ED000C94ED009C
:100030000C94ED000C94ED000C94ED000C94ED008C
:100040000C9498040C94ED000C946F0E0C94490ED3
:100050000C94ED000C94ED000C94ED000C94ED006C
:100060000C94ED000C94ED006382536300010800D2
:100070000604000100504F53542024462048545495
:10008000502F312E300D0A486F73743A2024460DDC
:100090000A244624534163636570743A202A2F2A48
:1000A0000D0A436F6E74656E742D4C656E677468CF
:1000B0003A2024440D0A436F6E74656E742D547992
:1000C00070653A206170706C69636174696F6E2F3E
:1000D000782D7777772D666F726D2D75726C656EE2
:1000E000636F6465640D0A0D0A245300474554206C
:1000F0002446245320485454502F312E300D0A48A2
:100100006F73743A2024460D0A24460D0A0D0A0026
:10011000450000820000400020000000002400276D
:10012000002A0000000000250028002B0004040421
:100130000404040404020202020202030303030390
:10014000030102040810204080010204081020016D
:10015000020408102000000008000201000003044F
:100160000700000000000000004163636570743AFE
:1001700020746578742F68746D6C00676F6F676C9E
:10018000652E636F6D000000ED0E11241FBECFEFD2
:10019000D8E0DEBFCDBF11E0A0E0B1E0E4EAF6E2D6
:1001A00002C005900D92A83CB107D9F724E0A8EC55
:1001B000B1E001C01D92A031B207E1F710E0C5EC3B
:1001C000D0E004C02197FE010E941413C43CD10763
:1001D000C9F70E941A0F0C9450130C9400008091E0
:1001E000240290E0982F882720912502822B4497A3
:1001F0002091420230E044E0359527954A95E1F799
:10020000220F331F220F331F821B930B97FF02C055
:1002100080E090E0089520913802309136023093CA
:100220003802209336022091390230913702309300
:100230003902209337022EE332E0A2E4B2E0F90162
:100240004291840F911D4E918C93662311F040834F
:1002500001C01082892F992744E04E0F4213F0CF3E
:10026000109246021092470280E580934202089560
:100270000F931F93CF93DF9370E06C5E7D4F21301F
:1002800021F48A01075F1F4F0CC0223039F000E0D3
:1002900010E09801DB011196EA0106C08A010250C4
:1002A000110920E030E0F6CFC230D10578F0FD0131
:1002B0003197E081F0E0FE2FEE279C91E92B0E0FA5
:1002C0001F1F211D311D22971296EECFFA01EE7FDE
:1002D000E60FF71F40FF0CC0408150E060E070E087
:1002E000762F652F542F4427040F151F261F371F05
:1002F000A90166277727411551056105710519F098
:1003000022273327F1CF00951095E82FF0E0EC5E1F
:10031000FD4F10830183DF91CF911F910F910895BD
:10032000E4E1F2E0108E118E80E4848B158A868BD6
:1003300020E044E150E06EE088E10C943801DC01FB
:100340001696ED91FC9117979F012F5F3F4F1796DF
:100350003C932E931697608381E090E00895CF92AE
:10036000DF92EF92FF920F931F938634910568F10D
:1003700020913702233449F5C0904202D0904302C5
:10038000E0904402F09045020091D3011091D40115
:100390002091D5013091D601C016D106E206F306B0
:1003A000A1F4EEE2F3E08C5E9D4F9F012E5F3F4F84
:1003B00041815081553319F45281561741F0F901AA
:1003C000E40FF11DE817F90780F380E001C081E038
:1003D0001F910F91FF90EF90DF90CF900895E091E3
:1003E000C801F091C9019F012F5F3F4F3093C901B0
:1003F0002093C80180830895EF92FF920F931F937B
:10040000CF93DF931F92CDB7DEB7062F142F5983FA
:100410000E94EF01802F0E94EF01E12E5981F52EFD
:10042000100F1E1531F0F70181917F010E94EF013D
:10043000F8CF0F90DF91CF911F910F91FF90EF9028
:100440000895CF93DF93EC01FB018A30910548F0CA
:100450006AE070E00E94D312CB01BF010E9421022A
:10046000FC01CE016AE070E00E94D312805D8083BF
:100470001182CF010196DF91CF910895089580E018
:1004800090E008950F931F93CF93DF93890190918C
:100490005203891751F0E0915303F091540340E067
:1004A00050E060E070E084E029C0611128C02D3088
:1004B000310528F1C0915303D09154032097F9F0EE
:1004C000BA01635E7D4F43E050E082E691E00E9416
:1004D00042136091420270E024E0759567952A9579
:1004E000E1F7660F771F660F771F6E5D7F4F21E084
:1004F000892B09F420E0A801822FFE01099580E0F4
:10050000DF91CF911F910F910895AF92BF92CF923B
:10051000DF92EF92FF920F931F93CF93DF93CDB7AC
:10052000DEB7ED84FE84CF84D8888E010F5E1F4F26
:10053000C6010196F6012491222309F4D6C0243283
:1005400079F0D7011696ED91FC911797AF014F5FA7
:100550005F4F17965C934E93169720836C01E8CFFC
:10056000B2E0CB0ED11CFC019491963409F46FC01B
:100570005CF49434C1F0953409F099C0F80180819D
:1005800091810E5F1F4F7BC0D70116964D915C91F4
:1005900017979C3409F443C0933509F44DC098343F
:1005A00009F085C00DC05801B2E0AB0EB11CF701D7
:1005B00066817781D8018D919C910E94210285C02E
:1005C000B8016E5F7F4FF8019081292F092E000C32
:1005D000330B84E0359527958A95E1F72F709F704E
:1005E0009A300CF0995F905D2A300CF0295FFA0187
:1005F0003196D7011796FC93EE931697205DFA017A
:1006000020831696ED91FC9117979F012F5F3F4F26
:1006100017963C932E93169790838B0189CF5801A0
:10062000F4E0AF0EB11CD8016D917D918D919C913C
:100630002AE00E948A1249C05801B2E0AB0EB11CF8
:10064000F80160817181CA010E943B133EC0F8012C
:100650000190F081E02D0E5F1F4F8491AF014F5F3D
:100660005F4F882309F464CFF701A681B7819D010C
:100670002F5F3F4F378326838C93FA01EECF5C01C7
:10068000BFEFAB1ABB0A0E94CB12882309F450CFEC
:10069000D7011696ED91FC9117979F012F5F3F4F61
:1006A00017963C932E9316978083C501E8CFD70108
:1006B0001696ED91FC9117979F012F5F3F4F17966C
:1006C0003C932E931697908333CFD7011696ED91D6
:1006D000FC91179701900020E9F7CF010197179639
:1006E0009C938E931697850123CFDF91CF911F9115
:1006F0000F91FF90EF90DF90CF90BF90AF90089553
:100700000F931F93CF93DF93CDB7DEB728970FB624
:10071000F894DEBF0FBECDBF1C821B8224E331E004
:100720003A8329832AE432E03E832D8338872F835E
:1007300090915203891357C0A0915503B09156036D
:1007400000915A031091590370915E0360915D030B
:10075000AE014F5F5F4F1097C9F4809158038F939C
:10076000809157038F930F931F9380915C038F9316
:1007700080915B038F937F936F938CEE90E09F93B8
:100780008F935F934F930E94850228C080915703F7
:1007900090915803FD0101900020E9F73197EA1B81
:1007A000FB0B009719F026E631E004C028E631E0A3
:1007B00084E790E0BF93AF93FF93EF933F932F9322
:1007C0009F938F930F931F937F936F9385E790E091
:1007D0009F938F935F934F930E9485020FB6F89477
:1007E000DEBF0FBECDBF8F8198852D813E81821BDC
:1007F000930B28960FB6F894DEBF0FBECDBFDF91E6
:10080000CF911F910F910895CF93DF9390E0FC015A
:10081000EF5BFE4F2491FC01E35DFE4F8491882342
:1008200061F190E0880F991FFC01E75EFE4FC591D2
:10083000D491FC01ED5DFE4FA591B491611109C009
:100840009FB7F8948881209582238883EC912E238A
:100850000BC0623061F49FB7F8943881822F809585
:1008600083238883EC912E2B2C939FBF06C08FB7D8
:10087000F894E8812E2B28838FBFDF91CF910895C4
:100880003FB7F8948091FC019091FD01A091FE0189
:10089000B091FF0126B5A89B05C02F3F19F0019626
:1008A000A11DB11D3FBFBA2FA92F982F8827820FF6
:1008B000911DA11DB11DBC01CD0142E0660F771F46
:1008C000881F991F4A95D1F708952FB7F894609122
:1008D000F8017091F9018091FA019091FB012FBF0D
:1008E00008950F931F93CF93DF93EB0189E691E077
:1008F0000E94B40D0E94650400915F031091600393
:100900002091610330916203601B710B820B930B8A
:100910004AE00E94D40D84E791E00E94C60DCE010A
:100920008C5E9D4FDF91CF911F910F910C94C60D5E
:100930001F920F920FB60F9211242F933F938F9314
:100940009F93AF93BF938091F8019091F901A0918B
:10095000FA01B091FB013091F70123E0230F2D370D
:1009600020F40196A11DB11D05C026E8230F0296B3
:10097000A11DB11D2093F7018093F8019093F90117
:10098000A093FA01B093FB018091FC019091FD01CD
:10099000A091FE01B091FF010196A11DB11D8093B0
:1009A000FC019093FD01A093FE01B093FF01BF9164
:1009B000AF919F918F913F912F910F900FBE0F900C
:1009C0001F901895DC0196E0FB0101900D929A951D
:1009D000E1F70895CF93DF93EB0144E050E0BC01D1
:1009E00080E392E00E942E13892B39F46AE272E0D0
:1009F000CE010E94E20481E001C080E0DF91CF914E
:100A00000895BC0184E192E00E94E20463E072E098
:100A10008AE192E00C94E204FB0140815181628101
:100A20007381FC01408351836283738308958AE15B
:100A300092E00E9401056EE272E082E392E00E9481
:100A40000C0567E673E08EE292E00E940C050C94C0
:100A50009001CF93DF9300D0CDB7DEB769837A835F
:100A60000E94010569817A8182E392E00E940C056F
:100A700067E673E08EE292E00F900F90DF91CF91E6
:100A80000C940C05EF92FF920F931F93CF93DF937B
:100A9000182F092FEB01F42EE52ECB010E94150E25
:100AA000BE01882319F088EE91E002C08EEE91E03D
:100AB0000E9429052881207F203E91F0888199811C
:100AC000AA81BB818F3F9F4FAF4FBF4F49F044E09A
:100AD00050E0BE0189E092E00E942E13892B31F490
:100AE0006CE371E084E192E00E94E20488E080938C
:100AF00020021092210249E050E060E171E082E2C0
:100B000092E00E9481121092240281E180932B02D4
:100B1000E0923802F09239020093360210933702C5
:100B200010923A0210923C0210923D02DF91CF9156
:100B30001F910F91FF90EF9008958EBD0DB407FEA9
:100B4000FDCF089561E0809100020E94A10E78948B
:100B50000895F89460E0809100020C94A10E0F9328
:100B60001F93CF93DF93EC018B010E94A90520977F
:100B7000B9F08AE30E949D051EBCF801CE010197E1
:100B800039F00DB407FEFDCF2EB51EBC2193F7CF73
:100B90002197C00FD11F0DB407FEFDCF8EB58883FE
:100BA000DF91CF911F910F910C94A205CF93DF930A
:100BB00000D01F92CDB7DEB74B836A8389830E9432
:100BC000A9056A816F718981862B0E949D054B81E1
:100BD000842F0E949D050F900F900F90DF91CF9171
:100BE0000C94A2051F93CF93DF93182F1076C12F7B
:100BF000D0E02091CA0130E0C217D307A1F043E052
:100C00006FE180EA0E94D6051093CA01AE0185E02B
:100C1000559547958A95E1F76FE180E8DF91CF918F
:100C20001F910C94D605DF91CF911F9108951F93CA
:100C3000CF93DF931F92CDB7DEB7182F69830E9441
:100C4000F2054981612F80E40F90DF91CF911F91D0
:100C50000C94D6051F93CF93DF931F92CDB7DEB7C9
:100C6000182F79830E9417067981672F81E0810F01
:100C70000F90DF91CF911F910C9417061F93CF9384
:100C8000DF931F92CDB7DEB7182F0E94F2050E94A6
:100C9000A905812F8F710E949D0580E00E949D050E
:100CA00017FF03C080E00E949D058EB589830E94D6
:100CB000A20589810F90DF91CF911F9108950F9325
:100CC0001F93CF93DF9300D000D000D0CDB7DEB715
:100CD0008091CD01882389F06091CB017091CC0186
:100CE0006115710519F46FEF7BE002C06150710965
:100CF0008CE00E942A061092CD0189E30E943E06F4
:100D00008823C9F16091CB017091CC0180E00E94F1
:100D10002A06BE016F5F7F4F86E090E00E94AF051C
:100D200089819A819093CC018093CB010B811C81A6
:100D300080910102909102022D8127FF0DC0019741
:100D4000045011098017910708F48C0164E172E0E6
:100D5000C8010E94AF0502C000E010E0F801EC5E9F
:100D6000FD4F108281E08093CD0140E46EE180E888
:100D70000E94D60502C000E010E0C80126960FB61A
:100D8000F894DEBF0FBECDBFDF91CF911F910F91C1
:100D90000895CF93DF93EC0140E86FE180E80E9473
:100DA000D60540E86FE180EA0E94D6054AE06CE192
:100DB00080EA0E94D60560E07CE082E00E942A067C
:100DC000BE01745F86E00E942A0640E060E08AE788
:100DD0000E94D6050E94A905209751F40E94A20501
:100DE00048E06FE180E80E94D605C0E0D0E01CC07A
:100DF0008AE70E949D05809114028EBDE5E1F2E034
:100E0000CC5EDD4FEC17FD0731F081910DB407FE8C
:100E1000FDCF8EBDF7CF0DB407FEFDCFDFCF2196FE
:100E2000C83E83E0D80729F08CE10E943E068A7014
:100E3000B1F38CE10E943E0681FD03C0C83ED34061
:100E400039F448E06FE180EADF91CF910C94D60548
:100E5000DF91CF9108950F931F93CF938C018CE373
:100E600091E00E940105E4E1F2E088E08487C6E0B9
:100E7000C58748E050E06CE670E082E292E00E94B4
:100E80008112E4E3F2E0DF011D92CA95E9F763E025
:100E900072E08AE292E00E94E204B8018AE392E002
:100EA0000E940C0567E673E080E392E00E940C0567
:100EB0008AE290E0CF911F910F910C94C9060F9395
:100EC0001F93CF93DF93EC0104E112E04C96F801FD
:100ED000908B818B0E949001CE010896F80196A319
:100EE00087A3AE01405F5F4F21E06AE188E20E9484
:100EF0003801CE018A96DF91CF911F910F910C940A
:100F0000C906EF92FF920F931F93CF93DF938C014B
:100F100086E191E0E4E1F2E0DF019C011D922150C5
:100F20003040E1F78091E301833019F06CE371E028
:100F300002C06EEC71E043E450E084E490E00E9473
:100F400042056CE371E084E192E00E94E20481E0FA
:100F500080933E0280933F0286E08093400280911E
:100F6000D3019091D401A091D501B091D601809385
:100F7000420290934302A0934402B0934502F09042
:100F8000E30133E0F31206C067E673E08AE492E01F
:100F90000E940C0563E072E08AE592E00E94E204A0
:100FA0008AE293E09093C9018093C801C8E6D0E03B
:100FB000EC2E84E0E80EFE0184910E94EF01219660
:100FC000EC12F9CF85E30E94EF0181E00E94EF016E
:100FD000FF2011F083E001C081E00E94EF018DE36A
:100FE0000E94EF0187E00E94EF0181E00E94EF0183
:100FF000C3E0D2E0FC2E26E0F20EFC1621F089912F
:101000000E94EF01FACF80910001882371F0E0E0A7
:10101000F1E001900020E9F73197BF016050714085
:1010200040E051E08CE00E94FC010115110559F0EF
:10103000A80164E082E30E94FC014EEC51E064E010
:1010400086E30E94FC0187E30E94EF0183E00E9497
:10105000EF0181E00E94EF0183E00E94EF0186E052
:101060000E94EF018FEF0E94EF018091C8019091E3
:10107000C9018E539240DF91CF911F910F91FF9044
:10108000EF900C945F07262F206120934302643079
:1010900021F0009711F481E090E061E00E940B01E3
:1010A0001092240288E2809325020E94170584E0B2
:1010B000809344021092450222E04CE150E06AE144
:1010C00082E30E94380186E390E00C94C9068F9277
:1010D0009F92AF92BF92CF92DF92EF92FF920F93C7
:1010E0001F93CF93DF9300D000D01F92CDB7DEB710
:1010F0007C0180911302882309F43DC18091E301B2
:10110000823009F488C030F4882381F1813009F4F9
:101110004DC031C1833021F0843009F47CC02BC133
:101120008090DF019090E001A090E101B090E20199
:101130002FEF82169206A206B20609F41CC10E9485
:1011400065040091DB011091DC012091DD013091FB
:10115000DE01DC01CB01801B910BA20BB30B8815C8
:101160009905AA05BB0508F0E2C105C10E94650406
:101170006093D3017093D4018093D5019093D601ED
:1011800010926703109268031092690310926A0329
:1011900080E090E00E94810788E30E943E06682F6D
:1011A000616088E30E94170681E028C062E0C70101
:1011B0000E94AF018823A9F16EE472E0CE0101968E
:1011C0000E940C05EEE2F3E0C7018C5E9D4FBF016B
:1011D0006E5F7F4F21813081363329F48EEC91E0B0
:1011E0000E940C0506C0FB01E20FF11DE817F9078C
:1011F00070F3CE0101960E94810782E08093E301A3
:101200000E9465046093D7017093D8018093D9013F
:101210009093DA01B0C065E0C7010E94AF0181116F
:1012200019C00E9465040091D7011091D801209146
:10123000D9013091DA01DC01CB01801B910BA20BAB
:10124000B30B81319742A105B10508F494C0109207
:10125000E30191C08091D201811108C088E30E940E
:101260003E06682F6E7F88E30E9417066EE472E0E8
:1012700087E693E00E940C05EEE2F3E0C7018C5E86
:101280009D4F6C018F010E5F1F4FB18080818630B2
:10129000A9F048F4813071F0833009F045C0B801FD
:1012A0008DE092E00EC08A3379F08F3FD9F183331D
:1012B000D9F50AC0B80183E693E003C0B80182E41F
:1012C00093E00E940C0530C0D801369620E030E053
:1012D000A9018D91742F632F522F44279A01AB01DE
:1012E000280F311D411D511DAE17BF0791F72093E7
:1012F000DF013093E0014093E1015093E2012F3F81
:101300009FEF39074907590779F0A8EEB3E00E942B
:1013100009136093DF017093E0018093E1019093E2
:10132000E20102C081E001C080E0F801EB0DF11D97
:10133000811104C0EC15FD0508F4A4CF0E946504DA
:101340006093DB017093DC018093DD019093DE01FB
:1013500080910D02882361F0109212021092110206
:1013600081E0809340036DE072E0CB010E940C05A8
:1013700083E08093E301E114F10409F0BDC08091A2
:101380004003857051F08091110290911202892BD7
:1013900021F40E94330E82FDD0C080911102909101
:1013A00012020196909312028093110280914B03D6
:1013B000813009F07BC08091400381FF77C082E0DB
:1013C00080934B03809121018F5F80932101F090E6
:1013D0004C03E0904D038F7120914A03A0E22A9FB5
:1013E00090011124182F122B86E493E00E94150E11
:1013F00066E473E0882319F088EE91E002C08EEE77
:1014000091E00E94290508E0009320021092210239
:1014100049E050E060E171E082E292E00E948112D6
:101420008CE28093250286E080932B020E9490013B
:10143000E0923802F09239028BE0809336021093EA
:101440003702EAE3F2E0DF011D920A95E9F78091A5
:10145000200180933C028D5F8093200180E6809381
:10146000420282E08093430293E090934402109200
:1014700045021092460210924702109248021092C2
:10148000490280934A0294E090934B0280934C026D
:1014900086E280934D0222E040E250E06AE182E37E
:1014A0000E9438018AE390E00E94C90682E493E03A
:1014B0000E94150E882349F080914103811105C0D7
:1014C0008091F601882309F442C086E493E00E94EB
:1014D000150E882309F4B1C08091F5018111ADC0CA
:1014E0008091F4018111A9C086E493E00E942B074A
:1014F00081E08093F401A1C0B9E2EB16F10408F495
:101500009CC080912002883009F097C08091210210
:10151000863009F08CC044E050E067E673E08AE36F
:1015200092E00E942E13892B09F087C018C087E62D
:1015300093E00E94810784E061CE8DE092E00E94FA
:101540002B078091400388608093400326CF82E47C
:1015500093E00E942B0781E08093F601B6CF809143
:101560002902813029F58AE192E00E94010510925A
:10157000280282E0809329026AE272E084E392E02A
:101580000E94E20463E072E08AE292E00E94E204D8
:1015900060E372E08AE392E00E940C0567E673E084
:1015A00080E392E00E940C058AE290E00E94C90666
:1015B0008091400383FF0CC010912902123041F446
:1015C0006EEE71E08DE092E00E94EA04811126C087
:1015D0008091410381110CC08091F601882341F074
:1015E00068EE71E082E493E00E94EA04811119C080
:1015F0008091F501811121C08091F4018823E9F0E7
:1016000068EE71E086E493E00E94EA048823A9F082
:1016100081E08093F5011092F4010FC01093400314
:10162000D7CF81E0809341031092F601E1CF99E298
:10163000E916F10411F0882319F000E010E079C1F7
:10164000809122028534C9F744E050E067E673E0F8
:1016500082E392E00E942E13892BA1F044E050E037
:1016600069E072E082E392E00E942E13892B51F030
:1016700044E050E06CE371E082E392E00E942E13BC
:10168000892BD9F680912B028130F9F480913602B2
:10169000883099F6E091E601F091E701309719F072
:1016A0008EE292E009950E94170510923602809111
:1016B0003802883F28F0909139029F5F9093390259
:1016C000885F80933802C7010DC126E3E216F1045A
:1016D00008F4B3CF863009F0B0CF809138028B3058
:1016E00009F0BDC044E050E066E473E08EE292E0B1
:1016F0000E942E13892B09F0A0CF2091430222FFD4
:1017000013C0E0915003F0915103309759F080914C
:10171000390220E030E040E050E063E082958695B9
:101720008770099585E08FC02D830E94EF008C01A2
:1017300080914B032D81823009F043C0822F80714C
:101740002271223191F560E080E090E00E94430830
:1017500088E180934302E0914E03F0914F0330976C
:1017600041F08091370282958695877009958C01AA
:1017700002C000E010E083E080934B03C80188962C
:1017800090932402809325020E94900110924602B9
:1017900010924702A801445E5F4F22E06AE182E3B3
:1017A0000E943801C801C6969DC091E090934B03FA
:1017B000811103C0C801019602C080E090E064E09E
:1017C0004BC0833091F50115110591F1E091500363
:1017D000F0915103309761F14091420250E024E0D2
:1017E000559547952A95E1F7440F551F440F551F0E
:1017F000C70108974E5D5F4F8417950708F4AC0149
:10180000C801840F951FE816F90620F49701241BE0
:10181000350B01C098018091390260E08295869570
:101820008770099569E0C8010BC0853009F405CFC0
:1018300020FF0CC0833009F400CF69E0C801019695
:101840000E94430886E080934B03F7CE01151105F3
:1018500009F4F3CE60E0C8010E944308EECE811186
:10186000ECCE80913902803509F0E7CED09043026A
:10187000D1FE3BC0109224028CE2809325020E948C
:10188000170582E18093430260E081E090E00E94CE
:101890000B0110923A0210923B028091200180933A
:1018A0003C0210923D028D5F8093200182E0809384
:1018B0004A0284E080934B0285E080934C021092B0
:1018C0004D0290E6909342028093440288E7809311
:1018D000450222E040E250E06AE182E30E943801E2
:1018E0008AE390E00E94C906A8CED4FEA6CE0E944C
:1018F000EF008C019093E5018093E401892B91F036
:101900000091420210E084E0159507958A95E1F771
:10191000000F111F000F111F0E5D1F4FE016F10683
:1019200040F48BCED0FE89CE60E080E090E00E9453
:101930004308C8010F900F900F900F900F90DF9108
:10194000CF911F910F91FF90EF90DF90CF90BF90BC
:10195000AF909F908F900895CF92DF92EF92FF9279
:101960000F931F93CF93DF936C017A018B01C0E03B
:10197000D0E0CE15DF0589F0D8016D918D01D6013B
:10198000ED91FC910190F081E02DC6010995892B24
:1019900011F47E0102C02196ECCFC701DF91CF91F7
:1019A0001F910F91FF90EF90DF90CF900895FC0171
:1019B000538D448D252F30E0842F90E0821B930BB4
:1019C000541710F0CF96089501970895FC01918D5A
:1019D000828D981761F0828DDF01A80FB11D5D9691
:1019E0008C91928D9F5F9F73928F90E008958FEFFF
:1019F0009FEF0895FC01918D828D981731F0828DB3
:101A0000E80FF11D858D90E008958FEF9FEF089509
:101A1000FC01918D228D892F90E0805C9F4F821B6D
:101A200091098F73992708958BE693E00E94080D22
:101A300021E0892B09F420E0822F0895FC01848D98
:101A4000DF01A80FB11DA35ABF4F2C91848D90E0E8
:101A500001968F739927848FA689B7892C93A089C3
:101A6000B1898C9180648C93938D848D981306C07A
:101A70000288F389E02D80818F7D80830895EF9225
:101A8000FF920F931F93CF93DF93EC0181E0888F38
:101A90009B8D8C8D981305C0E889F989808185FD1F
:101AA00024C0F62E0B8D10E00F5F1F4F0F73112710
:101AB000E02E8C8DE8120CC00FB607FCFACFE88937
:101AC000F989808185FFF5CFCE010E941E0DF1CFEF
:101AD0008B8DFE01E80FF11DE35AFF4FF0820B8F53
:101AE000EA89FB898081806207C0EE89FF89608373
:101AF000E889F98980818064808381E090E0DF91CA
:101B0000CF911F910F91FF90EF900895CF93DF93A6
:101B1000EC01888D8823C9F0EA89FB89808185FDE5
:101B200005C0A889B9898C9186FD0FC00FB607FC46
:101B3000F5CF808185FFF2CFA889B9898C9185FF87
:101B4000EDCFCE010E941E0DE7CFDF91CF9108951A
:101B500080E090E0892B29F00E94140D81110C94F3
:101B6000000008950E942913009769F0FC0101907C
:101B70000020E9F73197AF01481B590BBC018BE6F8
:101B800093E00C94AC0C80E090E00895CF93DF9349
:101B90000E94B40DEC0186E691E00E94B40D8C0F1A
:101BA0009D1FDF91CF9108958F929F92AF92BF9228
:101BB0000F931F93CF93DF93CDB7DEB7A1970FB6E7
:101BC000F894DEBF0FBECDBF19A2423008F44AE040
:101BD0008E010F5D1F4F842E912CA12CB12CA501DD
:101BE00094010E94E712E62FB901CA0101501109C0
:101BF000EA3014F4E05D01C0E95CD801EC93232BDA
:101C0000242B252B61F7C8010E94B40DA1960FB6B5
:101C1000F894DEBF0FBECDBFDF91CF911F910F9122
:101C2000BF90AF909F908F900895CF93DF932091B6
:101C300067032223A1F0FC012081222381F0A7E683
:101C4000B3E0C3E6D3E08D91219199918227892356
:101C500031F483E0AB36B807B1F781E001C080E032
:101C6000DF91CF91089561E184ED0E94170661E054
:101C700082ED0E9417068AEE0E943E0680FDFBCF91
:101C800060E082ED0E94170689ED0E943E0690E01A
:101C900008951F920F920FB60F9211242F933F9326
:101CA0004F935F936F937F938F939F93AF93BF9364
:101CB000EF93FF938BE693E00E941E0DFF91EF914F
:101CC000BF91AF919F918F917F916F915F914F9154
:101CD0003F912F910F900FBE0F901F9018951F925C
:101CE0000F920FB60F9211242F938F939F93EF9320
:101CF000FF93E0917B03F0917C038081E09181036D
:101D0000F091820382FD12C09081809184038F5FE5
:101D10008F7320918503821751F0E0918403F0E0E6
:101D2000E559FC4F958F8093840301C08081FF911A
:101D3000EF919F918F912F910F900FBE0F901F9059
:101D4000189590E0FC01EB5AFE4F3491FC01EF5BDB
:101D5000FE4F2491FC01E35DFE4FE491EE2309F474
:101D60003BC0332339F1333091F038F43130A9F0EE
:101D7000323001F584B58F7D12C0373091F03830A4
:101D8000A1F03430B9F4809180008F7D03C0809140
:101D900080008F77809380000DC084B58F7784BDDD
:101DA00009C08091B0008F7703C08091B0008F7D13
:101DB0008093B000F0E0EE0FFF1FED5DFE4FA591A8
:101DC000B4918FB7F894EC91611103C020952E2344
:101DD00001C02E2B2C938FBF0895EBE6F3E0138206
:101DE000128288EE93E0A0E0B0E084839583A6831E
:101DF000B78386E491E09183808385EC90E09587BA
:101E0000848784EC90E09787868780EC90E0918BC4
:101E1000808B81EC90E0938B828B82EC90E0958BB1
:101E2000848B86EC90E0978B868B118E128E138EAE
:101E3000148E0895789484B5826084BD84B58160E1
:101E400084BD85B5826085BD85B5816085BD809185
:101E50006E00816080936E001092810080918100FD
:101E600082608093810080918100816080938100F5
:101E7000809180008160809380008091B1008460B7
:101E80008093B1008091B00081608093B000809118
:101E90007A00846080937A0080917A0082608093D7
:101EA0007A0080917A00816080937A0080917A0034
:101EB000806880937A001092C100E0917B03F091DA
:101EC0007C0382E08083E0917B03F0917C031082AD
:101ED000E0917703F09178031082E0917903F0911B
:101EE0007A0380E1808310928303E0917F03F09175
:101EF000800386E08083E0917D03F0917E03808102
:101F000080618083E0917D03F0917E038081886011
:101F10008083E0917D03F0917E03808180688083DF
:101F2000E0917D03F0917E0380818F7D808388E73F
:101F300091E00E94C60D1092130287E390E001E049
:101F400010E020E030E00097D1F0FC01A3E0F5952F
:101F5000E795AA95E1F7E85FFB4F482F47706801C6
:101F6000790104C0CC0CDD1CEE1CFF1C4A95D2F795
:101F7000B701A601A0814A2B40830197E4CF6AE212
:101F800071E083E092E00E94E2048CE291E09093A1
:101F90000202809301020CB406FC25C061E08AE0D5
:101FA0000E94040461E08AE00E94A10E61E08BE0DF
:101FB0000E94040461E08DE00E94040460E08CE073
:101FC0000E94040461E08BE00E94A10E60E08BE0BF
:101FD0000E94A10E60E08DE00E94A10E80E58CBD04
:101FE0008DB581608DBD8AE08093000261E00E9422
:101FF00004040E94A2054FEF60E08FEF0E94D60517
:102000000E9440046B017C0172E0872E912CA12C70
:10201000B12C0E944004DC01CB018C199D09AE0952
:10202000BF09883E9340A105B10598F328EEC20E82
:1020300023E0D21EE11CF11C8A9489288A288B286F
:1020400029F0812C912C54018394E3CF0E94A9059F
:102050008DE10E949D0580E00E949D05CEB50E9405
:10206000A205CC2399F360E070E088E00E942A0684
:1020700060E070E08CE00E942A066FEF7BE08AE06F
:102080000E942A0660E07CE084E00E942A066FEF4E
:1020900071E186E00E942A0661EB88E30E94170640
:1020A0006FE370E388E20E942A0669EF77EF80E32E
:1020B0000E942A066DE080EC0E94170660E081EC29
:1020C0000E94170642E362EC80E80E94D60562E1B6
:1020D0007CE086EC0E942A0662E184EC0E941706EE
:1020E0006CED75E08AEC0E942A066091030284EE92
:1020F0000E9417066091040285EE0E941706609107
:10210000050282EE0E9417066091060283EE0E948D
:1021100017066091070280EE0E9417066091080280
:1021200081EE0E94170660E184ED0E94170660E0D0
:1021300071E086ED0E942A068AEE0E943E0680FD2E
:10214000FBCF8FE10E94F20540EC6BE180E80E943A
:10215000D60544E06FE180E80E94D60582E70E9440
:102160003E06863008F08F5F811104C085E891E05B
:102170000E94C60D1092130266E271E087E693E0BA
:102180000E940C0581E08093400362E271E08DE0E3
:1021900092E00E940C05C3E6D3E0A9E0B2E0E7E6D6
:1021A000F3E024E02E0F919189918095892B8D93F6
:1021B0002E13F9CF10921202109211020E946504A0
:1021C000EB010E94330E82FD08C00E9465046C1B67
:1021D0007D0B60337547A8F39DC011E082E493E066
:1021E0000E94150E882319F08091410304C080914C
:1021F000400386958170812761F00E945F060E94EE
:1022000067080E9465046C1B7D0B6033754730F3D3
:1022100081C0109246031092470310924803109217
:10222000490380910F048F5F80930F0490914203C4
:1022300091110BC048E058E0BA014093420350931B
:102240004303609344037093450390E045E350E0FB
:1022500062E473E0906E0E9442058CE0EEE3F2E0EF
:10226000DF011D928A95E9F7AAE4B2E04BE751E05D
:10227000FA01942F8E2F841B249131962E3249F02F
:10228000222339F08E2F891BED01C80FD11D288321
:10229000F1CF8C9390E00196A80FB91F222311F083
:1022A000AF01E6CF1C9211961C92119781E0129615
:1022B0008C93129713961C92139714968C931497E1
:1022C00024E132E0A21BA552A0933E0290910F049C
:1022D00090933F0280934002809343028A2F90E0C4
:1022E0000E945F070E946504EB0180914603811103
:1022F00015C00E9465046C1B7D0B6033754750F45C
:102300000E945F068C01009781F30E946708892B69
:1023100061F7A6C08AEA91E00E94C60D85EB91E0C4
:102320000E94B40D06E413E0C0E0F80161918F0152
:1023300070E080E090E04AE00E94D40DC33059F094
:10234000E0916B03F0916C030190F081E02D6EE25F
:102350008BE693E00995CF5FC43039F786E691E0CC
:102360000E94B40D88E79CEEAFEFBFEF80935F0350
:1023700090936003A0936103B093620386E8682E94
:1023800081E0782EC8E6D1E00BE711E099E6E92E6E
:1023900091E0F92E21E7C22E24E0D22E32E4A32EC2
:1023A00032E0B32E40E8842E43E0942E50E5552EC3
:1023B000442443940E945F060E9467080E946504BB
:1023C00020915F033091600340916103509162035B
:1023D00028573C4E4F4F5F4F26173707480759077E
:1023E000E0F50E94650460935F037093600380933F
:1023F0006103909362038EEB91E00E94C60D709290
:102400005E0360925D03D0935C03C0935B03109303
:102410005A0300935903F0925803E0925703109225
:10242000560310925503D0925403C0925303B092B6
:102430005103A092500390924F0380924E0310924A
:102440004D0350924C0340924B0380914A038F5F9F
:10245000877080934A03809352030E94A80DAACFED
:102460000634110508F441CF80913702853309F015
:102470003CCF80913802803E09F037CF80913902FD
:1024800090910F04891331CF90913F0298132DCF73
:10249000809141028F7009F03DCFE0913E02F0E063
:1024A000E25CFD4F0C5E1D4F8081807C11F0329606
:1024B0000EC0BF016F5F7F4FFB016017710738F4DB
:1024C000BF016F5F7F4F80818111F6CFFB01CF018C
:1024D0000E960817190708F408CF818161858130AD
:1024E00051F4643041F4BF01665F7F4F86E493E0AE
:1024F0000E940C05FACE70E0665F7F4FE60FF71F73
:10250000D3CFFB01DC0102C005900D924150504039
:10251000D8F70895BB272A3051F4992342F4BDE23D
:1025200090958095709561957F4F8F4F9F4F0C943C
:102530009A12BB27FA01A62F621771058105910532
:10254000330B30FB66F0AA27660F771F881F991F91
:10255000AA1FA21710F0A21B63953850A9F7A05D1F
:10256000AA3308F0A95DA19336F7B111B193108297
:10257000CA010C94BB12DC01FC01672F7191772317
:10258000E1F7329704C07C916D9370836291AE172E
:10259000BF07C8F30895F999FECF92BD81BDF89A9F
:1025A000992780B50895AA1BBB1B51E107C0AA1F3C
:1025B000BB1FA617B70710F0A61BB70B881F991FE4
:1025C0005A95A9F780959095BC01CD010895A1E297
:1025D0001A2EAA1BBB1BFD010DC0AA1FBB1FEE1F9D
:1025E000FF1FA217B307E407F50720F0A21BB30BE8
:1025F000E40BF50B661F771F881F991F1A9469F764
:1026000060957095809590959B01AC01BD01CF01BF
:1026100008950E941A13A59F900DB49F900DA49F3A
:10262000800D911D11240895EE0FFF1F0590F49168
:10263000E02D0994A29FB001B39FC001A39F700D2C
:10264000811D1124911DB29F700D811D1124911DBA
:10265000089581E090E0F8940C945013FB01DC01A4
:1026600004C08D910190801921F441505040C8F769
:10267000881B990B0895FB01DC0101900D9200204D
:10268000E1F70895FB01DC014150504030F08D919D
:102690000190801919F40020B9F7881B990B08954F
:0426A000F894FFCFDC
:1026A40041726475696E6F2D454E4332386A363017
:1026B4002D30300000000000000000000000000089
:1026C4000A01C0A80101C0A801C87469692D30318C
:1026D400000000009F01AC0C3F023E02FFFFFFFF21
:1026E400FFFF000000003F0DAC0CD70C860D080D59
:1026F400E60CFA0C00000000B20DAC0C3F023E02E6
:102704005000323030000D0A003C3C3C20726570B1
:102714006C792000206D73000A5B676574566961EB
:10272400444E535D004661696C656420746F20619A
:1027340063636573732045746865726E65742063A2
:102744006F6E74726F6C6C657200444E53206661D8
:10275400696C6564005365727665723A20000A3EBE
:082764003E3E205245510000E9
:107E0000112484B714BE81FFF0D085E080938100F7
:107E100082E08093C00088E18093C10086E0809377
:107E2000C20080E18093C4008EE0C9D0259A86E02C
:107E300020E33CEF91E0309385002093840096BBD3
:107E4000B09BFECF1D9AA8958150A9F7CC24DD24C4
:107E500088248394B5E0AB2EA1E19A2EF3E0BF2EE7
:107E6000A2D0813461F49FD0082FAFD0023811F036
:107E7000013811F484E001C083E08DD089C08234E0
:107E800011F484E103C0853419F485E0A6D080C0E4
:107E9000853579F488D0E82EFF2485D0082F10E0AE
:107EA000102F00270E291F29000F111F8ED06801E7
:107EB0006FC0863521F484E090D080E0DECF843638
:107EC00009F040C070D06FD0082F6DD080E0C81688
:107ED00080E7D80618F4F601B7BEE895C0E0D1E017
:107EE00062D089930C17E1F7F0E0CF16F0E7DF06D8
:107EF00018F0F601B7BEE89568D007B600FCFDCFD4
:107F0000A601A0E0B1E02C9130E011968C91119780
:107F100090E0982F8827822B932B1296FA010C0160
:107F200087BEE89511244E5F5F4FF1E0A038BF0790
:107F300051F7F601A7BEE89507B600FCFDCF97BE46
:107F4000E89526C08437B1F42ED02DD0F82E2BD052
:107F50003CD0F601EF2C8F010F5F1F4F84911BD097
:107F6000EA94F801C1F70894C11CD11CFA94CF0C13
:107F7000D11C0EC0853739F428D08EE10CD085E9AC
:107F80000AD08FE07ACF813511F488E018D01DD067
:107F900080E101D065CF982F8091C00085FFFCCF94
:107FA0009093C60008958091C00087FFFCCF809118
:107FB000C00084FD01C0A8958091C6000895E0E648
:107FC000F0E098E1908380830895EDDF803219F02E
:107FD00088E0F5DFFFCF84E1DECF1F93182FE3DFCA
:107FE0001150E9F7F2DF1F91089580E0E8DFEE27F6
:047FF000FF270994CA
:027FFE00040479
:0400000300007E007B
:00000001FF
