:100000000C945D000C9485000C9485000C94850084
:100010000C9485000C9485000C9485000C9485004C
:100020000C9485000C9485000C9485000C9485003C
:100030000C9485000C9485000C9485000C9485002C
:100040000C943F0D0C9485000C9485000C94850055
:100050000C9485000C9485000C9485000C9485000C
:100060000C9485000C94850000000008000201003B
:100070000003040700000000000000000000000072
:10008000250028002B0000000000240027002A0083
:10009000040404040404040402020202020203032E
:1000A0000303030301020408102040800102040836
:1000B0001020010204081020211111241FBECFEFCF
:1000C000D8E0DEBFCDBF12E0A0E0B1E0E6E6F3E2AB
:1000D00002C005900D92AC3BB107D9F723E0ACEB21
:1000E000B2E001C01D92A432B207E1F710E0CDE505
:1000F000D0E004C02197FE010E94A611CC35D107A3
:10010000C9F70E94D80F0C94B1110C940000089507
:10011000CF93DF931F92CDB7DEB76983DC01ED91FA
:10012000FC910280F381E02D41E050E0BE016F5F61
:100130007F4F09950F90DF91CF910895DC01ED91EC
:10014000FC91068CF78DE02D099591E089270895A3
:10015000862F089581E086270895089580E090E035
:1001600008950F931F93CF93DF931F92CDB7DEB700
:100170008C01DC01ED91FC910084F185E02D099565
:10018000892B51F0BE016F5F7F4FF80184850E947B
:100190002D0E898190E002C08FEF9FEF0F90DF91CD
:1001A000CF911F910F910895FC0184850C946E0EE0
:1001B000CF93DF931F92CDB7DEB741E050E0BE0191
:1001C0006F5F7F4FFC0184850E946E0E1816190622
:1001D0001CF4898190E002C08FEF9FEF0F90DF91B8
:1001E000CF910895FC018485843011F00C944C0E5D
:1001F00080E090E0089508958CBD9DBD0895CF9254
:10020000DF92EF92FF921F93CF93DF93FC0114854F
:10021000143099F1EC0180E590E00E94FC0068E068
:1002200070E0812F0E94A90F0E941A0D6B017C01C2
:10023000CE010E94F7078823B1F061E070E080E012
:1002400090E00E94730B0E941A0DDC01CB018C1907
:100250009D09AE09BF09883E9340A105B10540F351
:100260008C850E94C10EEC85F0E0EE0FFF1FEC5371
:10027000FD4F1182108284E08C87DF91CF911F9116
:10028000FF90EF90DF90CF9008958F929F92AF9262
:10029000BF92CF92DF92EF92FF920F931F93CF9373
:1002A0006C015B017A01FC01C485C43041F481E03A
:1002B00090E0F6019383828380E090E04EC08A0153
:1002C0004130584010F000E018E080E590E00E94D6
:1002D000FC008C2F0E94570B4C0163E070E08C2FC8
:1002E0000E944807873111F08C3121F48016910665
:1002F00060F302C000E010E080E590E00E94FC00A6
:100300009801A50160E070E08C2F0E94F20A60E283
:1003100070E08C2F0E94A90F62E070E08C2F0E9489
:10032000480784FD10C063E070E08C2F0E944807EE
:10033000811104C08C2F0E94C10EB9CF80E590E0DE
:100340000E94FC00E9CF40E162E070E08C2F0E9447
:100350003E07012B09F4ABCFC701CF911F910F913D
:10036000FF90EF90DF90CF90BF90AF909F908F90D5
:100370000895CF92DF92FF920F931F93CF93DF9355
:10038000FC012485243009F077C06A01EB018C015F
:10039000F12C8F2D0E94900F811103C0F801F4867B
:1003A00007C08B7F8831D1F3F394F4E0FF12F1CFD3
:1003B000F8018485843009F45FC0209100013091F8
:1003C00001012F5F3F4F11F420E030EC3093010129
:1003D00020930001409100015091010120E061E073
:1003E0000E94D50EF801F4848A818F3F51F48B81ED
:1003F0008F3F91F48C818F3F79F48D818F3F61F431
:1004000038C0811109C08B81811106C08C81811196
:1004100003C08D81882369F1C114D10451F180E5B5
:1004200090E00E94FC00BE016E5F7F4F8F2D90E038
:10043000982F882744E050E0845F9B4F0E94DC0D9A
:10044000B6018F2D0E94A60764E070E08F2D0E94F8
:10045000A90FC8010E94F707873189F061E070E0B9
:1004600080E090E00E94730BC8010E94F7078111A1
:10047000F0CF84E0F801848780E090E002C081E062
:1004800090E0DF91CF911F910F91FF90DF90CF907F
:1004900008952F923F924F925F926F927F928F9228
:1004A0009F92AF92BF92CF92DF92EF92FF920F9303
:1004B0001F93CF93DF93CDB7DEB765970FB6F89450
:1004C000DEBF0FBECDBF7C016B013A01FB0120E016
:1004D00080E090E06AE03191332309F140ED430F71
:1004E0004A3080F4689FA001699F500D1124CA0111
:1004F000C097830F911D37FD9A958F3F910559F352
:1005000050F313C03E3289F4233079F0D301A20FA7
:10051000B11D12968C932F5F80E090E0DCCF2330EA
:1005200021F4F301858381E021C0F70142815381E9
:10053000648175818091EA029091EB02A091EC02B6
:10054000B091ED02481759076A077B0709F49EC16D
:100550000E941A0D8701085F1F4F6F7077277C5F1D
:10056000C8010E941107813019F080E090E0F3C1CA
:1005700082ED91E09A838983F70182819381A4813E
:10058000B5818B839C83AD83BE8345E350E0BE0180
:100590006F5F7F4FC8010E94B707892B19F4C12CE8
:1005A000D12C6FC10E941A0DF701778366837627DD
:1005B000672776277A83698342E050E0BE016F5F48
:1005C0007F4FC8010E94510681E090E09E878D8791
:1005D00042E050E0BE01635F7F4FC8010E945106B8
:1005E00080E091E09E878D8742E050E0BE01635F2E
:1005F0007F4FC8010E9451061E861D8642E050E0D2
:10060000BE01635F7F4FC8010E94510642E050E087
:10061000BE01635F7F4FC8010E94510642E050E077
:10062000BE01635F7F4FC8010E9451065601F5016C
:100630008081882311F1F6015F018191811115C03C
:1006400045018C189D081814190494F48F8641E014
:1006500050E0BE01615F7F4FC8010E945106A401B6
:10066000B601C8010E94510603C08E3229F7E8CFB7
:100670006501FFEFCF1ADF0ADACF1F8641E050E0B5
:10068000BE01615F7F4FC8010E945106C12CDD246D
:10069000D394DE86CD8642E050E0BE01635F7F4F9B
:1006A000C8010E945106DE86CD8642E050E0BE01C0
:1006B000635F7F4FC8010E945106C8010E946E0708
:1006C000892B09F46CCF63E0A62EB12CF2E06F0EFB
:1006D000711C0E941A0D1B012C01C8010E94F80513
:1006E00018161906A4F00E941A0DDC01CB0182191C
:1006F0009309A409B50989389341A105B105D0F43E
:1007000062E370E080E090E00E94730BE6CFF701B7
:100710004281538164817581808D918DA28DB38DCD
:10072000481759076A077B0741F4848D958DC59753
:1007300021F406C02FEF3FEF9AC02EEF3FEF97C096
:10074000F70181A192A10C970CF4A6C04CE050E0F7
:10075000BE016F5F7F4FC8010E94B0058B8190E0A2
:10076000982F88272C81822B9A8B898B298130E0C6
:10077000322F22274A81242BF701468157814217C5
:10078000530709F086C097FF84C08F709270892B41
:1007900009F0DEC0CF80D12CDC2CCC248885C82A7F
:1007A000C114D10409F4D1C0812C912C8D8190E029
:1007B000982F88272E81822B8816990608F46FC0FF
:1007C000812C912C41E050E0BE016D5E7F4FC8014D
:1007D0000E94B0058B89982F907C09F093C08111FD
:1007E00086C08B898111EECF42E050E0BE01615F8F
:1007F0007F4FC8010E94B00542E050E0BE01635F38
:100800007F4FC8010E94B005C8010E94CF05C801F2
:100810000E94CF05C8010E94CF05C8010E94CF05E4
:1008200042E050E0BE016F5E7F4FC8010E94B005FC
:100830008F8598898115914009F069C02D853E8585
:100840003227232732272130310509F060C08989FA
:100850009A898115944009F075C044E050E0B301D5
:10086000C8012C8B3D8B0E94B0052C893D89690104
:10087000F1E0AF1AB10829F02FEFC216D20609F441
:1008800028CFC8010E94FC06C60165C08EEF9FEF0D
:1008900062C02CEF3FEFEBCF2DEF3FEFE8CF41E011
:1008A00050E0BE01635F7F4FC8010E94B0058D8597
:1008B000811113C08D858111F2CFC8010E94CF052F
:1008C000C8010E94CF05C8010E94CF05C8010E943F
:1008D000CF05FFEF8F1A9F0A69CF8D859FEF980F85
:1008E0009D87882339F3C8010E94CF05F6CF8B89F5
:1008F0009FEF980F9B8B882309F473CFC8010E9448
:10090000CF05F5CFC8010E94CF051B8A6ACF412CC5
:10091000512C89899A89982789279827481659063A
:1009200038F4C8010E94CF058FEF481A580AF1CF5A
:10093000EFEF8E1A9E0A8C149D0409F043CF26EF28
:100940003FEF95CF27EF3FEF92CF2AEF3FEF8FCFCB
:100950002BEF3FEF8CCF65960FB6F894DEBF0FBE3E
:10096000CDBFDF91CF911F910F91FF90EF90DF905E
:10097000CF90BF90AF909F908F907F906F905F903F
:100980004F903F902F900895CF92DF92EF92FF9279
:100990000F931F93CF93DF93CDB7DEB7AF970FB60B
:1009A000F894DEBF0FBECDBF7C016A0102ED11E0FD
:1009B0001A8309831C861B8688EE93E0A0E0B0E0D2
:1009C0008D879E87AF87B88B84E391E09A8789876C
:1009D000188F0F8B198E1A8E1B8E1C8E84E089A3A4
:1009E0001DA30CA31EA21FA218A619A68091E202A5
:1009F0009091E302A091E402B091E5028CA79DA73B
:100A0000AEA7BFA78B839C83AD83BE8318861F824E
:100A1000AE014C5D5F4FCE0101960E9449028130CC
:100A20009105B1F4D701ED91FC910684F785E02D95
:100A30001BA70AA78EA19FA1A8A5B9A58CA79DA7B2
:100A4000AEA7BFA7A601BE01665D7F4FC70109958E
:100A5000AF960FB6F894DEBF0FBECDBFDF91CF913A
:100A60001F910F91FF90EF90DF90CF900895CF935B
:100A7000DF931F92CDB7DEB76983DC01ED91FC9166
:100A80000280F381E02D41E050E0BE016F5F7F4FB7
:100A900009950F90DF91CF910895FC01818D928D82
:100AA0000895FC0184899589089522ED31E0FC01C7
:100AB00031832083FB014089518962897389FC015C
:100AC00042835383648375830895DC01ED91FC9127
:100AD000048CF58DE02D099480E00895CF93DF9389
:100AE0001F92CDB7DEB76983DC01ED91FC910280E6
:100AF000F381E02D41E050E0BE016F5F7F4F09952B
:100B00000F90DF91CF910895FC019485FB018485BE
:100B1000981303C081E0943009F480E0089521E047
:100B2000FC018485843009F420E0822F0895CF935E
:100B3000DF931F92CDB7DEB7FC01218D328D232BC1
:100B400049F0BE016F5F7F4F808D0E942D0E89811D
:100B500090E002C08FEF9FEF0F90DF91CF9108954B
:100B6000CF93DF93FC01218D328D2115310519F4CE
:100B70008FEF9FEF11C0EC014217530708F0A90156
:100B8000888D0E946E0E1816190694F7298D3A8DDD
:100B9000281B390B3A8F298FDF91CF9108950F933E
:100BA0001F93CF93DF931F92CDB7DEB7FC01218D4A
:100BB000328D232B61F08C0141E050E0BE016F5F6C
:100BC0007F4F808D0E946E0E181619061CF08FEF55
:100BD0009FEF08C0F801818D928D0197928F818FD0
:100BE000898190E00F90DF91CF911F910F9108952F
:100BF0000F931F93CF93DF93CDB7DEB728970FB630
:100C0000F894DEBF0FBECDBF8C01F801818D928DAF
:100C1000892B49F0D801ED91FC910284F385E02DF8
:100C2000C8010995F2CF808D0E944C0E1816190646
:100C30005CF548E050E0BE016F5F7F4FD8015896E9
:100C40008C910E946E0E9C0118161906DCF48981A5
:100C50009A81AB81BC81F801808B918BA28BB38B85
:100C60008D8190E0982F88272E81820F911D958B82
:100C7000848B2F8130E0322F22278885280F311D69
:100C8000328F218FC90102C080E090E028960FB614
:100C9000F894DEBF0FBECDBFDF91CF911F910F91B2
:100CA0000895AF92BF92CF92DF92FF920F931F935E
:100CB000CF93DF938C015B01EA01FC01C688D788E2
:100CC000F08C80E590E00E94FC008F2D0E94570B75
:100CD0008C179D0720F48F2D0E94570BEC019E016D
:100CE000A501B6018F2D0E94F20A0E94FB00F801B7
:100CF000868997898C0F9D1F978B868BCE01DF91FC
:100D0000CF911F910F91FF90DF90CF90BF90AF9048
:100D10000895CF92DF92EF92FF920F931F93CF939C
:100D2000DF93CDB7DEB7AF970FB6F894DEBF0FBE37
:100D3000CDBF7C016A0102ED11E01A8309831C8694
:100D40001B8688EE93E0A0E0B0E08D879E87AF879A
:100D5000B88B84E391E09A878987188F0F8B198E5F
:100D60001A8E1B8E1C8E84E089A31DA30CA31EA2C9
:100D70001FA218A619A68091E2029091E302A09109
:100D8000E402B091E5028CA79DA7AEA7BFA78B8315
:100D90009C83AD83BE8318861F82AE014C5D5F4F7E
:100DA000CE0101960E94490281309105B1F4D7012C
:100DB000ED91FC910488F589E02D1BA70AA78EA16F
:100DC0009FA1A8A5B9A58CA79DA7AEA7BFA7A6015F
:100DD000BE01665D7F4FC7010995AF960FB6F894C7
:100DE000DEBF0FBECDBFDF91CF911F910F91FF905E
:100DF000EF90DF90CF900895CF93DF93EC01888D33
:100E0000843061F00E94C10EE88DF0E0EE0FFF1F0C
:100E1000EC53FD4F1182108284E0888FDF91CF91D7
:100E20000895EF92FF921F93CF93DF93FC01208DE3
:100E3000243011F080E01CC07B01EC0110E0812F18
:100E40000E94900F811102C0188F05C08831E1F314
:100E50001F5F1430A1F7888D843061F3FD86EC8626
:100E60001A8E198E20E0A70162E00E94D50E81E063
:100E7000DF91CF911F91FF90EF9008959B0190E03B
:100E80000496982F8827642F820F931F0C940B0EC3
:100E90000F931F93CF93DF931F92CDB7DEB790E0F0
:100EA0000496982F88278C01060F171F0E948B0D20
:100EB0008FE00E94A50D812F0E94A50D802F0E941A
:100EC000A50D80E00E94A50D89830E94890D89816E
:100ED0000F90DF91CF911F910F910895CF93FC0157
:100EE000C08D80E590E00E94FC0060E270E08C2FF5
:100EF0000E94A90F62E070E08C2F0E94480784FDD9
:100F000019C062E070E08C2F0E94480783FF0BC07D
:100F100048E162E070E08C2F0E943E070E94FB00D7
:100F200080E090E011C00E94FB0080E590E00E940C
:100F3000FC00E0CF40E162E070E08C2F0E943E07B1
:100F40000E94FB0081E090E0CF910895CF93DF9362
:100F5000C82FD62F472F60E170E00E943E074D2F2B
:100F600061E170E08C2FDF91CF910C943E07FF92EE
:100F70000F931F93CF93DF93FB01DC0157961C92D5
:100F80001E9256975896FC908281811109C08381E8
:100F9000811106C08481811103C085818823F9F005
:100FA00041155105E1F08A01EF0180E590E00E94D2
:100FB000FC00BE016E5F7F4F2F2D30E0922F8827FF
:100FC00044E050E0845F9B4F0E94DC0DB8018F2D00
:100FD0000E94A6070E94FB0081E090E002C080E032
:100FE00090E0DF91CF911F910F91FF900895FC0148
:100FF0008485843011F00C94900F80E008954F9216
:101000005F926F927F928F929F92AF92BF92CF9298
:10101000DF92EF92FF921F93CF93DF93CDB7DEB7AE
:101020002D970FB6F894DEBF0FBECDBF7C0194ECB8
:10103000A92E92E0B92E10E0C12CD12C28EE422E20
:1010400023E0522E612C712C3CE8832E31E0932E4C
:101050001C821B824D825E826F8278869A82898290
:101060001D87D5012D913D915D01F7018481958109
:1010700028173907B1F4CE0101960E94F707843191
:1010800069F0CE0101960E94F7078C3151F4CE0130
:1010900001960E94F200892B91F003C0CC24C394E6
:1010A000D12C1F5F1430A1F6CD2871F4D701ED913A
:1010B000FC910084F185E02DC701099505C0CE01A2
:1010C00001960E94FF00EDCF2D960FB6F894DEBF7B
:1010D0000FBECDBFDF91CF911F91FF90EF90DF90BA
:1010E000CF90BF90AF909F908F907F906F905F90C8
:1010F0004F9008952F923F924F925F926F927F92FE
:101100008F929F92AF92BF92CF92DF92EF92FF9217
:101110000F931F93CF93DF93CDB7DEB72E970FB604
:10112000F894DEBF0FBECDBF7C016B015A010E9457
:10113000FF0704EC12E020E0612C712C88EE282ED1
:1011400083E0382E412C512C9CE8892E91E0992E79
:101150001C821B822D823E824F8258869A8289820F
:101160002D87F801419151918F01F701848195817B
:101170004817590741F4CE0101962E870E94F707C0
:101180002E858731E9F02F5F243011F7C3012E96A9
:101190000FB6F894DEBF0FBECDBFDF91CF911F9188
:1011A0000F91FF90EF90DF90CF90BF90AF909F9006
:1011B0008F907F906F905F904F903F902F90089509
:1011C000A501B601CE0101962E870E944501680E49
:1011D000791E2E85D8CF8F929F92AF92BF92CF92D9
:1011E000DF92EF92FF920F931F93CF93DF93CDB7D0
:1011F000DEB72D970FB6F894DEBF0FBECDBF7C01D2
:1012000000E010E038EE832E33E0932EA12CB12CB9
:101210004CE8C42E41E0D42E1C821B828D829E821B
:10122000AF82B886DA82C9820D87CE0101960E940C
:10123000F707811125C0F7014481558120E061E065
:10124000802F0E94D50E80E590E00E94FC0063E0B4
:1012500070E0802F0E944807833129F462E070E03B
:10126000802F0E94A90F0E94FB00F70184819581C5
:10127000000F111FF801EC53FD4F9183808305C0CF
:101280000F5F1F4F0430110539F62D960FB6F894F5
:10129000DEBF0FBECDBFDF91CF911F910F91FF90A9
:1012A000EF90DF90CF90BF90AF909F908F90089578
:1012B000CF93DF93FC0124852430D1F0EC010E9410
:1012C000F707843181F0882371F0883161F08C3127
:1012D00061F4E881F9810084F185E02DCE01099562
:1012E00021E0892B19F420E001C021E0822F01C008
:1012F00080E0DF91CF910895CF92DF92EF92FF923D
:101300000F931F93CF93DF936C017A018B01C0E0A1
:10131000D0E0CE15DF0589F0D8016D918D01D601A1
:10132000ED91FC910190F081E02DC6010995892B8A
:1013300011F47E0102C02196ECCFC701DF91CF915D
:101340001F910F91FF90EF90DF90CF9008953FB7DE
:10135000F8948091C0029091C102A091C202B09114
:10136000C30226B5A89B05C02F3F19F00196A11D09
:10137000B11D3FBFBA2FA92F982F8827820F911D2B
:10138000A11DB11DBC01CD0142E0660F771F881F72
:10139000991F4A95D1F708950E94AC116115710506
:1013A00079F0FB0101900020E9F73197AF01461B6E
:1013B000570BDC01ED91FC910280F381E02D099443
:1013C00080E090E008954F925F926F927F92EF924B
:1013D000FF920F931F93CF93DF93CDB7DEB7A19703
:1013E0000FB6F894DEBF0FBECDBF7C01FA01CB0172
:1013F00019A2223008F42AE08E010F5D1F4F422E01
:10140000512C612C712CBF01A30192010E94841107
:10141000F901CA01015011096A3014F4605D01C07C
:10142000695CD8016C93232B242B252B61F7B80121
:10143000C7010E94CE09A1960FB6F894DEBF0FBE79
:10144000CDBFDF91CF911F910F91FF90EF907F90D3
:101450006F905F904F9008958F929F92AF92BF923E
:10146000CF92DF92EF92FF920F931F93CF93DF9370
:101470007C01EB016C0182E0C80ED11C4701E5E064
:101480008E0E911C00E010E0F60141916F0150E0DA
:1014900060E070E02AE0CE010E94E3095C01E8818F
:1014A000F9810190F081E02D6EE2CE0109958A0D5F
:1014B0009B1D080F191FC814D90431F7F701458186
:1014C00050E060E070E02AE0CE010E94E309800F66
:1014D000911FDF91CF911F910F91FF90EF90DF90BF
:1014E000CF90BF90AF909F908F9008950F931F93D0
:1014F000CF93DF93EC010E94CE098C016AED71E07D
:10150000CE010E94CE09800F911FDF91CF911F91D4
:101510000F9108958F929F92AF92BF92CF92DF92D8
:10152000EF92FF920F931F93CF93DF93B82E4B014F
:101530008A01A22E68E270E00E944807C82FD0E01E
:1015400069E270E08B2D0E944807DC2FCC27C82B66
:101550009E013770CB2CD12CC601880F991FAC018E
:1015600048525D4F6A01FA0180819181820F931F79
:10157000A801420F531F4130584098F060E078E0D6
:101580007B01E21AF30AA701B4010E94AC0DA80185
:101590004E195F09B4016E0D7F1DF60180819181A6
:1015A00002C0A801B4010E94AC0DA1100EC0C00F72
:1015B000D11F4D2F68E270E08B2D0E943E074C2F0B
:1015C00069E270E08B2D0E943E07DF91CF911F9161
:1015D0000F91FF90EF90DF90CF90BF90AF909F90D2
:1015E0008F9008959F92AF92BF92CF92DF92EF9229
:1015F000FF920F931F93CF93DF93982E8B015A0185
:10160000690164E270E00E944807E82EF12C65E26F
:1016100070E0892D0E944807FE2CEE24E82AE7019D
:10162000C00FD11F9E013770E92CF12CC701880F24
:10163000991FAC0140535D4F7A01FA01808191817D
:10164000820F931FA9014C0D5D1D4130584090F051
:1016500000E018E0021B130BA801B5010E94DC0D8D
:10166000A601401B510BB501600F711FF70180816E
:10167000918102C0A601B5010E94DC0DCC0DDD1DDB
:101680004D2F64E270E0892D0E943E074C2F65E2E9
:1016900070E0892DDF91CF911F910F91FF90EF9016
:1016A000DF90CF90BF90AF909F900C943E07FF9239
:1016B0000F931F93CF93DF93F82EC0E0D0E08F2DD0
:1016C0000E948D0D8C01892B21F08F2D0E948D0D94
:1016D000EC01C017D10799F7CE01DF91CF911F918F
:1016E0000F91FF9008958F929F92AF92BF92CF92E9
:1016F000DF92EF92FF926B017C010E94A7094B01E0
:101700005C01C114D104E104F104F1F00E94A709C5
:10171000DC01CB0188199909AA09BB09883E9340CD
:10172000A105B10570F321E0C21AD108E108F10862
:1017300088EE880E83E0981EA11CB11CC114D10450
:10174000E104F10419F7DDCFFF90EF90DF90CF9027
:10175000BF90AF909F908F900895CF92DF92EF92BD
:10176000FF920F931F93CF93DF93CDB7DEB7C25491
:10177000D1090FB6F894DEBF0FBECDBFFC01828148
:101780009381A481B58123968CAF9DAFAEAFBFAFDF
:10179000239721E023962FAF239723964CAD5DAD81
:1017A0006EAD7FAD23974BAB5CAB6DAB7EAB89AFC2
:1017B0009AAFABAFBCAF8DA79EA7AFA7B8AB28AB16
:1017C0004DA55EA56FA578A94FA358A769A77AA7CD
:1017D0002EAB4BA95CA96DA97EA949A35AA36BA303
:1017E0007CA38B8F9C8FAD8FBE8F42ED51E05C8BC5
:1017F0004B8B3FEF3D8B3E8B3F8B188E5E874D872B
:101800002AA7CFA0D8A4E9A4FAA4CF86D88AE98AC7
:10181000FA8A2CA309A11AA12BA13CA109871A8736
:101820002B873C875A8349838B839C83AD83BE83FC
:101830006CE271E080E090E00E94730B1FB7F894B7
:101840008091CC02811163C08AE990E0FC0124916F
:101850004EEA50E0FA01649130E0220F331F2A571C
:101860003F4FF901A591B4912C91622309F040C03A
:10187000E2E7F0E02491FA014491FC01949199236C
:10188000B9F1222339F1233091F038F42130A9F055
:10189000223001F584B58F7D12C0273091F02830B9
:1018A000A1F02430B9F4809180008F7D03C0809135
:1018B00080008F77809380000DC084B58F7784BDC2
:1018C00009C08091B0008F7703C08091B0008F7DF8
:1018D0008093B000E92FF0E0EE0FFF1FE458FF4FB8
:1018E000A591B4918FB7F8949C91492B4C938FBFDD
:1018F0008AE00E94B90F8CB580618CBD8CB5806484
:101900008CBD8DE00E94B90F8BE00E94B90F8091D1
:10191000CC028F5F8093CC021FBF229A80E590E0BB
:101920000E94FC0060E880E090E00E940B0E65E5FC
:101930008BE190E00E940B0E65E58AE190E00E9449
:101940000B0E0E94FB0080E090E49093D102809304
:10195000D00280E090E69093D9028093D80280E094
:1019600098E49093D3028093D20280E098E690931B
:10197000DB028093DA0280E090E59093D5028093B9
:10198000D40280E090E79093DD028093DC0280E057
:1019900098E59093D7028093D60280E098E79093E1
:1019A000DF028093DE0280E590E00E94FC0046E0CA
:1019B00050E062E071E089E090E00E94DC0D44E0DC
:1019C00050E0BE016D5F7F4F8FE090E00E94DC0D24
:1019D00044E050E0BE01615F7F4F81E090E00E94F3
:1019E000DC0D44E050E0BE016B5E7F4F85E090E08F
:1019F0000E94DC0D0E94FB0081E08C8789859A851E
:101A0000AB85BC858093E2029093E302A093E4024D
:101A1000B093E502CE5BDF4F0FB6F894DEBF0FBE8A
:101A2000CDBFDF91CF911F910F91FF90EF90DF908D
:101A3000CF9008952FB7F8946091BC027091BD02C9
:101A40008091BE029091BF022FBF089508951F9309
:101A5000CF93DF93182F66E270E00E944807C82FEB
:101A6000D0E067E270E0812F0E944807DC2FCC278E
:101A70009E01282BC901DF91CF911F9108951F92DC
:101A80000F920FB60F9211242F933F938F939F9332
:101A9000AF93BF938091BC029091BD02A091BE0212
:101AA000B091BF023091CF0223E0230F2D3720F4F5
:101AB0000196A11DB11D05C026E8230F0296A11DA8
:101AC000B11D2093CF028093BC029093BD02A093DE
:101AD000BE02B093BF028091C0029091C102A0915A
:101AE000C202B091C3020196A11DB11D8093C00234
:101AF0009093C102A093C202B093C302BF91AF9171
:101B00009F918F913F912F910F900FBE0F901F903B
:101B100018952A9A08952A9808951F93CF93DF93D2
:101B2000182F60E270E00E944807C82FD0E061E201
:101B300070E0812F0E944807DC2FCC279E01282BC4
:101B4000C901DF91CF911F9108958EBD00000DB4A2
:101B500007FEFDCF8EB50895CF92DF92EF92FF92F0
:101B60000F931F93CF93DF93EC017A018B016C01EC
:101B7000C40ED51ECC15DD05A9F00E948B0D8FE09B
:101B80000E94A50D8D2F0E94A50D8C2F0E94A50DE2
:101B9000219680E00E94A50DF80181938F010E949B
:101BA000890DE8CFC701DF91CF911F910F91FF9071
:101BB000EF90DF90CF900895CF92DF92EF92FF9257
:101BC0000F931F93CF93DF93EC017A018B016C018C
:101BD000C40ED51ECC15DD05A1F00E948B0D80EF43
:101BE0000E94A50D8D2F0E94A50D8C2F0E94A50D82
:101BF0002196F80181918F010E94A50D0E94890D07
:101C0000E9CFC701DF91CF911F910F91FF90EF9026
:101C1000DF90CF9008951F93CF93DF9300D0CDB77F
:101C2000DEB7182F6A8399830E948B0D80EF0E9484
:101C3000A50D9981892F0E94A50D812F0E94A50DC8
:101C40006A81862F0E94A50D0E94890D81E00F9068
:101C50000F90DF91CF911F9108951F93CF93DF9342
:101C600000D0CDB7DEB7182F80E590E069837A8386
:101C70000E94FC0021E041E050E069817A81812FDF
:101C80000E948A0A0E94FB0081E090E00F900F9072
:101C9000DF91CF911F910895FF920F931F93CF93E0
:101CA000DF93F82E80E590E00E94FC00C0E0D0E0D9
:101CB0008F2D0E94270D8C01892B21F08F2D0E94E2
:101CC000270DEC01C017D10799F70E94FB00CE0148
:101CD000DF91CF911F910F91FF900895AF92BF9226
:101CE000CF92DF92EF92FF921F93CF93DF93182F43
:101CF0005B017A0180E590E00E94FC00C0E0D0E04A
:101D0000812F0E94270D6C01892B21F0812F0E94C9
:101D1000270DEC01CC15DD0599F7209799F463E0C8
:101D200070E0812F0E9448078431F1F08823E1F0B0
:101D3000C1E0D0E08C3111F4C0E0D0E0D195C19584
:101D4000D10912C0EC16FD060CF4E7011C161D06A5
:101D50005CF420E0AE01B501812F0E948A0A60E4A4
:101D600070E0812F0E94A90F0E94FB00CE01DF913D
:101D7000CF911F91FF90EF90DF90CF90BF90AF90E9
:101D80000895CF93C82F80E590E00E94FC0060E1A9
:101D900070E08C2F0E94A90F4FEF62E070E08C2F53
:101DA0000E943E07CF910C94FB00FF920F931F936C
:101DB000CF93DF9300D0CDB7DEB7F82E8A012A8308
:101DC00069830E94C10E80E590E00E94FC002A8198
:101DD0006981462F422B60E070E08F2D0E943E0704
:101DE0000115110551F40091CD021091CE020F5F43
:101DF0001F4F1093CE020093CD02412F64E070E09C
:101E00008F2D0E943E07402F65E070E08F2D0E94CD
:101E10003E0761E070E08F2D0E94A90F0E94FB0039
:101E200081E00F900F90DF91CF911F910F91FF9064
:101E30000895BF92CF92DF92EF92FF920F931F937C
:101E4000CF93DF9300D000D000D0CDB7DEB7FC0138
:101E5000208D243009F053C06A017B018C01B12C24
:101E600063E070E08B2D0E944807811103C0F801E8
:101E7000B08E06C08831D9F3B394F4E0BF12F0CF2E
:101E8000F801808D8430D9F196E0EEEAF1E0DE01D0
:101E9000119601900D929A95E1F7F70193819F7742
:101EA0009C8394819D8395819E83B7016E5F7F4F54
:101EB00090E0982F882744E050E0845F9B4F0E9479
:101EC000DC0DB601F801808D0E94A607F801808D17
:101ED00090E0982F882746E050E0BE016F5F7F4F6B
:101EE0008A5F9B4F0E94DC0DF801128E118E20E854
:101EF000A60162E0808D0E94D50E81E001C080E0E5
:101F000026960FB6F894DEBF0FBECDBFDF91CF91FE
:101F10001F910F91FF90EF90DF90CF90BF900895A9
:101F20001F93CF93DF931F92CDB7DEB7182F80E5B5
:101F300090E00E94FC0063E070E0812F0E9448075F
:101F400089830E94FB0089810F90DF91CF911F91BF
:101F50000895CF93C82F462F61E070E00E943E079E
:101F600061E070E08C2F0E9448078111F9CFCF917A
:101F7000089590E0FC01EC55FF4F2491FC01E057DF
:101F8000FF4F8491882399F090E0880F991FFC01FE
:101F9000EA57FF4FA591B491FC01E458FF4F85919A
:101FA00094918FB7F894EC91E22BEC938FBF089546
:101FB000CF93DF93CDB7DEB76A970FB6F894DEBF45
:101FC0000FBECDBF789484B5826084BD84B5816036
:101FD00084BD85B5826085BD85B5816085BD8091F4
:101FE0006E00816080936E0010928100809181006C
:101FF0008260809381008091810081608093810064
:10200000809180008160809380008091B100846025
:102010008093B1008091B00081608093B000809186
:102020007A00846080937A0080917A008260809345
:102030007A0080917A00816080937A0080917A00A2
:10204000806880937A001092C10082ED91E09A83BB
:1020500089838091F6029091F702A091F802B091E5
:10206000F9028B839C83AD83BE83CE0101960E94CF
:10207000AD0B8EEE92E00E94EB0890E0A92E90E06E
:10208000B92E28EE422E23E0522E612C712C3CE812
:10209000E32E31E0F32E8EEE92E00E94FF0784ECF7
:1020A000C82E82E0D82E10E01C821B824D825E82F8
:1020B0006F827886FA82E9821D87F601219131913B
:1020C0006F018091F2029091F3022817390739F5D8
:1020D000CE0101960E94F707873111F08C31F9F497
:1020E000CE0101960E94F200892BC9F08B819C8160
:1020F000998B888B8D819E81AF81B8858A8B9B8BD4
:10210000AC8BBD8B89859A85AB85BC858E8B9F8B6F
:10211000A88FB98FFF86EE868D858A8F0CC01F5FD2
:10212000143011F6198A188A4A8A5B8A6C8A7D8A69
:10213000FF86EE861A8F8A8D843009F47BC011E009
:10214000CE010E960E945809882309F469C0CE0179
:102150000E960E94F200892B99F3CE010E960E94F2
:10216000D8008A3009F057C0112349F36DED71E0B2
:10217000CE010E960E94760A6DEE71E0CE010E96AB
:102180000E94760A65E072E0CE010E960E94760A01
:102190006AED71E0CE010E960E94CE0967E172E011
:1021A000CE010E960E94760A67E272E0CE010E968C
:1021B0000E94760A6EE272E0CE010E960E94760AC6
:1021C00065E372E0CE010E960E94760A65E572E044
:1021D000CE010E960E94760A6DE572E0CE010E9653
:1021E0000E94760A64E672E0CE010E960E94760A9C
:1021F00061E872E0CE010E960E94760A6BEA72E008
:10220000CE010E960E94760A63EB72E0CE010E9626
:102210000E94760A05C08D3009F492CF10E090CF6D
:1022200061E070E080E090E00E94730BCE010E96BA
:102230000E94FF00A114B10409F42DCF0E940000F8
:102240002ACFEAEFF2E082ED91E09183808312825F
:10225000138214821582E0E0F3E09183808312827E
:10226000138214821582E6E0F3E091838083128268
:10227000138214821582ECE0F3E091838083128252
:10228000138214821582E2E1F3E09183808312824B
:10229000138214821582E0EEF2E091838083128231
:1022A000138214821582E8EEF2E091838083128219
:1022B000138214821582E8E1F3E091838083128215
:1022C000138214821582EEE1F3E0918380831282FF
:1022D000138214821582E4EFF2E09183808380EC14
:1022E000828388EA838381E0848388EC8583EEEEB1
:1022F000F2E01382128288EB91E09183808380E583
:1023000090E0958384830895A1E21A2EAA1BBB1B3B
:10231000FD010DC0AA1FBB1FEE1FFF1FA217B307B1
:10232000E407F50720F0A21BB30BE40BF50B661FC7
:10233000771F881F991F1A9469F76095709580958B
:1023400090959B01AC01BD01CF010895EE0FFF1FD9
:102350000590F491E02D099481E090E0F8940C94BC
:06236000B111F894FFCF5B
:1023660000C0DEADBEEFFEED00000000CC09CC09DA
:10237600AE00CC09CC09CC09CC09CC096C05CC093A
:10238600CC09CC09CC09CC09CC09CC09CC09CC099F
:102396000000000037055106AE00260D4D05CF059D
:1023A60097051107190FFC06B70789066E07F8058A
:1023B600B00565055505510500000000CC09CC099E
:1023C600AE00CC09CC09CC09CC09CC09CC09CC0986
:1023D600CC09CC09CC0900000000CC097C09AE0070
:1023E600AD00CC09CC09CC090000000088004501ED
:1023F600AE008700F200D800B100B901C404D400D1
:10240600FF0058098F05AA00A80084059E00010058
:102416005E000000000000006E057A08AE00AD0008
:10242600EB0800000000CC097C09AE00AD000000FE
:1024360000002C0A00000000CC090D0A0048545484
:10244600502F312E3120323030204F4B00436F6EEB
:1024560074656E742D547970653A20746578742F9E
:1024660068746D6C00436F6E6E656374696F6E3A67
:1024760020636C6F7365003C21444F4354595045AB
:102486002068746D6C3E003C68746D6C3E003C6860
:102496006561643E003C7469746C653E41726475A6
:1024A600696E6F2057656220506167653C2F7469BD
:1024B600746C653E003C2F686561643E003C626F4B
:1024C60064793E003C68313E48656C6C6F206672EC
:1024D6006F6D2041726475696E6F213C2F68313EC5
:1024E600003C703E4120776562207061676520661A
:1024F600726F6D207468652041726475696E6F2015
:102506007365727665723C2F703E003C2F626F6475
:0C251600793E003C2F68746D6C3E0000A4
:00000001FF
