:100000000C94F7000C941F010C941F010C941F0119
:100010000C941F010C941F010C941F010C941F01E0
:100020000C941F010C941F010C941F010C941F01D0
:100030000C941F010C941F010C941F010C941F01C0
:100040000C9424040C941F010C9424030C94FE02C1
:100050000C941F010C941F010C941F010C941F01A0
:100060000C941F010C941F01450000820000400009
:100070002024463C7469746C653E457468657263FF
:10008000617264204C45443C2F7469746C653E5425
:10009000657374203C6120687265663D223F72651D
:1000A000673D3132333435223E746573743C2F61C1
:1000B0003E3C62723E00485454502F312E30203264
:1000C0003030204F4B0D0A436F6E74656E742D54A3
:1000D0007970653A20746578742F68746D6C0D0AB8
:1000E000507261676D613A206E6F2D636163686560
:1000F0000D0A0D0A0024463C7469746C653E694E15
:1001000075756B204D6F64756C6520496E666F2048
:10011000736974653C2F7469746C653E6D794970C0
:100120003D24442E24442E24442E24440D0A677773
:1001300049703D24442E24442E24442E2444004857
:100140005454502F312E302034303120556E61758B
:1001500074686F72697A65640D0A436F6E74656EB8
:10016000742D547970653A20746578742F68746DB5
:100170006C0D0A0D0A3C68313E34303120556E61F9
:100180007574686F72697A65643C2F68313E0063EC
:1001900082536300010800060400010000000024EF
:1001A0000027002A0000000000250028002B000482
:1001B000040404040404040202020202020303030E
:1001C0000303030102040810204080010204081008
:1001D00020010204081020000000080002010000B5
:1001E000030407000000000000000000701111244B
:1001F0001FBECFEFD8E0DEBFCDBF24E0A2EBB1E061
:1002000001C01D92A93BB207E1F711E0A0E0B1E007
:10021000EEE8F9E202C005900D92A23BB107D9F7D2
:1002200010E0C7EFD0E004C02197FE010E947E12CB
:10023000C63FD107C9F70E94210A0C94C5140C943B
:100240000000CF92DF92EF92FF920F931F93CF9314
:10025000DF936C017A018B01C0E0D0E0CE15DF05A1
:1002600089F0D8016D918D01D601ED91FC9101903D
:10027000F081E02DC6010995892B11F47E0102C0A1
:100280002196ECCFC701DF91CF911F910F91FF9085
:10029000EF90DF90CF900895FC01538D448D252F72
:1002A00030E0842F90E0821B930B541710F0CF9610
:1002B000089501970895FC01918D828D981761F042
:1002C000828DDF01A80FB11D5D968C91928D9F5F8D
:1002D0009F73928F90E008958FEF9FEF0895FC0138
:1002E000918D828D981731F0828DE80FF11D858DEB
:1002F00090E008958FEF9FEF0895FC01918D228D7E
:10030000892F90E0805C9F4F821B91098F73992702
:10031000089580E194E00E947D0121E0892B09F499
:1003200020E0822F0895FC01848DDF01A80FB11D0C
:10033000A35ABF4F2C91848D90E001968F7399271B
:10034000848FA689B7892C93A089B1898C91806408
:100350008C93938D848D981306C00288F389E02DC9
:1003600080818F7D80830895EF92FF920F931F937A
:10037000CF93DF93EC0181E0888F9B8D8C8D981358
:1003800005C0E889F989808185FD24C0F62E0B8D92
:1003900010E00F5F1F4F0F731127E02E8C8DE812B6
:1003A0000CC00FB607FCFACFE889F989808185FF78
:1003B000F5CFCE010E949301F1CF8B8DFE01E80FA6
:1003C000F11DE35AFF4FF0820B8FEA89FB89808190
:1003D000806207C0EE89FF896083E889F98980819E
:1003E0008064808381E090E0DF91CF911F910F9135
:1003F000FF90EF900895CF93DF93EC01888D8823D1
:10040000C9F0EA89FB89808185FD05C0A889B98981
:100410008C9186FD0FC00FB607FCF5CF808185FF5C
:10042000F2CFA889B9898C9185FFEDCFCE010E94CA
:100430009301E7CFDF91CF91089580E090E0892B81
:1004400029F00E94890181110C94000008953FB7A2
:10045000F8948091040490910504A0910604B09151
:10046000070426B5A89B05C02F3F19F00196A11DD2
:10047000B11D3FBFBA2FA92F982F8827820F911D3A
:10048000A11DB11DBC01CD0142E0660F771F881F81
:10049000991F4A95D1F70895E091FC03F091FD036F
:1004A0009F012F5F3F4F3093FD032093FC03808318
:1004B0000895EF92FF920F931F93CF93DF931F92B4
:1004C000CDB7DEB7062F142F59830E944C02802F20
:1004D0000E944C02E12E5981F52E100F1E1531F0AD
:1004E000F70181917F010E944C02F8CF0F90DF91BC
:1004F000CF911F910F91FF90EF900895DC01169618
:10050000ED91FC9117979F012F5F3F4F17963C93FA
:100510002E931697608381E090E00895089580E01F
:1005200090E008950E947B14EF92FF920F931F9327
:10053000CF93DF93EC017B018A0188819981009739
:1005400029F02A813B8124173507F8F4B8016F5F41
:100550007F4F0E94B113009759F0998388831B83C2
:100560000A832C813D81232B81F4FC0110820DC074
:1005700088819981009711F00E94191319821882BD
:100580001D821C821B821A8207C01D830C83B70147
:10059000888199810E949614CE01DF91CF911F919D
:1005A0000F91FF90EF900895FC0111821082138249
:1005B0001282158214826115710551F0FB010190C0
:1005C0000020E9F73197AF01461B570B0C949402BA
:1005D00008956115710579F0FB0101900020E9F79C
:1005E0003197AF01461B570BDC01ED91FC91028066
:1005F000F381E02D099480E090E008951F920F921E
:100600000FB60F9211242F933F934F935F936F93E5
:100610007F938F939F93AF93BF93EF93FF9380E16B
:1006200094E00E949301FF91EF91BF91AF919F9150
:100630008F917F916F915F914F913F912F910F908B
:100640000FBE0F901F9018951F920F920FB60F922A
:1006500011242F938F939F93EF93FF93E0912004A6
:10066000F09121048081E0912604F091270482FD1D
:1006700012C09081809129048F5F8F7320912A048A
:10068000821751F0E0912904F0E0E05FFB4F958F75
:100690008093290401C08081FF91EF919F918F91F8
:1006A0002F910F900FBE0F901F90189590E0FC01B6
:1006B000E952FE4F3491FC01ED53FE4F2491FC01B1
:1006C000E155FE4FE491EE2309F43BC0332339F1A9
:1006D000333091F038F43130A9F0323001F584B57F
:1006E0008F7D12C0373091F03830A1F03430B9F43A
:1006F000809180008F7D03C0809180008F778093F0
:1007000080000DC084B58F7784BD09C08091B00092
:100710008F7703C08091B0008F7D8093B000F0E0B0
:10072000EE0FFF1FEB55FE4FA591B4918FB7F894D4
:10073000EC91611103C020952E2301C02E2B2C9328
:100740008FBF0895CF93DF9390E0FC01ED53FE4FF0
:100750002491FC01E155FE4F8491882361F190E0E2
:10076000880F991FFC01E556FE4FC591D491FC01FD
:10077000EB55FE4FA591B491611109C09FB7F89454
:100780008881209582238883EC912E230BC06230D0
:1007900061F49FB7F8943881822F809583238883F2
:1007A000EC912E2B2C939FBF06C08FB7F894E88155
:1007B0002E2B28838FBFDF91CF9108958F929F9228
:1007C000AF92BF92CF92DF92EF92FF926B017C01CA
:1007D0000E9427024B015C01C114D104E104F10421
:1007E000F1F00E942702DC01CB0188199909AA09BE
:1007F000BB09883E9340A105B10570F321E0C21A00
:10080000D108E108F10888EE880E83E0981EA11C4B
:10081000B11CC114D104E104F10419F7DDCFFF903C
:10082000EF90DF90CF90BF90AF909F908F90089502
:100830002FB7F89460910004709101048091020434
:10084000909103042FBF08951F920F920FB60F923D
:1008500011242F933F938F939F93AF93BF938091D6
:10086000000490910104A0910204B091030430911E
:10087000FF0323E0230F2D3720F40196A11DB11DA6
:1008800005C026E8230F0296A11DB11D2093FF038A
:100890008093000490930104A0930204B093030496
:1008A0008091040490910504A0910604B09107047E
:1008B0000196A11DB11D8093040490930504A0939B
:1008C0000604B0930704BF91AF919F918F913F9120
:1008D0002F910F900FBE0F901F9018958F929F929F
:1008E000AF92BF92CF92DF92EF92FF921F93CF937E
:1008F000DF93CDB7DEB7A1970FB6F894DEBF0FBE7A
:10090000CDBFD62E172FBC0180E194E00E94E902F2
:10091000ED2CF12E10E08AE0882E912CA12CB12C28
:10092000F70181917F01282F30E040E050E019A2CB
:10093000CE0181966C01CA01B901A50194010E9402
:100940005C12605DF60162936F012115310541056E
:10095000510589F7BF0180E194E00E94E90213305C
:1009600059F0E0911004F09111040190F081E02D14
:100970006EE280E194E009951F5F143089F667E626
:1009800071E080E194E00E94E902A1960FB6F8942C
:10099000DEBF0FBECDBFDF91CF911F91FF90EF90D3
:1009A000DF90CF90BF90AF909F908F900895DC0123
:1009B00096E0FB0101900D929A95E1F70895FB01F5
:1009C0004081518162817381FC0140835183628344
:1009D00073830895CF93DF93EB0144E050E0BC01B3
:1009E0008EEE91E00E948014892B39F468EE71E05C
:1009F000CE010E94D70481E001C080E0DF91CF9159
:100A000008958091E20190E0982F88272091E301DA
:100A1000822B44972091000230E044E035952795E1
:100A20004A95E1F7220F331F220F331F821B930BCE
:100A300097FF02C080E090E008952091F601309188
:100A4000F4013093F6012093F4012091F7013091E5
:100A5000F5013093F7012093F5012CEF31E0A0E090
:100A6000B2E0F9014291840F911D4E918C9366235F
:100A700011F0408301C01082892F992744E04E0F66
:100A80004213F0CF109204021092050280E5809389
:100A900000020895BC0182ED91E00E94D7046CEB46
:100AA00071E088ED91E00C94D704CF93DF9300D0F0
:100AB000CDB7DEB769837A830E944A0569817A815E
:100AC00080EF91E00E94DF046CE074E08CEE91E036
:100AD0000F900F90DF91CF910C94DF040F931F9331
:100AE000CF93DF9370E06E527E4F213021F48A0164
:100AF000075F1F4F0CC0223039F000E010E0980172
:100B0000DB011196EA0106C08A010250110920E0BA
:100B100030E0F6CFC230D10578F0FD013197E081A9
:100B2000F0E0FE2FEE279C91E92B0E0F1F1F211DD9
:100B3000311D22971296EECFFA01EE7FE60FF71FD6
:100B400040FF0CC0408150E060E070E0762F652FE0
:100B5000542F4427040F151F261F371FA90166278E
:100B60007727411551056105710519F022273327B3
:100B7000F1CF00951095E82FF0E0EE52FE4F108374
:100B80000183DF91CF911F910F910895E2EDF1E084
:100B9000108E118E80E4848B158A868B20E044E1D0
:100BA00050E06EE088E10C946E0588ED91E00E94C3
:100BB0004A056CEE71E080EF91E00E94DF046CE08A
:100BC00074E08CEE91E00E94DF040C94C6058EBDAB
:100BD0000DB407FEFDCF089561E08091B2010E943F
:100BE000560378940895F89460E08091B2010C94D3
:100BF00056030F931F93CF93DF93EC018B010E9459
:100C0000F3052097B9F08AE30E94E7051EBCF801BE
:100C1000CE01019739F00DB407FEFDCF2EB51EBCF5
:100C20002193F7CF2197C00FD11F0DB407FEFDCF41
:100C30008EB58883DF91CF911F910F910C94EC05B5
:100C4000CF93DF9300D01F92CDB7DEB74B836A837B
:100C500089830E94F3056A816F718981862B0E94C6
:100C6000E7054B81842F0E94E7050F900F900F90AE
:100C7000DF91CF910C94EC051F93CF93DF93182F46
:100C80001076C12FD0E02091FE0330E0C217D307C9
:100C9000A1F043E06FE180EA0E9420061093FE037A
:100CA000AE0185E0559547958A95E1F76FE180E8BB
:100CB000DF91CF911F910C942006DF91CF911F916E
:100CC00008951F93CF93DF931F92CDB7DEB7182FF0
:100CD00069830E943C064981612F80E40F90DF9177
:100CE000CF911F910C9420061F93CF93DF931F92F7
:100CF000CDB7DEB7182F79830E9461067981672FFF
:100D000081E0810F0F90DF91CF911F910C946106CC
:100D10001F93CF93DF931F92CDB7DEB7182F0E949A
:100D20003C060E94F305812F8F710E94E70580E049
:100D30000E94E70517FF03C080E00E94E7058EB51B
:100D400089830E94EC0589810F90DF91CF911F91DB
:100D50000895CF93DF93EC0140E86FE180E80E94B3
:100D6000200640E86FE180EA0E9420064AE06CE13C
:100D700080EA0E94200660E07CE082E00E94740627
:100D8000BE01745F86E00E94740640E060E08AE77E
:100D90000E9420060E94F305209751F40E94EC0562
:100DA00048E06FE180E80E942006C0E0D0E01CC06F
:100DB0008AE70E94E7058091D2018EBDE3EDF1E064
:100DC000CE52DE4FEC17FD0731F081910DB407FED6
:100DD000FDCF8EBDF7CF0DB407FEFDCFDFCF21963F
:100DE000C83E83E0D80729F08CE10E9488068A700B
:100DF000B1F38CE10E94880681FD03C0C83ED34058
:100E000039F448E06FE180EADF91CF910C9420063D
:100E1000DF91CF9108950F931F93CF938C0187E3B8
:100E200091E00E944A05E2EDF1E088E08487C6E0A7
:100E3000C58748E050E063E971E080EE91E00E94F0
:100E4000A511E2EFF1E0DF011D92CA95E9F76CEB25
:100E500071E088EE91E00E94D704B80188EF91E03C
:100E60000E94DF046CE074E08EEE91E00E94DF04EB
:100E70008AE290E0CF911F910F910C94A9060F93F5
:100E80001F93CF93DF938C018896C2EDD1E0988BAE
:100E9000898B0E94C6051AAA1BAAA801445E5F4F4F
:100EA00022E06AE182E30E946E05C801C696DF91E6
:100EB000CF911F910F910C94A906262F20612093AA
:100EC0000102643021F0009711F481E090E061E0CC
:100ED0000E941D051092E20188E28093E3010E94C6
:100EE000D50584E0809302021092030222E04CE1D7
:100EF00050E06AE182E30E946E0586E390E00C9484
:100F0000A906CF92DF92EF92FF920F931F93863440
:100F1000910568F12091F501233449F5C090000254
:100F2000D0900102E0900202F09003020091B7011C
:100F30001091B8012091B9013091BA01C016D106C3
:100F4000E206F306A1F4ECEEF2E08E529E4F9F0112
:100F50002E5F3F4F41815081553319F4528156170E
:100F600041F0F901E40FF11DE817F90780F380E083
:100F700001C081E01F910F91FF90EF90DF90CF9023
:100F80000895FF920F931F93CF93DF938C0186E117
:100F900091E0E2EDF1E0DF019C011D922150304033
:100FA000E1F78091BB01833019F0C7E3D1E002C0C3
:100FB000C3EBD1E0CE010E94030ABE01882319F0E1
:100FC00086EC91E002C08CEC91E00E94550588818E
:100FD000807F803E91F088819981AA81BB818F3F7B
:100FE0009F4FAF4FBF4F49F044E050E0BE0182EC4D
:100FF00091E00E948014892B31F467E371E082ED67
:1010000091E00E94D70488E08093DE011092DF0116
:1010100049E050E068E670E080EE91E00E94A511A2
:101020001092E20181E18093E9011092F60183E4DC
:101030008093F7011092F40184E48093F5011092FB
:10104000F8011092FA011092FB0167E371E082ED62
:1010500091E00E94D70481E08093FC018093FD0120
:1010600086E08093FE018091B7019091B801A09134
:10107000B901B091BA018093000290930102A0934C
:101080000202B09303028091BB01833031F46CE023
:1010900074E088E092E00E94DF046CEB71E088E18C
:1010A00092E00E94D70488EE92E09093FD03809333
:1010B000FC03CFE8D1E0FC2E84E0F80EFE01849121
:1010C0000E944C022196FC12F9CF85E30E944C024B
:1010D00081E00E944C028091BB01882311F083E0E3
:1010E00001C081E00E944C028DE30E944C0287E027
:1010F0000E944C0281E00E944C02CCEBD1E0FC2E1D
:1011000026E0F20EFC1621F089910E944C02FACFE3
:1011100080911001882371F0E0E1F1E0019000205E
:10112000E9F73197BF016051714040E151E08CE037
:101130000E9459020115110559F0A80164E082E3EB
:101140000E94590243EB51E064E086E30E94590299
:1011500087E30E944C0283E00E944C0281E00E94DF
:101160004C0283E00E944C0286E00E944C028FEF0A
:101170000E944C02C091FC03D091FD03CC5FD14092
:10118000CE014C969093E2018093E3010E94C60544
:10119000CE0108969093F8018093F901AE01405F6B
:1011A0005F4F21E06AE188E20E946E05CE018A96D7
:1011B000DF91CF911F910F91FF900C94A906CF93CF
:1011C000DF93EC01FB018A30910548F06AE070E0A2
:1011D0000E944812CB01BF010E94DF08FC01CE0132
:1011E0006AE070E00E944812805D80831182CF0126
:1011F0000196DF91CF910895CF92DF92EF92FF9207
:101200000F931F93CF93DF93CDB7DEB7ED84FE84AA
:101210008E01015F1F4FC7010196F7012491222320
:1012200009F4D1C0243271F0E091B304F091B40418
:10123000AF014F5F5F4F5093B4044093B3042083DA
:101240007C01E9CFF2E0EF0EF11CFC0194919634A1
:1012500009F46EC05CF49434B9F0953409F097C089
:10126000F801808191810E5F1F4F7AC04091B304D5
:101270005091B4049C3409F443C0933509F44DC033
:10128000983409F084C00EC06801F2E0CF0ED11C82
:101290006091B3047091B404F801808191810E943F
:1012A000DF0882C0B8016E5F7F4FF8019081292F5F
:1012B000092E000C330B84E0359527958A95E1F7CC
:1012C0002F709F709A300CF0995F905D2A300CF06F
:1012D000295FFA013196F093B404E093B304205DE2
:1012E000FA012083E091B304F091B4049F012F5FD1
:1012F0003F4F3093B4042093B30490838B018BCF82
:101300006801F4E0CF0ED11CF80160817181828107
:1013100093812AE00E94AE1147C06801F2E0CF0E2F
:10132000D11CF80160817181CA010E9496143CC0F1
:10133000F8010190F081E02D0E5F1F4F84913196EE
:10134000882309F468CFA091B304B091B4049D013F
:101350002F5F3F4F3093B4042093B3048C93EECFB0
:101360006C01FFEFCF1ADF0A0E94EF11882309F406
:1013700052CFE091B304F091B4049F012F5F3F4F2F
:101380003093B4042093B3048083C601E9CFE09185
:10139000B304F091B4049F012F5F3F4F3093B40426
:1013A0002093B304908337CFE091B304F091B40459
:1013B00001900020E9F7CF0101979093B404809346
:1013C000B304860128CFDF91CF911F910F91FF9039
:1013D000EF90DF90CF900895CF93DF93FC0144818D
:1013E00055816081718180E194E00E942101EC01CE
:1013F00067E671E080E194E00E94E9028C0F9D1F96
:10140000DF91CF910895CF93DF9320910C04222395
:10141000A1F0FC012081222381F0ACE0B4E0C8E01F
:10142000D4E08D91219199918227892331F484E030
:10143000A031B807B1F781E001C080E0DF91CF9122
:101440000895CF93DF93CDB7DEB766970FB6F894C4
:10145000DEBF0FBECDBF789484B5826084BD84B5F5
:10146000816084BD85B5826085BD85B5816085BD9F
:1014700080916E00816080936E0010928100809157
:1014800081008260809381008091810081608093DF
:101490008100809180008160809380008091B10004
:1014A00084608093B1008091B00081608093B0002F
:1014B00080917A00846080937A0080917A008260C3
:1014C00080937A0080917A00816080937A00809185
:1014D0007A00806880937A001092C100E091200425
:1014E000F091210482E08083E0911C04F0911D04BE
:1014F0001082E0911E04F0911F048FEC8083109203
:101500002804E0912404F091250486E08083E09192
:101510002204F0912304808180618083E091220481
:10152000F0912304808188608083E0912204F0910F
:101530002304808180688083E0912204F091230459
:1015400080818F7D80836BE571E080E194E00E9473
:10155000E90267E671E080E194E00E94E9021092FE
:10156000F90387E390E001E010E020E030E000972D
:10157000D1F0FC01A3E0F595E795AA95E1F7EA53D0
:10158000FC4F482F47706801790104C0CC0CDD1C6A
:10159000EE1CFF1C4A95D2F7B701A601A0814A2B89
:1015A00040830197E4CF60E071E08CEB91E00E9412
:1015B000D70484EF91E09093CE038093CD030CB4D5
:1015C00006FC25C061E08AE00E94A20361E08AE097
:1015D0000E94560361E08BE00E94A20361E08DE06F
:1015E0000E94A20360E08CE00E94A20361E08BE015
:1015F0000E94560360E08BE00E94560360E08DE09D
:101600000E94560380E58CBD8DB581608DBD8AE05A
:101610008093B20161E00E94A2030E94EC054FEFAB
:1016200060E08FEF0E94200662E070E080E090E0D2
:101630000E94DE030E94F3058DE10E94E70580E031
:101640000E94E7051EB50E94EC05112399F360E0A6
:1016500070E088E00E94740660E070E08CE00E9418
:1016600074066FEF7BE08AE00E94740660E07CE025
:1016700084E00E9474066FEF71E186E00E947406B8
:1016800061EB88E30E9461066FE370E388E20E94E9
:10169000740669EF77EF80E30E9474066DE080ECDA
:1016A0000E94610660E081EC0E94610642E362EC08
:1016B00080E80E94200662E17CE086EC0E947406CD
:1016C00062E184EC0E9461066CED75E08AEC0E9498
:1016D00074066091BC0184EE0E9461066091BD01B8
:1016E00085EE0E9461066091BE0182EE0E94610655
:1016F0006091BF0183EE0E9461066091C00180EE9F
:101700000E9461066091C10181EE0E94610660E164
:1017100084ED0E94610660E071E086ED0E9474062F
:101720008AEE0E94880680FDFBCF8FE10E943C0676
:1017300040EC6BE180E80E94200644E06FE180E825
:101740000E94200682E70E948806863008F08F5F9C
:1017500081110CC06AE671E080E194E00E94E90228
:1017600067E671E080E194E00E94E9021092F903DB
:1017700068E071E08CE094E00E94DF0481E08093F7
:10178000F8036CE071E082EF93E00E94DF0428E050
:1017900034E062EC71E0ECE0F4E044E04E0F919153
:1017A000D9018D919D018095892BDB018D93BD0120
:1017B0004E13F5CF1092F7031092F6036CE074E02D
:1017C0008FE891E00E946E0462EF73E085E991E09A
:1017D0000E946E046DEE73E08BE991E00E946E044E
:1017E00078E0872E72E0972EA090E103B090E2039C
:1017F0002090DF033090E00325016090E3037090B8
:10180000E4038091D103882389F06091CF03709124
:10181000D0036115710519F46FEF7BE002C06150D0
:1018200071098CE00E9474061092D10389E30E9432
:1018300088068823C9F16091CF037091D00380E0BE
:101840000E947406BE016F5F7F4F86E090E00E94A9
:10185000F90589819A819093D0038093CF030B81FE
:101860001C818091CD039091CE032D8127FF0DC067
:101870000197045011098017910708F48C0162ED5B
:1018800071E0C8010E94F90502C000E010E0F80113
:10189000EE52FE4F108281E08093D10340E46EE16E
:1018A00080E80E94200602C000E010E08091F90369
:1018B000882309F443C18091BB01823009F488C0B8
:1018C00030F4882381F1813009F44DC037C1833071
:1018D00021F0843009F47CC031C1C090DB03D0908A
:1018E000DC03E090DD03F090DE03BFEFCB16DB06F8
:1018F000EB06FB0609F422C10E9418042091D703CD
:101900003091D8034091D9035091DA03DC01CB0127
:10191000821B930BA40BB50B8C159D05AE05BF0563
:1019200008F01DC20BC10E9418046093B7017093A8
:10193000B8018093B9019093BA0110920C041092EF
:101940000D0410920E0410920F0480E090E00E94AB
:10195000C10788E30E948806682F616088E30E94BF
:10196000610681E028C062E0C8010E9481078823E7
:10197000A9F16CE072E0CE0101960E94DF04ECEE6A
:10198000F2E0C8018E529E4FBF016E5F7F4F2181F2
:101990003081363329F483EB91E00E94DF0406C0E6
:1019A000FB01E20FF11DE817F90770F3CE01019674
:1019B0000E94C10782E08093BB010E9418046093DB
:1019C000D3037093D4038093D5039093D603B6C00A
:1019D00065E0C8010E948107811119C00E941804A6
:1019E0002091D3033091D4034091D5035091D60375
:1019F000DC01CB01821B930BA40BB50B8131974209
:101A0000A105B10508F49AC01092BB0197C080915E
:101A1000D203811108C088E30E948806682F6E7F78
:101A200088E30E9461066CE072E08CE094E00E9422
:101A3000DF04ECEEF2E0C8018E529E4F9D8B8C8B42
:101A40006F0192E0C90ED11CE180EB8A8081863063
:101A5000A9F048F4813071F0833009F045C0B60137
:101A600082EF93E00EC08A3379F08F3FD9F1833350
:101A7000D9F50AC0B60188E094E003C0B6018DEE46
:101A800093E00E94DF0430C0D601369620E030E0BB
:101A9000A9018D91742F632F522F44279A01AB0116
:101AA000280F311D411D511DAE17BF0791F720931F
:101AB000DB033093DC034093DD035093DE032F3FC1
:101AC0008FEF38074807580779F0A8EEB3E00E9477
:101AD000F7116093DB037093DC038093DD03909335
:101AE000DE0302C081E001C080E0F601EB88EE0D6C
:101AF000F11D811106C0CC88DD88EC15FD0508F4C8
:101B00009FCF0E9418046093D7037093D8038093EB
:101B1000D9039093DA038091F203882361F0109245
:101B2000F7031092F60381E08093F80362EF73E00D
:101B3000CB010E94DF0483E08093BB0101151105F6
:101B400009F0BDC08091F8038570E1F08091F60343
:101B50009091F703892BB1F461E184ED0E94610655
:101B600061E082ED0E9461068AEE0E94880680FD97
:101B7000FBCF60E082ED0E94610689ED0E9488063D
:101B800082FDF3C08091F6039091F7030196909344
:101B9000F7038093F6038091F103813009F070C060
:101BA0008091F80381FF6CC082E08093F103809103
:101BB00007018F5F80930701182F1F7187EE93E055
:101BC0000E94030A67EE73E0882319F086EC91E027
:101BD00002C08CEC91E00E94550508E00093DE0104
:101BE0001092DF0149E050E068E670E080EE91E09D
:101BF0000E94A5118CE28093E30186E08093E901C5
:101C00000E94C6051092F6011092F7018BE08093B6
:101C1000F4011093F501E8EFF1E0DF011D920A9560
:101C2000E9F7809106018093FA018D5F80930601A8
:101C300080E68093000282E08093010293E090931B
:101C400002021092030210920402109205021092F6
:101C50000602109207028093080294E09093090212
:101C600080930A0286E280930B0222E040E250E079
:101C70006AE182E30E946E058AE390E00E94A90671
:101C80008DEE93E00E94030A882349F08091EC03D3
:101C9000811105C08091EB03882309F470C087EEA1
:101CA00093E00E94030A882309F456C08091E6035A
:101CB000811152C08091E50381114EC068C0093284
:101CC000110508F449C08091DE01883009F044C054
:101CD0008091DF01863009F099C044E050E06CE06B
:101CE00074E088EF91E00E948014892BA9F580911F
:101CF000E701813029F588ED91E00E944A051092B4
:101D0000E60182E08093E70168EE71E082EF91E006
:101D10000E94D7046CEB71E088EE91E00E94D7043A
:101D20006EEE71E088EF91E00E94DF046CE074E0F9
:101D30008EEE91E00E94DF048AE290E00E94A90604
:101D40008091F80383FD2BC08091EC038823A1F1DF
:101D50008091E6038823E9F10E941D0252CD8CE0B8
:101D600094E00E94C10784E026CE82EF93E00E94B7
:101D70000B078091F80388608093F80303CF8DEE02
:101D800093E00E940B0781E08093EB0388CF87EEFE
:101D900093E00E940B0781E08093E503DDCF109173
:101DA000E701123089F66CEC71E082EF93E00E945B
:101DB000EA04811122C0C8CF8091EB03882341F24D
:101DC00066EC71E08DEE93E00E94EA04811118C088
:101DD000BFCF8091E503882309F4BECF66EC71E0A4
:101DE00087EE93E00E94EA04882309F4B5CF81E0EE
:101DF0008093E6031092E503AFCF1093F803A4CFCE
:101E000081E08093EC031092EB03A2CF093211051D
:101E100009F4A2CF8111A0CF8091E001853409F0AF
:101E20009BCF44E050E06CE074E080EF91E00E94D2
:101E30008014892BA9F044E050E062EC71E080EF5F
:101E400091E00E948014892B59F044E050E067E350
:101E500071E080EF91E00E948014892B09F07CCF23
:101E60008091E9018130F1F48091F401883009F02A
:101E700073CF6114710421F08CEE91E0F3010995A8
:101E80000E94D5051092F4018091F601883F28F058
:101E90009091F7019F5F9093F701885F8093F6011F
:101EA000C801ECC00633110508F456CF863009F09E
:101EB00053CF8091F6018B3009F09DC044E050E093
:101EC00067EE73E08CEE91E00E948014892B09F09C
:101ED00043CF2091010222FF11C04114510461F04F
:101EE0008091F70120E030E040E050E063E082952F
:101EF00086958770F201099585E067C02E8B0E9458
:101F000001056C018091F1032E89823051F5822FF9
:101F1000807122712231C9F460E080E090E00E947B
:101F20005D0788E1809301022114310441F0809122
:101F3000F501829586958770F101099502C080E0D0
:101F400090E023E02093F10307C191E09093F10327
:101F5000811103C0C601019602C080E090E064E0F8
:101F6000B1C08330A9F5C114D104A9F1A114B10401
:101F700091F18091000290E024E0959587952A9553
:101F8000E1F7880F991F880F991F8296A801485082
:101F900051098417950708F4AC01C601840F951FF9
:101FA0000817190720F49801241B350B01C096016E
:101FB0008091F70160E0829586958770F50109951B
:101FC00069E0C6010E945D0786E08093F103C4CEFC
:101FD000853009F4C1CE20FF07C0833009F4BCCEA0
:101FE00069E0C6010196EECFC114D10409F4B4CE64
:101FF00060E0C60167C08111AFCE8091F7018035E6
:1020000009F0AACED0900102D1FE3BC01092E201AD
:102010008CE28093E3010E94D50582E18093010266
:1020200060E081E090E00E941D051092F80110929E
:10203000F901809106018093FA011092FB018D5FF6
:102040008093060182E08093080284E08093090275
:1020500085E080930A0210920B0290E690930002B2
:102060008093020288E78093030222E040E250E07E
:102070006AE182E30E946E058AE390E00E94A9066D
:102080006BCED4FE69CE0E9401059093FB03809332
:10209000FA03892B91F0C0900002D12C84E0D594F2
:1020A000C7948A95E1F7CC0CDD1CCC0CDD1CC60175
:1020B00082960817190748F44FCED0FE4DCE60E047
:1020C00080E090E00E945D0747CE61E070E080E034
:1020D00090E00E94DE031092B0041092AF04909240
:1020E000B2048092B1049092B4048092B304860149
:1020F00007501E4F45E050E0B8018BEA91E00E9486
:102100009D14892B61F586EB90E09F938F9381E777
:1021100090E09F938F93ADEAB4E0BF93AF930E949A
:10212000FC080F900F900F900F900F900F90009160
:10213000B3041091B4048091B1049091B204081BCF
:10214000190B60E08091FA039091FB030E945D07F8
:1021500089E180930102C8010E943F07FDCD45E05F
:1021600050E0B80181EA91E00E949D14892B09F0AA
:10217000A8C0B801CE010D960E94D40263E971E0B7
:10218000CE0101960E94D40289899A89892B69F02F
:10219000CD84DE8469817A81C6010E94AB140097E8
:1021A00021F08C010C191D0902C00FEF1FEF69E629
:1021B00071E0CE0107960E94D40289899A8900971E
:1021C00071F18017910708F48C01ED85FE85E00F11
:1021D000F11FD08010826D857E856115710569F0D3
:1021E000FB0101900020E9F73197AF01461B570B27
:1021F000CE0107960E9494020CC08F8198850097AB
:1022000011F00E94191318861F821C861B861A86DD
:1022100019868D859E85FC01E00FF11FD082898192
:102220009A810E941913CE0107960E94EC09CE01F3
:102230000D960E94EC0967EA71E0CE0101960E94BA
:10224000D40280910F011F928F9380910E011F92F3
:102250008F9380910D011F928F9380910C011F929B
:102260008F9380910B011F928F9380910A011F928F
:102270008F93809109011F928F93809108011F9283
:102280008F9386EB90E09F938F9385EF90E09F93E1
:102290008F93ADEAB4E0BF93AF930E94FC088981AD
:1022A0009A810E9419138F8198850E9419138D8538
:1022B0009E850E9419130FB6F894DEBF0FBECDBFE6
:1022C00036CF8FE391E09F938F93ADEAB4E0BF9355
:1022D000AF930E94FC080F900F900F900F9027CFA4
:1022E000E0E1F4E01382128288EE93E0A0E0B0E037
:1022F00084839583A683B78381E491E0918380836F
:1023000085EC90E09587848784EC90E097878687BA
:1023100080EC90E0918B808B81EC90E0938B828BB2
:1023200082EC90E0958B848B86EC90E0978B868B8B
:10233000118E128E138E148EEDEAF4E01382128247
:1023400083E591E0918380830895FB01DC0102C065
:1023500005900D9241505040D8F70895BB272A3080
:1023600051F4992342F4BDE2909580957095619562
:102370007F4F8F4F9F4F0C94BE11BB27FA01A62FA2
:102380006217710581059105330B30FB66F0AA27B2
:10239000660F771F881F991FAA1FA21710F0A21B94
:1023A00063953850A9F7A05DAA3308F0A95DA19301
:1023B00036F7B111B1931082CA010C94DF11DC0120
:1023C000FC01672F71917723E1F7329704C07C916C
:1023D0006D9370836291AE17BF07C8F30895F999A2
:1023E000FECF92BD81BDF89A992780B508950E94CD
:1023F0003912A59F900DB49F900DA49F800D911D43
:10240000112408952F923F924F925F926F927F9284
:102410008F929F92AF92BF92CF92DF92EF92FF92F4
:102420000F931F93CF93DF93CDB7DEB7CA1BDB0BA0
:102430000FB6F894DEBF0FBECDBF09942A88398845
:1024400048885F846E847D848C849B84AA84B9844C
:10245000C884DF80EE80FD800C811B81AA81B98158
:10246000CE0FD11D0FB6F894DEBF0FBECDBFED016C
:102470000895A29FB001B39FC001A39F700D811D5D
:102480001124911DB29F700D811D1124911D08957D
:10249000AA1BBB1B51E107C0AA1FBB1FA617B7078A
:1024A00010F0A61BB70B881F991F5A95A9F78095A6
:1024B0009095BC01CD010895A1E21A2EAA1BBB1B69
:1024C000FD010DC0AA1FBB1FEE1FFF1FA217B30700
:1024D000E407F50720F0A21BB30BE40BF50B661F16
:1024E000771F881F991F1A9469F7609570958095DA
:1024F00090959B01AC01BD01CF010895EE0FFF1F28
:102500000590F491E02D0994CF93DF9382309105EB
:1025100010F482E090E0E091B704F091B80420E07C
:1025200030E0C0E0D0E0309711F140815181481790
:102530005907C0F04817590761F4828193812097A9
:1025400019F09B838A832BC09093B8048093B704BF
:1025500026C02115310519F04217530718F49A01C6
:10256000BE01DF01EF010280F381E02DDCCF2115F8
:10257000310509F1281B390B2430310590F41296EE
:102580008D919C9113976115710521F0FB01938347
:10259000828304C09093B8048093B704FD013296FF
:1025A00044C0FD01E20FF31F819391932250310942
:1025B0002D933C933AC02091B5043091B604232B5F
:1025C00041F420913201309133013093B6042093CD
:1025D000B50420913001309131012115310541F4CC
:1025E0002DB73EB74091340150913501241B350B76
:1025F000E091B504F091B604E217F307A0F42E1BA6
:102600003F0B2817390778F0AC014E5F5F4F241756
:10261000350748F04E0F5F1F5093B6044093B50442
:102620008193919302C0E0E0F0E0CF01DF91CF9180
:1026300008950F931F93CF93DF93009709F48CC0F5
:10264000FC013297138212820091B7041091B804F2
:102650000115110581F420813181820F931F209192
:10266000B5043091B6042817390779F5F093B6040C
:10267000E093B50471C0D80140E050E0AE17BF0749
:1026800050F412962D913C911397AD01211531050F
:1026900009F1D901F3CF9D01DA01338322836081EF
:1026A0007181860F971F8217930769F4EC012881C7
:1026B0003981260F371F2E5F3F4F318320838A8158
:1026C0009B8193838283452B29F4F093B804E09394
:1026D000B70442C01396FC93EE931297ED01499113
:1026E00059919E01240F351FE217F30771F4808181
:1026F0009181840F951F029611969C938E938281EF
:10270000938113969C938E931297E0E0F0E0D801AA
:1027100012968D919C911397009719F0F8018C01F6
:10272000F6CF8D919C9198012E5F3F4F820F931FA2
:102730002091B5043091B6042817390769F4309711
:1027400029F41092B8041092B70402C013821282C6
:102750001093B6040093B504DF91CF911F910F91B0
:102760000895A0E0B0E0E7EBF3E10C940612EC0171
:10277000009721F4CB010E948412B8C0FC01E60F3F
:10278000F71F9C0122503109E217F30708F4ACC08F
:10279000D9010D911C91119706171707B0F005305C
:1027A000110508F49FC0C80104978617970708F41D
:1027B00099C002501109061B170B019311936D93D9
:1027C0007C93CF010E9419138DC05B01A01AB10A3E
:1027D0004C01800E911EA091B704B091B80440E066
:1027E00050E0E12CF12C109709F44AC0A815B90566
:1027F000D1F56D907C901197630182E0C80ED11CD9
:10280000CA14DB0480F1A3014A195B096A0182E062
:10281000C80ED11C1296BC9012971396AC91B5E0DD
:10282000CB16D10440F0B282A38351834083D901F7
:102830006D937C930AC00E5F1F4FC301800F911FE1
:10284000F90191838083EB2DFA2FE114F10431F02B
:10285000D7011396FC93EE93129744C0F093B804FB
:10286000E093B7043FC08D919C9111974817590789
:1028700008F4AC017D0112960D90BC91A02DB3CF50
:102880008091B5049091B60488159905E1F4461736
:102890005707C8F48091300190913101009741F4BD
:1028A0008DB79EB74091340150913501841B950B33
:1028B000E817F907C8F4F093B604E093B504F901FA
:1028C000718360830FC0CB010E9484127C0100974A
:1028D00059F0A801BE010E948D14CE010E94191367
:1028E000C70104C0CE0102C080E090E0CDB7DEB7E2
:1028F000EEE00C94221281E090E0F8940C94C51460
:10290000FB01DC0104C08D910190801921F441503C
:102910005040C8F7881B990B0895FB01DC0102C0E9
:1029200001900D9241505040D8F70895FB01DC0111
:1029300001900D920020E1F70895FB01DC01415068
:10294000504030F08D910190801919F40020B9F7B2
:10295000881B990B0895FB0151915523A9F0BF01E4
:10296000DC014D9145174111E1F759F4CD0101907A
:10297000002049F04D9140154111C9F3FB0141116F
:0E298000EFCF81E090E001970895F894FFCF2B
:10298E007469692D30310A01C0A801C8C0A80101BF
:10299E0041726475696E6F2D454E4332386A36301A
:1029AE002D3030000000000000000000000000008C
:1029BE000000B904800000FFFFFFFFFFFF000000D2
:1029CE0000B40121014C01FB017D015B016F01008F
:1029DE000000007E0221018F028E020A5B6261639B
:1029EE006B536F6F6E5D000D0A004661696C656416
:1029FE0020746F206163636573732045746865721C
:102A0E006E657420636F6E74726F6C6C65720049C4
:102A1E00503A20200047573A202000444E533A2087
:102A2E00003F7265673D00313233003F686F6D6560
:022A3E00000096
:00000001FF
