:100000000C94C6000C94EE000C94EE000C94EE00E0
:100010000C94EE000C94EE000C94EE000C94EE00A8
:100020000C94EE000C94EE000C94EE000C94EE0098
:100030000C94EE000C94EE000C94EE000C94EE0088
:100040000C947E020C94EE000C9493010C946D01C0
:100050000C94EE000C94EE000C94EE000C94EE0068
:100060000C94EE000C94EE004661696C656420749B
:100070006F206163636573732045746865726E6594
:100080007420636F6E74726F6C6C65720045000053
:1000900082000040002063825363000108000604D0
:1000A000000100000000240027002A0000000000DA
:1000B000250028002B0004040404040404040202A4
:1000C00002020202030303030303010204081020D7
:1000D00040800102040810200102040810200000E2
:1000E00000080002010000030407000000000000F7
:1000F0000000485454502F312E3020323030204FE1
:100100004B0D0A436F6E74656E742D547970653AA9
:1001100020746578742F68746D6C0D0A5072616775
:100120006D613A206E6F2D63616368650D0A0D0A7B
:100130003C6D65746120687474702D6571756976A5
:100140003D27726566726573682720636F6E7465FC
:100150006E743D2731272F3E3C7469746C653E52A6
:10016000424242207365727665723C2F7469746CEA
:10017000653E3C68313E244424443A244424443AB5
:10018000244424443C2F68313E00690F11241FBED3
:10019000CFEFD8E0DEBFCDBF11E0A0E0B1E0E8E1F5
:1001A000F1E202C005900D92A435B107D9F724E021
:1001B000A4E5B1E001C01D92A735B207E1F710E058
:1001C000C6ECD0E004C02197FE010E945C10C53C43
:1001D000D107C9F70E94CE080C948A100C94000035
:1001E000CF92DF92EF92FF920F931F93CF93DF9303
:1001F0006C017A018B01C0E0D0E0CE15DF0589F0FB
:10020000D8016D918D01D601ED91FC910190F081A5
:10021000E02DC6010995892B11F47E0102C02196BB
:10022000ECCFC701DF91CF911F910F91FF90EF901D
:10023000DF90CF900895E091AA01F091AB019F016A
:100240002F5F3F4F3093AB012093AA018083089525
:10025000EF92FF920F931F93CF93DF931F92CDB72F
:10026000DEB7062F142F59830E941B01802F0E9496
:100270001B01E12E5981F52E100F1E1531F0F701EB
:1002800081917F010E941B01F8CF0F90DF91CF91E8
:100290001F910F91FF90EF900895DC011696ED915C
:1002A000FC9117979F012F5F3F4F17963C932E931A
:1002B0001697608381E090E00895089580E090E0D3
:1002C00008950E94711082EB93E00E941E0721E0C6
:1002D000892B09F420E0822F08951F920F920FB608
:1002E0000F9211242F933F934F935F936F937F93BC
:1002F0008F939F93AF93BF93EF93FF9382EB93E022
:100300000E944408FF91EF91BF91AF919F918F910F
:100310007F916F915F914F913F912F910F900FBE01
:100320000F901F9018951F920F920FB60F921124E5
:100330002F938F939F93EF93FF93E091C203F091DC
:10034000C3038081E091C803F091C90382FD12C00C
:1003500090818091CB038F5F8F732091CC038217A4
:1003600051F0E091CB03F0E0EE54FC4F958F809379
:10037000CB0301C08081FF91EF919F918F912F91CD
:100380000F900FBE0F901F90189590E0FC01E25265
:10039000FF4F3491FC01E653FF4F2491FC01EA54D6
:1003A000FF4FE491EE2309F43BC0332339F133309E
:1003B00091F038F43130A9F0323001F584B58F7DF9
:1003C00012C0373091F03830A1F03430B9F4809158
:1003D00080008F7D03C0809180008F7780938000A4
:1003E0000DC084B58F7784BD09C08091B0008F7730
:1003F00003C08091B0008F7D8093B000F0E0EE0FDD
:10040000FF1FE455FF4FA591B4918FB7F894EC917D
:10041000611103C020952E2301C02E2B2C938FBF7A
:100420000895CF93DF9390E0FC01E653FF4F2491B2
:10043000FC01EA54FF4F8491882361F190E0880F1A
:10044000991FFC01EE55FF4FC591D491FC01E45575
:10045000FF4FA591B491611109C09FB7F8948881AD
:10046000209582238883EC912E230BC0623061F4A7
:100470009FB7F8943881822F809583238883EC91ED
:100480002E2B2C939FBF06C08FB7F894E8812E2B9C
:1004900028838FBFDF91CF9108953FB7F894809163
:1004A000B2019091B301A091B401B091B50126B50C
:1004B000A89B05C02F3F19F00196A11DB11D3FBF9C
:1004C000BA2FA92F982F8827820F911DA11DB11D2A
:1004D000BC01CD0142E0660F771F881F991F4A9526
:1004E000D1F708952FB7F8946091AE017091AF01E4
:1004F0008091B0019091B1012FBF08951F920F928A
:100500000FB60F9211242F933F938F939F93AF9326
:10051000BF938091AE019091AF01A091B001B091D5
:10052000B1013091AD0123E0230F2D3720F4019666
:10053000A11DB11D05C026E8230F0296A11DB11D06
:100540002093AD018093AE019093AF01A093B001D1
:10055000B093B1018091B2019091B301A091B40127
:10056000B091B5010196A11DB11D8093B201909388
:10057000B301A093B401B093B501BF91AF919F9126
:100580008F913F912F910F900FBE0F901F90189554
:10059000DC0196E0FB0101900D929A95E1F7089538
:1005A000FB014081518162817381FC014083518351
:1005B000628373830895CF93DF93EB0144E050E0AF
:1005C000BC018AED91E00E947610892B39F464ED2C
:1005D00071E0CE010E94C80281E001C080E0DF919D
:1005E000CF9108958091CE0190E0982F8827209197
:1005F000CF01822B44972091EC0130E044E0359507
:1006000027954A95E1F7220F331F220F331F821BD4
:10061000930B97FF02C080E090E008952091E201E3
:100620003091E0013093E2012093E0012091E30159
:100630003091E1013093E3012093E10128EE31E0B4
:10064000ACEEB1E0F9014291840F911D4E918C9373
:10065000662311F0408301C01082892F992744E05E
:100660004E0F4213F0CF1092F0011092F10180E58D
:100670008093EC010895BC018EEB91E00E94C802CA
:100680006EE571E084EC91E00C94C802CF93DF93A7
:1006900000D0CDB7DEB769837A830E943B036981BE
:1006A0007A818CED91E00E94D0026AEB71E088EDD6
:1006B00091E00F900F90DF91CF910C94D0020F93A7
:1006C0001F93CF93DF9370E062547E4F213021F46B
:1006D0008A01075F1F4F0CC0223039F000E010E0A4
:1006E0009801DB011196EA0106C08A010250110946
:1006F00020E030E0F6CFC230D10578F0FD0131972F
:10070000E081F0E0FE2FEE279C91E92B0E0F1F1FDA
:10071000211D311D22971296EECFFA01EE7FE60FD2
:10072000F71F40FF0CC0408150E060E070E0762F82
:10073000652F542F4427040F151F261F371FA901AB
:1007400066277727411551056105710519F02227A4
:100750003327F1CF00951095E82FF0E0E254FE4FDB
:1007600010830183DF91CF911F910F910895EEEBDC
:10077000F1E0108E118E80E4848B158A868B20E048
:1007800044E150E06EE088E10C945F0384EC91E07A
:100790000E943B0368ED71E08CED91E00E94D00275
:1007A0006AEB71E088ED91E00E94D0020C94B703EF
:1007B0008EBD0DB407FEFDCF089561E08091540118
:1007C0000E94C50178940895F89460E080915401E6
:1007D0000C94C5010F931F93CF93DF93EC018B0112
:1007E0000E94E4032097B9F08AE30E94D8031EBC5C
:1007F000F801CE01019739F00DB407FEFDCF2EB5FB
:100800001EBC2193F7CF2197C00FD11F0DB407FE57
:10081000FDCF8EB58883DF91CF911F910F910C94FE
:10082000DD03CF93DF9300D01F92CDB7DEB74B83AC
:100830006A8389830E94E4036A816F718981862BB0
:100840000E94D8034B81842F0E94D8030F900F90F1
:100850000F90DF91CF910C94DD031F93CF93DF9323
:10086000182F1076C12FD0E02091AC0130E0C217D4
:10087000D307A1F043E06FE180EA0E9411041093D6
:10088000AC01AE0185E0559547958A95E1F76FE19A
:1008900080E8DF91CF911F910C941104DF91CF91EB
:1008A0001F9108951F93CF93DF931F92CDB7DEB7AB
:1008B000182F69830E942D044981612F80E40F90D5
:1008C000DF91CF911F910C9411041F93CF93DF936D
:1008D0001F92CDB7DEB7182F79830E945204798119
:1008E000672F81E0810F0F90DF91CF911F910C94C2
:1008F00052041F93CF93DF931F92CDB7DEB7182F0B
:100900000E942D040E94E403812F8F710E94D8035E
:1009100080E00E94D80317FF03C080E00E94D80344
:100920008EB589830E94DD0389810F90DF91CF917D
:100930001F910895CF93DF93EC0140E86FE180E8C9
:100940000E94110440E86FE180EA0E9411044AE02D
:100950006CE180EA0E94110460E07CE082E00E9489
:100960006504BE01745F86E00E94650440E060E0BB
:100970008AE70E9411040E94E403209751F40E9428
:10098000DD0348E06FE180E80E941104C0E0D0E0A0
:100990001CC08AE70E94D8038091BE018EBDEFEB98
:1009A000F1E0C254DE4FEC17FD0731F081910DB438
:1009B00007FEFDCF8EBDF7CF0DB407FEFDCFDFCF15
:1009C0002196C83E83E0D80729F08CE10E94790483
:1009D0008A70B1F38CE10E94790481FD03C0C83EA6
:1009E000D34039F448E06FE180EADF91CF910C9475
:1009F0001104DF91CF9108950F931F93CF938C0132
:100A00008DE291E00E943B03EEEBF1E088E0848709
:100A1000C6E0C58748E050E06AE970E08CEC91E000
:100A20000E949E0FEEEDF1E0DF011D92CA95E9F7FD
:100A30006EE571E084ED91E00E94C802B80184EE99
:100A400091E00E94D0026AEB71E08AED91E00E9491
:100A5000D0028AE290E0CF911F910F910C949A04FA
:100A60000F931F93CF93DF938C018896CEEBD1E049
:100A7000988B898B0E94B7031AAA1BAAA801445E0F
:100A80005F4F22E06AE182E30E945F03C801C696DD
:100A9000DF91CF911F910F910C949A04262F206122
:100AA0002093ED01643021F0009711F481E090E093
:100AB00061E00E940E031092CE0188E28093CF0184
:100AC0000E94C60384E08093EE011092EF0122E0C1
:100AD0004CE150E06AE182E30E945F0386E390E02C
:100AE0000C949A04CF92DF92EF92FF920F931F9390
:100AF0008634910568F12091E101233449F5C090D5
:100B0000EC01D090ED01E090EE01F090EF0100914A
:100B1000590110915A0120915B0130915C01C0167E
:100B2000D106E206F306A1F4E8EDF2E082549E4F0E
:100B30009F012E5F3F4F41815081553319F45281FF
:100B4000561741F0F901E40FF11DE817F90780F39A
:100B500080E001C081E01F910F91FF90EF90DF9046
:100B6000CF900895FF920F931F93CF93DF938C0143
:100B700086E191E0EEEBF1E0DF019C011D92215056
:100B80003040E1F780915D01833019F0CDE2D1E092
:100B900002C0C5E5D1E0CE010E942608BE0188232F
:100BA00019F088E691E002C08EE691E00E944603CB
:100BB0008881807F803E91F088819981AA81BB8164
:100BC0008F3F9F4FAF4FBF4F49F044E050E0BE0111
:100BD00084E691E00E947610892B31F46DE271E099
:100BE0008EEB91E00E94C80288E08093CA011092C7
:100BF000CB0149E050E06DE870E08CEC91E00E94A0
:100C00009E0F1092CE0181E18093D5011092E201F6
:100C100083E48093E3011092E00184E48093E10196
:100C20001092E4011092E6011092E7016DE271E08A
:100C30008EEB91E00E94C80281E08093E8018093EE
:100C4000E90186E08093EA018091590190915A016F
:100C5000A0915B01B0915C018093EC019093ED0158
:100C6000A093EE01B093EF0180915D01833031F4E8
:100C70006AEB71E084EF91E00E94D0026EE571E0D2
:100C800084E092E00E94C80284ED92E09093AB0170
:100C90008093AA01C6E9D0E0FC2E84E0F80EFE01A4
:100CA00084910E941B012196FC12F9CF85E30E94DA
:100CB0001B0181E00E941B0180915D01882311F0DE
:100CC00083E001C081E00E941B018DE30E941B01B3
:100CD00087E00E941B0181E00E941B01CEE5D1E06C
:100CE000FC2E26E0F20EFC1621F089910E941B01D9
:100CF000FACF80910C01882371F0ECE0F1E00190D3
:100D00000020E9F73197BF016C5071404CE051E091
:100D10008CE00E9428010115110559F0A80164E03A
:100D200082E30E94280145E551E064E086E30E94E9
:100D3000280187E30E941B0183E00E941B0181E0E0
:100D40000E941B0183E00E941B0186E00E941B01A0
:100D50008FEF0E941B01C091AA01D091AB01C85E28
:100D6000D140CE014C969093CE018093CF010E944A
:100D7000B703CE0108969093E4018093E501AE019C
:100D8000405F5F4F21E06AE188E20E945F03CE018D
:100D90008A96DF91CF911F910F91FF900C949A0446
:100DA000CF93DF93EC01FB018A30910548F06AE0B4
:100DB00070E00E94FC0FCB01BF010E94D006FC0135
:100DC000CE016AE070E00E94FC0F805D808311829A
:100DD000CF010196DF91CF910895FC01538D448D91
:100DE000252F30E0842F90E0821B930B541710F0D6
:100DF000CF96089501970895FC01918D828D9817E3
:100E000061F0828DDF01A80FB11D5D968C91928DEE
:100E10009F5F9F73928F90E008958FEF9FEF0895EB
:100E2000FC01918D828D981731F0828DE80FF11DB4
:100E3000858D90E008958FEF9FEF0895FC01918DCF
:100E4000228D892F90E0805C9F4F821B91098F73C8
:100E50009927089580E090E0892B29F00E94630192
:100E600081110C9400000895CF92DF92EF92FF92CF
:100E70000F931F93CF93DF93CDB7DEB78E01015F42
:100E80001F4F92EFE92E90E0F92EC7010196F7016E
:100E90002491222309F4D1C0243271F0E091550449
:100EA000F0915604AF014F5F5F4F5093560440934B
:100EB000550420837C01E9CFF2E0EF0EF11CFC0128
:100EC0009491963409F46EC05CF49434B9F095347E
:100ED00009F097C0F801808191810E5F1F4F7AC0A1
:100EE00040915504509156049C3409F443C0933505
:100EF00009F44DC0983409F084C00EC06801F2E0D6
:100F0000CF0ED11C6091550470915604F801808178
:100F100091810E94D00682C0B8016E5F7F4FF801B8
:100F20009081292F092E000C330B84E035952795ED
:100F30008A95E1F72F709F709A300CF0995F905D61
:100F40002A300CF0295FFA013196F0935604E093B1
:100F50005504205DFA012083E0915504F091560478
:100F60009F012F5F3F4F3093560420935504908389
:100F70008B018BCF6801F4E0CF0ED11CF8016081AA
:100F80007181828193812AE00E94A70F47C0680186
:100F9000F2E0CF0ED11CF80160817181CA010E947C
:100FA00083103CC0F8010190F081E02D0E5F1F4FCF
:100FB00084913196882309F468CFA0915504B091AB
:100FC00056049D012F5F3F4F3093560420935504E4
:100FD0008C93EECF6C01FFEFCF1ADF0A0E94E80F6F
:100FE000882309F452CFE0915504F09156049F01F3
:100FF0002F5F3F4F30935604209355048083C601E2
:10100000E9CFE0915504F09156049F012F5F3F4FC7
:101010003093560420935504908337CFE0915504C4
:10102000F091560401900020E9F7CF0101979093C9
:10103000560480935504860128CFDF91CF911F91EC
:101040000F91FF90EF90DF90CF900895CF93DF93B3
:101050002091BA012223A1F0FC012081222381F0FA
:10106000AAEBB1E0C6EBD1E08D9121919991822755
:10107000892331F481E0AE3BB807B1F781E001C0CC
:1010800080E0DF91CF910895FC01848DDF01A80FEE
:10109000B11DA35ABF4F2C91848D90E001968F73A0
:1010A0009927848FA689B7892C93A089B1898C91BF
:1010B00080648C93938D848D981306C00288F38985
:1010C000E02D80818F7D80830895EF92FF920F93B2
:1010D0001F93CF93DF93EC0181E0888F9B8D8C8DE4
:1010E000981305C0E889F989808185FD24C0F62E12
:1010F0000B8D10E00F5F1F4F0F731127E02E8C8DAB
:10110000E8120CC00FB607FCFACFE889F989808194
:1011100085FFF5CFCE010E944408F1CF8B8DFE01F3
:10112000E80FF11DE35AFF4FF0820B8FEA89FB892C
:101130008081806207C0EE89FF896083E889F98930
:1011400080818064808381E090E0DF91CF911F9166
:101150000F91FF90EF900895CF93DF93EC01888D6E
:101160008823C9F0EA89FB89808185FD05C0A889AB
:10117000B9898C9186FD0FC00FB607FCF5CF808131
:1011800085FFF2CFA889B9898C9185FFEDCFCE017B
:101190000E944408E7CFDF91CF910895CF93DF936A
:1011A000CDB7DEB761970FB6F894DEBF0FBECDBFE7
:1011B000789484B5826084BD84B5816084BD85B532
:1011C000826085BD85B5816085BD80916E0081603E
:1011D00080936E00109281008091810082608093E4
:1011E00081008091810081608093810080918000E6
:1011F0008160809380008091B10084608093B10011
:101200008091B00081608093B00080917A0084600A
:1012100080937A0080917A00826080937A00809136
:101220007A00816080937A0080917A008068809350
:101230007A001092C1001092A70187E390E001E0CC
:1012400010E020E030E00097D1F0FC01B3E0F5952C
:10125000E795BA95E1F7EC58FE4F482F47706801C3
:10126000790104C0CC0CDD1CEE1CFF1C4A95D2F7A2
:10127000B701A601A0814A2B40830197E4CF64E027
:1012800071E08EE591E00E94C80284EF91E09093B6
:101290007C0180937B010CB406FC25C061E08AE0F0
:1012A0000E94110261E08AE00E94C50161E08BE0CA
:1012B0000E94110261E08DE00E94110260E08CE06A
:1012C0000E94110261E08BE00E94C50160E08BE0AA
:1012D0000E94C50160E08DE00E94C50180E58CBDE3
:1012E0008DB581608DBD8AE08093540161E00E94DC
:1012F00011020E94DD034FEF60E08FEF0E941104A6
:101300000E944D026B017C01A2E08A2E912CA12C3F
:10131000B12C0E944D02DC01CB018C199D09AE0954
:10132000BF09883E9340A105B10598F328EEC20E8F
:1013300023E0D21EE11CF11C8A9489288A288B287C
:1013400029F0812C912C54018394E3CF0E94E40373
:101350008DE10E94D80380E00E94D8031EB50E9450
:10136000DD03112399F360E070E088E00E946504DA
:1013700060E070E08CE00E9465046FEF7BE08AE043
:101380000E94650460E07CE084E00E9465046FEFE9
:1013900071E186E00E94650461EB88E30E945204DB
:1013A0006FE370E388E20E94650469EF77EF80E302
:1013B0000E9465046DE080EC0E94520460E081ECC4
:1013C0000E94520442E362EC80E80E94110462E150
:1013D0007CE086EC0E94650462E184EC0E94520489
:1013E0006CED75E08AEC0E94650460915E0184EE0C
:1013F0000E94520460915F0185EE0E945204609148
:10140000600182EE0E9452046091610183EE0E94AD
:1014100052046091620180EE0E9452046091630167
:1014200081EE0E94520460E184ED0E94520460E06B
:1014300071E086ED0E9465048AEE0E94790480FDC9
:10144000FBCF8FE10E942D0440EC6BE180E80E940D
:10145000110444E06FE180E80E94110482E70E94D9
:101460007904863008F08F5F81111EC008E610E015
:10147000F8016491611109C042E050E061E571E05A
:1014800082EB93E00E94F0000FC0E091B203F09174
:10149000B3030190F081E02D82EB93E009950F5F9B
:1014A0001F4F892B29F7E8CF1092A70160E071E068
:1014B0008AEB91E00E94D00226EB31E064E671E015
:1014C000EAEBF1E044E04E0F9191D9018D919D013D
:1014D0008095892BDB018D93BD014E13F5CF1092C2
:1014E000A5011092A40170E1472E7EE0572E612CD9
:1014F000712CECE38E2E912CA12CB12C20908F011D
:1015000030909001C0908D01D0908E01DC86CB860A
:101510003E862D86E0909101F0909201F88AEF8648
:1015200080917F01882389F060917D0170917E0117
:101530006115710519F46FEF7BE002C0615071090C
:101540008CE00E94650410927F0189E30E94790477
:101550008823C9F160917D0170917E0180E00E9435
:101560006504BE016F5F7F4F86E090E00E94EA0352
:1015700089819A8190937E0180937D010B811C81EA
:1015800080917B0190917C012D8127FF0DC00197F7
:10159000045011098017910708F48C016EEB71E07B
:1015A000C8010E94EA0302C000E010E0F801E25422
:1015B000FE4F108281E080937F0140E46EE180E87D
:1015C0000E94110402C000E010E08091A70188236E
:1015D00009F440C180915D01823009F488C030F483
:1015E000882381F1813009F44DC034C1833021F06A
:1015F000843009F47CC02EC1C0908901D0908A014A
:10160000E0908B01F0908C012FEFC216D206E2061B
:10161000F20609F41FC10E947202209185013091E7
:1016200086014091870150918801DC01CB01821B2A
:10163000930BA40BB50B8C159D05AE05BF0508F0EB
:1016400019C208C10E9472026093590170935A0135
:1016500080935B0190935C011092BA011092BB01E0
:101660001092BC011092BD0180E090E00E94B20592
:1016700088E30E947904682F616088E30E94520425
:1016800081E028C062E0C8010E9472058823A9F1A8
:1016900068EF71E0CE0101960E94D002E8EDF2E021
:1016A000C80182549E4FBF016E5F7F4F2181308100
:1016B000363329F485E591E00E94D00206C0FB0193
:1016C000E20FF11DE817F90770F3CE0101960E94B1
:1016D000B20582E080935D010E94720260938101F5
:1016E000709382018093830190938401B3C065E07D
:1016F000C8010E947205811119C00E947202C09037
:101700008101D0908201E0908301F0908401DC019E
:10171000CB018C199D09AE09BF0981319742A10502
:10172000B10508F497C010925D0194C080918001CA
:10173000811108C088E30E947904682F6E7F88E3D6
:101740000E94520468EF71E08AEB91E00E94D0029F
:10175000E8EDF2E0C80182549E4F6C017F0192E0F7
:10176000E90EF11CA181AF8380818630A9F048F495
:10177000813071F0833009F045C0B70180EA91E013
:101780000EC08A3379F08F3FD9F18333D9F50AC07F
:10179000B70186EB91E003C0B7018BE991E00E94AD
:1017A000D00230C0D701369620E030E0A9018D91FB
:1017B000742F632F522F44279A01AB01280F311D3C
:1017C000411D511DAE17BF0791F72093890130933A
:1017D0008A0140938B0150938C012F3FBFEF3B0751
:1017E0004B075B0779F0A8EEB3E00E9451106093BD
:1017F000890170938A0180938B0190938C0102C0C0
:1018000081E001C080E0F7012F81E20FF11D81111D
:1018100004C0EC15FD0508F4A1CF0E94720260938C
:101820008501709386018093870190938801809150
:10183000A001882361F01092A5011092A40181E01B
:101840008093A60160EA71E0CB010E94D00283E0A0
:1018500080935D010115110509F0BCC08091A601BE
:101860008570E1F08091A4019091A501892BB1F4DC
:1018700061E184ED0E94520461E082ED0E94520415
:101880008AEE0E94790480FDFBCF60E082ED0E9429
:10189000520489ED0E94790482FDF2C08091A40176
:1018A0009091A50101969093A5018093A401809148
:1018B0009F01813009F06FC08091A60181FF6BC04C
:1018C00082E080939F0110910B011F5F10930B0129
:1018D0001F7185E991E00E94260865E971E088237F
:1018E00019F088E691E002C08EE691E00E9446037E
:1018F00008E00093CA011092CB0149E050E06DE886
:1019000070E08CEC91E00E949E0F8CE28093CF01FE
:1019100086E08093D5010E94B7031092E2011092F5
:10192000E3018BE08093E0011093E101E4EEF1E04C
:10193000DF011D920A95E9F780910A018093E60183
:101940008D5F80930A0180E68093EC0182E08093B2
:10195000ED0193E09093EE011092EF011092F001EF
:101960001092F1011092F2011092F3018093F401B0
:1019700094E09093F5018093F60186E28093F7015D
:1019800022E040E250E06AE182E30E945F038AE3E2
:1019900090E00E949A048BE991E00E942608882337
:1019A00049F080919A01811105C0809199018823A5
:1019B00009F470C085E991E00E942608882309F4A3
:1019C00056C080919401811152C080919301811180
:1019D0004EC068C00932110508F449C08091CA019F
:1019E000883009F044C08091CB01863009F099C05D
:1019F00044E050E06AEB71E084EE91E00E947610E2
:101A0000892BA9F58091D301813029F584EC91E0EF
:101A10000E943B031092D20182E08093D30164EDD7
:101A200071E08EED91E00E94C8026EE571E084EDF8
:101A300091E00E94C8026AED71E084EE91E00E949C
:101A4000D0026AEB71E08AED91E00E94D0028AE256
:101A500090E00E949A048091A60183FD2BC08091A2
:101A60009A018823A1F1809194018823E9F10E94D1
:101A70002A0756CD8AEB91E00E94B20584E02ACE77
:101A800080EA91E00E94FC048091A6018860809326
:101A9000A60104CF8BE991E00E94FC0481E08093D1
:101AA000990188CF85E991E00E94FC0481E0809350
:101AB0009301DDCF1091D301123089F66EE671E00B
:101AC00080EA91E00E94DB02811122C0C8CF8091A0
:101AD0009901882341F268E671E08BE991E00E9468
:101AE000DB02811118C0BFCF80919301882309F4D4
:101AF000BECF68E671E085E991E00E94DB028823B1
:101B000009F4B5CF81E08093940110929301AFCF97
:101B10001093A601A4CF81E080939A0110929901BD
:101B2000A2CF0932110509F4A2CF8111A0CF809173
:101B3000CC01853409F09BCF44E050E06AEB71E0C2
:101B40008CED91E00E947610892BA9F044E050E0E2
:101B500064E671E08CED91E00E947610892B59F0DB
:101B600044E050E06DE271E08CED91E00E9476106F
:101B7000892B09F07CCF8091D501813001F58091CE
:101B8000E001883009F073CFCF84D888C114D10424
:101B900021F088ED91E0F60109950E94C6031092AC
:101BA000E0018091E201883F28F09091E3019F5F7E
:101BB0009093E301885F8093E201C801F4C006338B
:101BC000110508F454CF863009F051CF8091E2011D
:101BD0008B3009F0A5C044E050E065E971E088ED84
:101BE00091E00E947610892B09F041CF2091ED0100
:101BF00022FF13C0CD84DE84C114D10461F0809132
:101C0000E30120E030E040E050E063E0829586951B
:101C10008770F601099585E06BC0298B0E94F2025E
:101C20007C0180919F012989823071F5822F80711A
:101C300022712231E9F460E080E090E00E944E05DC
:101C400088E18093ED01CB84DC84C114D10441F0A0
:101C50008091E101829586958770F601099502C011
:101C600080E090E023E020939F010E943005FFCEAA
:101C700091E090939F01811103C0C701019602C0BA
:101C800080E090E064E049C08330A9F5E114F104FC
:101C9000A9F12114310491F18091EC0190E044E02C
:101CA000959587954A95E1F7880F991F880F991F99
:101CB0008296A801485051098417950708F4AC0191
:101CC000C701840F951F0817190720F49801241BDA
:101CD000350B01C097018091E30160E08295869504
:101CE0008770F101099569E0C7010E944E0586E001
:101CF00080939F01BCCE853009F4B9CE20FF07C088
:101D0000833009F4B4CE69E0C7010196EECFE11447
:101D1000F10409F4ACCE60E0C7010E944E05A7CEE5
:101D20008111A5CE8091E301803509F0A0CEF0901D
:101D3000ED01F1FE3BC01092CE018CE28093CF0109
:101D40000E94C60382E18093ED0160E081E090E0B3
:101D50000E940E031092E4011092E50180910A01A5
:101D60008093E6011092E7018D5F80930A0182E083
:101D70008093F40184E08093F50185E08093F6017F
:101D80001092F70190E69093EC018093EE0188E7C2
:101D90008093EF0122E040E250E06AE182E30E949A
:101DA0005F038AE390E00E949A0461CEF4FE5FCE66
:101DB0000E94F2029093A9018093A801892B09F453
:101DC00082C08091EC0190E024E0959587952A955A
:101DD000E1F7880F991F880F991F82960817190736
:101DE00008F445CE0E94720228EE33E040E050E055
:101DF0000E94101069017A01CA01B901A301920180
:101E00000E9432102F83388749875A87C701B6014D
:101E1000A50194010E943210162FCA01B901A50133
:101E200094010E943210462F1092520410925104D5
:101E300024EF31E03093540420935304309356043C
:101E4000209355042AE0812F622F0E94F00F1F92E9
:101E50009F931F928F93842F0E94F00F1F929F9346
:101E60001F928F938F8198856AE070E00E94FC0F2B
:101E70009F938F937F936F9382EF90E09F938F93C5
:101E8000AFE4B4E0BF93AF930E94340700915504D0
:101E9000109156048091530490915404081B190B1F
:101EA00060E08091A8019091A9010E944E0589E10E
:101EB0008093ED01C8010E9430050FB6F894DEBF93
:101EC0000FBECDBFD4CDF0FED2CD60E080E090E07B
:101ED00024CFE2EBF3E01382128288EE93E0A0E0DD
:101EE000B0E084839583A683B78387E391E09183F1
:101EF000808385EC90E09587848784EC90E09787D9
:101F0000868780EC90E0918B808B81EC90E0938BC6
:101F1000828B82EC90E0958B848B86EC90E0978BA3
:101F2000868B118E128E138E148EEFE4F4E01382E2
:101F3000128289E491E0918380830895FB01DC01A2
:101F400002C005900D9241505040D8F70895BB272C
:101F50002A3051F4992342F4BDE290958095709512
:101F600061957F4F8F4F9F4F0C94B70FBB27FA019E
:101F7000A62F6217710581059105330B30FB66F0C2
:101F8000AA27660F771F881F991FAA1FA21710F094
:101F9000A21B63953850A9F7A05DAA3308F0A95D8C
:101FA000A19336F7B111B1931082CA010C94D80FE6
:101FB000DC01FC01672F71917723E1F7329704C0B0
:101FC0007C916D9370836291AE17BF07C8F308953B
:101FD000F999FECF92BD81BDF89A992780B50895F1
:101FE000991B79E004C0991F961708F0961B881F6B
:101FF0007A95C9F780950895AA1BBB1B51E107C0CC
:10200000AA1FBB1FA617B70710F0A61BB70B881F88
:10201000991F5A95A9F780959095BC01CD01089517
:10202000A1E21A2EAA1BBB1BFD010DC0AA1FBB1FDC
:10203000EE1FFF1FA217B307E407F50720F0A21B4E
:10204000B30BE40BF50B661F771F881F991F1A94BB
:1020500069F760957095809590959B01AC01BD01E5
:10206000CF010895052E97FB1EF400940E9449109D
:1020700057FD07D00E94101007FC03D04EF40C94BB
:10208000491050954095309521953F4F4F4F5F4FE8
:10209000089590958095709561957F4F8F4F9F4FD4
:1020A00008950E946210A59F900DB49F900DA49F6B
:1020B000800D911D11240895EE0FFF1F0590F491DE
:1020C000E02D0994A29FB001B39FC001A39F700DA2
:1020D000811D1124911DB29F700D811D1124911D30
:1020E000089581E090E0F8940C948A10FB01DC01E3
:1020F00004C08D910190801921F441505040C8F7DF
:10210000881B990B0895FB01DC0101900D920020C2
:08211000E1F70895F894FFCFF8
:10211800C0A801CB7469692D30310A014172647518
:10212800696E6F2D454E4332386A36302D30300097
:1021380000000000000000000000000000FFFFFF9A
:10214800FFFFFF000000006508F000ED06AC081E68
:1021580007FC061007000000004D01F0005E015D5D
:04216800010D0A005B
:00000001FF
